:100000000C9463000C948B000C948B000C948B006C
:100010000C948B000C948B000C948B000C948B0034
:100020000C948B000C948B000C948B000C948B0024
:100030000C948B000C948B000C948B000C948B0014
:100040000C945B070C948B000C94B5080C948B00FB
:100050000C948B000C948B000C948B000C948B00F4
:100060000C948B000C948B000000000024002700EF
:100070002A0000000000250028002B0000000000DE
:1000800023002600290004040404040404040202DA
:100090000202020203030303030301020408102007
:1000A0004080010204081020010204081020000012
:1000B0000007000201000003040600000000000029
:1000C00000004D06FE0911241FBECFEFD4E0DEBFB5
:1000D000CDBF11E0A0E0B1E0E0E0F8E102C00590A2
:1000E0000D92AA34B107D9F712E0AAE4B1E001C039
:1000F0001D92AD31B107E1F710E0C6ECD0E004C0CD
:100100002297FE010E94C30BC23CD107C9F70E948F
:1001100054070C94FE0B0C940000AEE0B0E0E3E951
:10012000F0E00C94D50B0D891E8986E08C831A8330
:1001300009838FEF9FE79E838D839E01275E3F4F4C
:10014000CE0101966F89788DA9010E94B1002F819F
:100150003885020F131FF80110822E96E4E00C94EC
:10016000F10BABE0B0E0E7EBF0E00C94C70B3C0127
:100170002B015A01FC0117821682838181FD03C085
:100180006FEF7FEFC6C19AE0892E1E010894211CF3
:10019000311CF3012381F20123FD859123FF81911D
:1001A0002F01882309F4B2C1853239F423FD8591EA
:1001B00023FF81912F01853229F490E0B3010E9441
:1001C000A402E7CF982FFF24EE249924FFE1FF1526
:1001D000D0F09B3269F09C3228F4903259F093327F
:1001E00091F40EC09D3249F0903369F441E024C08F
:1001F00052E0F52A84E0F82A28C098E0F92A25C0C0
:10020000E0E1FE2A22C0F7FC29C0892F80538A3002
:1002100070F4F6FE05C0989C902C1124980E15C021
:10022000E89CE02C1124E80EF0E2FF2A0EC09E327A
:1002300029F4F6FC6BC140E4F42A07C09C3619F49B
:1002400050E8F52A02C0983649F4F20123FD959151
:1002500023FF91912F01992309F0B8CF892F85545D
:10026000833018F08052833038F444E050E0A40E1C
:10027000B51E5FE359830FC0933631F0933779F0A1
:10028000933509F056C020C0F5018081898342E092
:1002900050E0A40EB51E610101E010E012C0F501AE
:1002A000C080D180F6FC03C06FEF7FEF02C0692DE4
:1002B00070E042E050E0A40EB51EC6010E94990213
:1002C0008C015FE7F52214C0F501C080D180F6FCF7
:1002D00003C06FEF7FEF02C0692D70E042E050E095
:1002E000A40EB51EC6010E948E028C0150E8F52AAC
:1002F000F3FE07C01AC080E290E0B3010E94A4029E
:10030000EA948E2D90E008171907A8F30EC0F601A5
:10031000F7FC8591F7FE81916F0190E0B3010E9497
:10032000A402E110EA94015010400115110579F77B
:10033000EAC0943611F0993669F5F7FE08C0F50168
:10034000208131814281538184E090E00AC0F5012F
:10035000808191819C01442737FD4095542F82E094
:1003600090E0A80EB91E9FE6F92257FF09C05095EC
:100370004095309521953F4F4F4F5F4FE0E8FE2A63
:10038000CA01B901A1012AE030E00E94D002D82EB2
:10039000D21840C0953729F41F2D1F7E2AE030E087
:1003A0001DC01F2D197F9F3661F0903720F49835BE
:1003B00009F0ACC00FC0903739F0983709F0A6C0EB
:1003C00004C028E030E00AC0106114FD146020E190
:1003D00030E004C014FD166020E132E017FF08C0D1
:1003E000F501608171818281938144E050E008C011
:1003F000F50180819181BC0180E090E042E050E015
:10040000A40EB51EA1010E94D002D82ED2188FE7EB
:10041000F82EF122F6FE0BC05EEFF522D91438F467
:10042000F4FE07C0F2FC05C08FEEF82202C01D2DBD
:1004300001C0192DF4FE0DC0FE01ED0DF11D8081EE
:10044000803319F499EEF92208C01F5FF2FE05C04F
:1004500003C08F2D867809F01F5F0F2DF3FC14C0A9
:10046000F0FE0FC01E1510F09D2C0BC09D2C9E0C95
:10047000911A1E2D06C080E290E0B3010E94A402F2
:100480001F5F1E15C0F304C01E1510F4E11A01C051
:10049000EE2404FF0FC080E390E0B3010E94A402A9
:1004A00002FF1DC001FD03C088E790E00EC088E593
:1004B00090E00BC0802F867891F001FF02C08BE2A4
:1004C00001C080E2F7FC8DE290E0B3010E94A4023B
:1004D00006C080E390E0B3010E94A4029A94D9146C
:1004E000C0F3DA94F101ED0DF11D808190E0B301CC
:1004F0000E94A402DD20A9F706C080E290E0B301CB
:100500000E94A402EA94EE20C1F743CEF301668173
:100510007781CB012B96E2E10C94E30BFC01059073
:10052000615070400110D8F7809590958E0F9F1FF5
:100530000895FC016150704001900110D8F780953A
:1005400090958E0F9F1F08950F931F93CF93DF9366
:100550008C01EB018B8181FF1BC082FF0DC02E81BE
:100560003F818C819D812817390764F4E881F981E6
:100570000193F983E88306C0E885F985802F099502
:10058000892B31F48E819F8101969F838E8302C0D7
:100590000FEF1FEFC801DF91CF911F910F910895C9
:1005A000FA01AA27283051F1203181F1E8946F93A4
:1005B0006E7F6E5F7F4F8F4F9F4FAF4FB1E03ED04A
:1005C000B4E03CD0670F781F891F9A1FA11D680FE8
:1005D000791F8A1F911DA11D6A0F711D811D911D1B
:1005E000A11D20D009F468943F912AE0269F112490
:1005F0003019305D3193DEF6CF010895462F4770F4
:10060000405D4193B3E00FD0C9F7F6CF462F4F704E
:10061000405D4A3318F0495D31FD4052419302D0AC
:10062000A9F7EACFB4E0A695979587957795679552
:10063000BA95C9F700976105710508959B01AC0152
:100640000A2E06945795479537952795BA95C9F779
:10065000620F731F841F951FA01D0895CF92DF9214
:10066000EF92FF920F931F936C017A018B01FC01B3
:1006700020853185442737FD4095542F60E67AEE7A
:1006800080E090E00E94920BCA01B901A801970195
:100690000E94920BF60124833583468357831F9172
:1006A0000F91FF90EF90DF90CF9008950F931F93DD
:1006B000CF93DF93EC018B018A859B85029731F5FF
:1006C0006130710589F06230710524F4611571059E
:1006D00041F01CC06230710571F063307105B1F4F6
:1006E0000DC08E8560E002C08E8561E00E94190811
:1006F000888961E009C08E8561E002C08E8560E076
:100700000E941908888960E00E9419088A859B85E3
:100710000497E9F501301105A1F0023011051CF430
:10072000012B41F034C002301105D1F00330110526
:1007300071F51DC08E8561E00E941908888960E00E
:1007400006C08E8560E00E941908888961E00E94D9
:1007500019088A8961E00E9419088C8960E015C037
:100760008E8560E00E941908888961E006C08E8548
:1007700061E00E941908888960E00E9419088A894E
:1007800060E00E9419088C8961E00E941908DF91DD
:10079000CF911F910F9108950F931F93CF93DF93E4
:1007A000EC011616170624F481E090E09983888303
:1007B00077FF02C0198218828B0177FF46C010951F
:1007C00001951F4F42C00E94A3072E893F89488D83
:1007D000598D621B730B840B950B2C813D814E81CF
:1007E0005F81621773078407950768F30E94A30768
:1007F0006E8B7F8B888F998F888199812C853D8521
:10080000019761F42F5F3F4F3D872C87888599853D
:100810002817390771F41D861C860BC0232B21F481
:10082000888599859D878C878C859D8501979D8777
:100830008C87015010408C859D8564E070E00E949B
:100840005D0BBC01CE010E9456030115110509F094
:10085000BACFDF91CF911F910F910895CF92DF9280
:10086000EF92FF920F931F936C01842FF601158670
:1008700014861382128211821082168A178A108EB1
:10088000118E7187608746875787318B208B138B3A
:10089000028BF58AE48A61E00E94F907F6018089FB
:1008A00061E00E94F907F601828961E00E94F90780
:1008B000F601848961E00E94F90784E090E0F60186
:1008C000938782871F910F91FF90EF90DF90CF90D9
:1008D00008950F931F938C01FC01848160E00E94B6
:1008E000190881E090E00E94B107F801848161E07D
:1008F0000E94190881E090E00E94B107F80184810C
:1009000060E00E94190884E690E00E94B1071F9100
:100910000F910895CF92DF92EF92FF920F931F9362
:10092000CF93DF93D82EC92E282F392FC9018C01E0
:10093000C0E0D0E0E62EFF24F801858161E00E944E
:10094000F907B7010C2E02C0759567950A94E2F776
:100950006170F80185810E94190821960F5F1F4F71
:10096000C830D10549F78D2D9C2D0E946904DF9177
:10097000CF911F910F91FF90EF90DF90CF9008954E
:10098000CF92DF92EF92FF920F931F93CF93DF935B
:10099000D82EC92E282F392FC9018C01C0E0D0E0F4
:1009A000E62EFF24F801858161E00E94F907B70176
:1009B0000C2E02C0759567950A94E2F76170F801F4
:1009C00085810E94190821960F5F1F4FC430D10501
:1009D00049F78D2D9C2D0E946904DF91CF911F91C5
:1009E0000F91FF90EF90DF90CF9008951F93CF93DA
:1009F000DF93EC01162F8A81642F0E9419088B81E6
:100A000060E00E9419088D8584FF05C0CE01612F2A
:100A10000E948A040EC0612F70E084E0759567958E
:100A20008A95E1F7CE010E94C004CE01612F0E9499
:100A3000C004DF91CF911F91089541E00E94F60418
:100A4000089540E00E94F6040895FC016685862F13
:100A5000846086876C60CF010E9421050895DF9332
:100A6000CF93CDB7DEB728970FB6F894DEBF0FBE91
:100A7000CDBF9C01FE013196A7E3B1E088E00D9067
:100A800001928150E1F7F9018189841710F4482F10
:100A90004150E42FF0E0EE0FFF1FEC0FFD1F8181AE
:100AA000680F6068C9010E94210528960FB6F89466
:100AB000DEBF0FBECDBFCF91DF91089561E00E94F0
:100AC000210580ED97E00E94B1070895CF93DF9351
:100AD000EC01423018F08D8588608D87498B1A8A29
:100AE000222329F0413019F48D8584608D8780E5BB
:100AF00093EC0E94B1078A8160E00E9419088C8102
:100B000060E00E9419088B8160E00E9419086D85E1
:100B100064FD1DC0CE0163E00E94C00484E991E140
:100B20000E94B107CE0163E00E94C00484E991E114
:100B30000E94B107CE0163E00E94C00486E990E004
:100B40000E94B107CE0162E00E94C00416C060623C
:100B5000CE010E94210584E991E10E94B1076D85D3
:100B60006062CE010E94210586E990E00E94B107F3
:100B70006D856062CE010E9421056D856062CE01A7
:100B80000E94210584E08E87CE010E942505CE01BA
:100B90000E945E0582E08F87CE0166E00E942105FB
:100BA000DF91CF9108956F927F928F92AF92CF9203
:100BB000EF920F931F93DF93CF93CDB7DEB73C0136
:100BC000162F842FF301428323830483E582C68298
:100BD000A78280869D8591879E8592879F85938732
:100BE0009889948761E00E94F907F301838161E0AD
:100BF0000E94F907F301848161E00E94F907112343
:100C000019F0F301158603C080E1F3018587C30164
:100C100060E141E020E00E946605CF91DF911F91E5
:100C20000F91EF90CF90AF908F907F906F9008953D
:100C30008F92AF92CF92EF920F931F93CF93DF9348
:100C4000DC01362F542F722F102FAE2C8C2C81E309
:100C500091E011969C938E9300D000D0EDB7FEB733
:100C60003196CDB7DEB71982118212821382CD017F
:100C700061E0432F2FEF052FE72EC12E0E94D305F1
:100C80000F900F900F900F90DF91CF911F910F91C8
:100C9000EF90CF90AF908F900895CF92EF92FF9208
:100CA0000F931F938AE491E068EC70E047E050E016
:100CB00029E030E008E010E0EAE0EE2EF12C0E949E
:100CC0002E0484E691E06CE04BE027E008E059E078
:100CD000E52E3AE0C32E0E9418061F910F91FF9057
:100CE000EF90CF900895809123010E9466089C01A7
:100CF00090937C0180937B018091790190917A019E
:100D0000892B09F054C02130310509F050C0809181
:100D100025010E946608892B51F48091270161E02A
:100D20000E9419088AE491E06FEF7FEF09C080917B
:100D3000270161E00E9419088AE491E061E070E017
:100D40000E94CC038091270160E00E94190800D026
:100D500000D000D0EDB7FEB7319689E291E0ADB793
:100D6000BEB712969C938E93119780E091E0938387
:100D700082838091770190917801958384830E948A
:100D80008D008DB79EB706960FB6F8949EBF0FBE26
:100D90008DBF60917701709178018AE092E00E94A6
:100DA000360B8AE092E064E071E00E946F0A809165
:100DB0007B0190917C0190937A01809379018091DD
:100DC000270160E00E9419080895EF92FF920F93A7
:100DD0001F938091230160E00E94F9078091250113
:100DE00060E00E94F9078091270161E00E94F90705
:100DF0008AE092E040E855E260E070E00E94F2088C
:100E00008AE491E040E550E060E070E00E942E034B
:100E100004E611E0C80164E144E020E00E946605B8
:100E2000C8010E945E05C80166E071E00E946F0A79
:100E3000C80160E042E00E942F05C80169E171E04D
:100E40000E946F0A00D000D000D0EDB7FEB73196F7
:100E5000A9E2EA2EA1E0FA2EADB7BEB71296FC9237
:100E6000EE92119780E091E09383828380917B01E1
:100E700090917C01958384830E948D008DB79EB7ED
:100E800006960FB6F8949EBF0FBE8DBFC8016AE0EC
:100E900042E00E942F05C801B7010E946F0A1F910E
:100EA0000F91FF90EF9008950E94BF070E94E50602
:100EB0000E947306FDCF1F920F920FB60F9211245E
:100EC0002F933F938F939F93AF93BF938091810113
:100ED00090918201A0918301B091840130918501AC
:100EE0000196A11DB11D232F2D5F2D3720F02D5709
:100EF0000196A11DB11D20938501809381019093DE
:100F00008201A0938301B093840180917D0190912F
:100F10007E01A0917F01B09180010196A11DB11DBC
:100F200080937D0190937E01A0937F01B093800117
:100F3000BF91AF919F918F913F912F910F900FBED5
:100F40000F901F9018958FB7F894209181013091E0
:100F5000820140918301509184018FBFB901CA0180
:100F60000895019759F0FC01EE0FFF1FEE0FFF1FD0
:100F700032978FB7F8943197F1F78FBF089578942F
:100F800084B5826084BD84B5816084BD85B582608E
:100F900085BD85B5816085BDEEE6F0E0808181602C
:100FA0008083E1E8F0E080818260808380818160DD
:100FB0008083E0E8F0E0808181608083E1EBF0E015
:100FC000808184608083E0EBF0E0808181608083B9
:100FD000EAE7F0E0808184608083808182608083A2
:100FE0008081816080838081806880831092C100CD
:100FF0000895282F30E0C90186569F4FFC01949137
:101000002A573F4FF9018491882391F0E82FF0E0AF
:10101000EE0FFF1FE859FF4FA591B491662329F405
:101020008C91909589238C9308958C91892B8C9326
:101030000895482F50E0CA0182559F4FFC0124912A
:10104000CA0186569F4FFC0194914A575F4FFA019F
:1010500034913323D1F1222331F1233021F48091D3
:1010600080008F7705C0243031F4809180008F7D1F
:101070008093800018C0213019F484B58F7704C0A4
:10108000223021F484B58F7D84BD0DC0263021F43B
:101090008091B0008F7705C0273029F48091B0008F
:1010A0008F7D8093B000E32FF0E0EE0FFF1FEE582E
:1010B000FF4FA591B491662329F48C9190958923D3
:1010C0008C9308958C91892B8C930895682F70E0F0
:1010D000CB0182559F4FFC012491CB0186569F4F37
:1010E000FC0144916A577F4FFB019491992319F4B5
:1010F00020E030E038C0222331F1233021F4809108
:1011000080008F7705C0243031F4809180008F7D7E
:101110008093800018C0213019F484B58F7704C003
:10112000223021F484B58F7D84BD0DC0263021F49A
:101130008091B0008F7705C0273029F48091B000EE
:101140008F7D8093B000892F90E0880F991F84587D
:101150009F4FFC01A591B4918C9120E030E0842355
:1011600011F021E030E0C90108951F920F920FB6EF
:101170000F9211242F933F934F935F936F937F931D
:101180008F939F93AF93BF93EF93FF934091C600CC
:10119000E0910602F0910702CF01019660E870E04D
:1011A0000E945D0B9C018091080290910902281712
:1011B000390739F0EA57FE4F4083309307022093F6
:1011C0000602FF91EF91BF91AF919F918F917F9117
:1011D0006F915F914F913F912F910F900FBE0F90A4
:1011E0001F9018955F926F927F928F929F92AF920D
:1011F000BF92CF92DF92EF92FF920F931F93CF9304
:10120000DF93EC013A014B01413482E458078FE04F
:10121000680780E078070CF07FC060E874E88EE132
:1012200090E0A40193010E94920B21503040404075
:101230005040CA01B90122E030E040E050E00E9495
:10124000920B59016A01A6019501209530954095B0
:10125000509594E0220F331F441F551F9A95D1F7E4
:1012600060E074E284EF90E00E94920BCA01B90141
:101270002FEF30E040E050E00E943E0BA4019301CC
:101280000E94920BC90181509F4F181619061CF439
:10129000522E5A9403C055245394521A60E079E0B8
:1012A0008DE390E0A40193010E94920B2150304005
:1012B00040405040CA01B90122E030E040E050E037
:1012C0000E94920B209530954095509583E0220F17
:1012D000331F441F551F8A95D1F760E074E284EFF5
:1012E00090E00E94920BCA01B9012FEF30E040E07C
:1012F00050E00E943E0BA40193010E94920BC90191
:1013000081509F4F181619061CF4822F815002C07D
:1013100081E0821B851500F5E885F98581E090E084
:101320000A8802C0880F991F0A94E2F7808360E060
:1013300079E08DE390E0A40193010E94920B21508B
:10134000304040405040CA01B90122E030E040E066
:1013500050E00E94920B04C0E885F9851082950147
:10136000EC81FD813083EE81FF812083EA85FB855E
:10137000208141E050E0CA010E8402C0880F991F0D
:101380000A94E2F7282B2083EA85FB852081CA0195
:101390000F8402C0880F991F0A94E2F7282B20833C
:1013A000EA85FB858081088802C0440F551F0A9496
:1013B000E2F7842B8083DF91CF911F910F91FF90F3
:1013C000EF90DF90CF90BF90AF909F908F907F90E5
:1013D0006F905F900895FC01A085B18521898C9163
:1013E00090E0022E02C0959587950A94E2F780FF5F
:1013F000F6CF0484F585E02D6083089583E491E0C1
:1014000090930B0280930A0286E891E090930D027C
:1014100080930C0285EC90E090930F0280930E0273
:1014200084EC90E0909311028093100280EC90E0A5
:10143000909313028093120281EC90E09093150236
:101440008093140286EC90E090931702809316022A
:1014500084E08093180283E08093190287E08093F0
:101460001A0285E080931B0281E080931C0208959C
:101470000F931F93CF93DF938C01EB0109C021964B
:10148000D801ED91FC910190F081E02DC801099502
:1014900068816623A1F7DF91CF911F910F91089585
:1014A000EF92FF920F931F93CF93DF938C017B01F9
:1014B000EA010CC0D7016D917D01D801ED91FC913D
:1014C0000190F081E02DC80109952197209791F7AF
:1014D000DF91CF911F910F91FF90EF900895DC0164
:1014E000ED91FC910280F381E02D099508952F92F2
:1014F0003F924F925F926F927F928F929F92AF92A4
:10150000BF92CF92DF92EF92FF920F931F93DF93E0
:10151000CF93CDB7DEB7A0970FB6F894DEBF0FBE5E
:10152000CDBF1C016A017B014115510561057105A3
:1015300049F4DC01ED91FC910190F081E02D60E334
:10154000099554C0882499245401422E55246624B8
:10155000772401E010E00C0F1D1F080D191DC701B5
:10156000B601A30192010E94700BF80160830894F8
:10157000811C911CA11CB11CC701B601A3019201E1
:101580000E94700BC901DA016C017D01C114D10404
:10159000E104F104F1F681E0E82EF12CEC0EFD1EE1
:1015A000E80CF91C3E010894611C711CD501C401B2
:1015B0000197A109B1096C01C818D90814C0F60136
:1015C000EE0DFF1D60816A3010F4605D01C0695C42
:1015D000D101ED91FC910190F081E02DC1010995BF
:1015E0000894E108F1086E147F0449F7A0960FB63D
:1015F000F894DEBF0FBECDBFCF91DF911F910F9149
:10160000FF90EF90DF90CF90BF90AF909F908F9022
:101610007F906F905F904F903F902F900895EF9242
:10162000FF920F931F93CF93DF93EC017A018B010D
:1016300077FF0FC0E881F9810190F081E02D6DE224
:10164000099510950095F094E094E11CF11C011DA2
:10165000111DCE01B801A7012AE00E94770ADF918F
:10166000CF911F910F91FF90EF900895AB016627E6
:1016700057FD6095762F0E940F0B0895629FD00151
:10168000739FF001829FE00DF11D649FE00DF11D3D
:10169000929FF00D839FF00D749FF00D659FF00DEC
:1016A0009927729FB00DE11DF91F639FB00DE11DD9
:1016B000F91FBD01CF011124089597FB092E0726BC
:1016C0000AD077FD04D049D006D000201AF47095D6
:1016D00061957F4F0895F6F7909581959F4F0895F6
:1016E000A1E21A2EAA1BBB1BFD010DC0AA1FBB1F26
:1016F000EE1FFF1FA217B307E407F50720F0A21B98
:10170000B30BE40BF50B661F771F881F991F1A9404
:1017100069F760957095809590959B01AC01BD012E
:10172000CF01089597FB092E05260ED057FD04D052
:10173000D7DF0AD0001C38F450954095309521959C
:101740003F4F4F4F5F4F0895F6F7909580957095F6
:1017500061957F4F8F4F9F4F0895AA1BBB1B51E18F
:1017600007C0AA1FBB1FA617B70710F0A61BB70B11
:10177000881F991F5A95A9F780959095BC01CD01B6
:101780000895EE0FFF1F0590F491E02D09942F921C
:101790003F924F925F926F927F928F929F92AF9201
:1017A000BF92CF92DF92EF92FF920F931F93CF934E
:1017B000DF93CDB7DEB7CA1BDB0B0FB6F894DEBFE5
:1017C0000FBECDBF09942A88398848885F846E840B
:1017D0007D848C849B84AA84B984C884DF80EE8055
:1017E000FD800C811B81AA81B981CE0FD11D0FB65E
:1017F000F894DEBF0FBECDBFED010895F894FFCF82
:10180000253364002F00537465707065722C205668
:101810006572732E20312E3000506F736974696FBA
:101820006E3A000300020005000000000000000006
:10183000001D05380A500A00004000140054000042
:0A184000000000EB09380A500A000E
:00000001FF
