:100000000C9463000C948B000C948B000C948B006C
:100010000C948B000C948B000C948B000C948B0034
:100020000C948B000C948B000C948B000C948B0024
:100030000C948B000C948B000C948B000C948B0014
:100040000C944F090C948B000C9480070C948B003B
:100050000C948B000C948B000C948B000C948B00F4
:100060000C948B000C948B000000000024002700EF
:100070002A0000000000250028002B0000000000DE
:1000800023002600290004040404040404040202DA
:100090000202020203030303030301020408102007
:1000A0004080010204081020010204081020000012
:1000B0000007000201000003040600000000000029
:1000C00000004C06390811241FBECFEFD4E0DEBF7C
:1000D000CDBF11E0A0E0B1E0E8EEF6E102C005908E
:1000E0000D92A234B107D9F712E0A2E4B1E001C049
:1000F0001D92A531B107E1F710E0C6ECD0E004C0D5
:100100002297FE010E94370BC23CD107C9F70E941B
:1001100079070C94720B0C940000AEE0B0E0E3E9B8
:10012000F0E00C94490B0D891E8986E08C831A83BC
:1001300009838FEF9FE79E838D839E01275E3F4F4C
:10014000CE0101966F89788DA9010E94B1002F819F
:100150003885020F131FF80110822E96E4E00C94EC
:10016000650BABE0B0E0E7EBF0E00C943B0B3C013F
:100170002B015A01FC0117821682838181FD03C085
:100180006FEF7FEFC6C19AE0892E1E010894211CF3
:10019000311CF3012381F20123FD859123FF81911D
:1001A0002F01882309F4B2C1853239F423FD8591EA
:1001B00023FF81912F01853229F490E0B3010E9441
:1001C000A402E7CF982FFF24EE249924FFE1FF1526
:1001D000D0F09B3269F09C3228F4903259F093327F
:1001E00091F40EC09D3249F0903369F441E024C08F
:1001F00052E0F52A84E0F82A28C098E0F92A25C0C0
:10020000E0E1FE2A22C0F7FC29C0892F80538A3002
:1002100070F4F6FE05C0989C902C1124980E15C021
:10022000E89CE02C1124E80EF0E2FF2A0EC09E327A
:1002300029F4F6FC6BC140E4F42A07C09C3619F49B
:1002400050E8F52A02C0983649F4F20123FD959151
:1002500023FF91912F01992309F0B8CF892F85545D
:10026000833018F08052833038F444E050E0A40E1C
:10027000B51E5FE359830FC0933631F0933779F0A1
:10028000933509F056C020C0F5018081898342E092
:1002900050E0A40EB51E610101E010E012C0F501AE
:1002A000C080D180F6FC03C06FEF7FEF02C0692DE4
:1002B00070E042E050E0A40EB51EC6010E94990213
:1002C0008C015FE7F52214C0F501C080D180F6FCF7
:1002D00003C06FEF7FEF02C0692D70E042E050E095
:1002E000A40EB51EC6010E948E028C0150E8F52AAC
:1002F000F3FE07C01AC080E290E0B3010E94A4029E
:10030000EA948E2D90E008171907A8F30EC0F601A5
:10031000F7FC8591F7FE81916F0190E0B3010E9497
:10032000A402E110EA94015010400115110579F77B
:10033000EAC0943611F0993669F5F7FE08C0F50168
:10034000208131814281538184E090E00AC0F5012F
:10035000808191819C01442737FD4095542F82E094
:1003600090E0A80EB91E9FE6F92257FF09C05095EC
:100370004095309521953F4F4F4F5F4FE0E8FE2A63
:10038000CA01B901A1012AE030E00E94D002D82EB2
:10039000D21840C0953729F41F2D1F7E2AE030E087
:1003A0001DC01F2D197F9F3661F0903720F49835BE
:1003B00009F0ACC00FC0903739F0983709F0A6C0EB
:1003C00004C028E030E00AC0106114FD146020E190
:1003D00030E004C014FD166020E132E017FF08C0D1
:1003E000F501608171818281938144E050E008C011
:1003F000F50180819181BC0180E090E042E050E015
:10040000A40EB51EA1010E94D002D82ED2188FE7EB
:10041000F82EF122F6FE0BC05EEFF522D91438F467
:10042000F4FE07C0F2FC05C08FEEF82202C01D2DBD
:1004300001C0192DF4FE0DC0FE01ED0DF11D8081EE
:10044000803319F499EEF92208C01F5FF2FE05C04F
:1004500003C08F2D867809F01F5F0F2DF3FC14C0A9
:10046000F0FE0FC01E1510F09D2C0BC09D2C9E0C95
:10047000911A1E2D06C080E290E0B3010E94A402F2
:100480001F5F1E15C0F304C01E1510F4E11A01C051
:10049000EE2404FF0FC080E390E0B3010E94A402A9
:1004A00002FF1DC001FD03C088E790E00EC088E593
:1004B00090E00BC0802F867891F001FF02C08BE2A4
:1004C00001C080E2F7FC8DE290E0B3010E94A4023B
:1004D00006C080E390E0B3010E94A4029A94D9146C
:1004E000C0F3DA94F101ED0DF11D808190E0B301CC
:1004F0000E94A402DD20A9F706C080E290E0B301CB
:100500000E94A402EA94EE20C1F743CEF301668173
:100510007781CB012B96E2E10C94570BFC010590FF
:10052000615070400110D8F7809590958E0F9F1FF5
:100530000895FC016150704001900110D8F780953A
:1005400090958E0F9F1F08950F931F93CF93DF9366
:100550008C01EB018B8181FF1BC082FF0DC02E81BE
:100560003F818C819D812817390764F4E881F981E6
:100570000193F983E88306C0E885F985802F099502
:10058000892B31F48E819F8101969F838E8302C0D7
:100590000FEF1FEFC801DF91CF911F910F910895C9
:1005A000FA01AA27283051F1203181F1E8946F93A4
:1005B0006E7F6E5F7F4F8F4F9F4FAF4FB1E03ED04A
:1005C000B4E03CD0670F781F891F9A1FA11D680FE8
:1005D000791F8A1F911DA11D6A0F711D811D911D1B
:1005E000A11D20D009F468943F912AE0269F112490
:1005F0003019305D3193DEF6CF010895462F4770F4
:10060000405D4193B3E00FD0C9F7F6CF462F4F704E
:10061000405D4A3318F0495D31FD4052419302D0AC
:10062000A9F7EACFB4E0A695979587957795679552
:10063000BA95C9F700976105710508959B01AC0152
:100640000A2E06945795479537952795BA95C9F779
:10065000620F731F841F951FA01D08950F931F9392
:100660008C01FC01848160E00E94350A81E090E009
:100670000E94CD09F801848161E00E94350A81E081
:1006800090E00E94CD09F801848160E00E94350A63
:1006900084E690E00E94CD091F910F910895CF92BA
:1006A000DF92EF92FF920F931F93CF93DF93D82E99
:1006B000C92E282F392FC9018C01C0E0D0E0E62EC9
:1006C000FF24F801858161E00E94150AB7010C2E14
:1006D00002C0759567950A94E2F76170F80185810B
:1006E0000E94350A21960F5F1F4FC830D10549F788
:1006F0008D2D9C2D0E942E03DF91CF911F910F9184
:10070000FF90EF90DF90CF900895CF92DF92EF921D
:10071000FF920F931F93CF93DF93D82EC92E282FCC
:10072000392FC9018C01C0E0D0E0E62EFF24F8018A
:10073000858161E00E94150AB7010C2E02C07595F3
:1007400067950A94E2F76170F80185810E94350A85
:1007500021960F5F1F4FC430D10549F78D2D9C2D79
:100760000E942E03DF91CF911F910F91FF90EF9088
:10077000DF90CF9008951F93CF93DF93EC01162F56
:100780008A81642F0E94350A8B8160E00E94350ABD
:100790008D8584FF05C0CE01612F0E944F030EC0DE
:1007A000612F70E084E0759567958A95E1F7CE0139
:1007B0000E948503CE01612F0E948503DF91CF91B6
:1007C0001F91089541E00E94BB03089540E00E94FC
:1007D000BB030895FC016685862F846086876C6064
:1007E000CF010E94E6030895DF93CF93CDB7DEB724
:1007F00028970FB6F894DEBF0FBECDBF9C01FE0157
:100800003196A3E3B1E088E00D9001928150E1F7C9
:10081000F9018089841710F4482F4150E42FF0E04B
:10082000EE0FFF1FEC0FFD1F8181680F6068C9018B
:100830000E94E60328960FB6F894DEBF0FBECDBF28
:10084000CF91DF91089561E00E94E60380ED97E08B
:100850000E94CD090895CF93DF93EC01423018F048
:100860008D8588608D87488B222329F0413019F4CB
:100870008D8584608D8780E593EC0E94CD098A8107
:1008800060E00E94350A8C8160E00E94350A8B810D
:1008900060E00E94350A6D8564FD1DC0CE0163E0F5
:1008A0000E94850384E991E10E94CD09CE0163E0B5
:1008B0000E94850384E991E10E94CD09CE0163E0A5
:1008C0000E94850386E990E00E94CD09CE0162E096
:1008D0000E94850316C06062CE010E94E60384E98F
:1008E00091E10E94CD096D856062CE010E94E60310
:1008F00086E990E00E94CD096D856062CE010E947C
:10090000E6036D856062CE010E94E60384E08E8777
:10091000CE010E94EA03CE010E94230482E08F8769
:10092000CE0166E00E94E603DF91CF9108956F92B9
:100930007F928F92AF92CF92EF920F931F93DF939C
:10094000CF93CDB7DEB73C01162F842FF30142833E
:1009500023830483E582C682A78280869D85918752
:100960009E8592879F8593879889948761E00E94EE
:10097000150AF301838161E00E94150AF301848165
:1009800061E00E94150A112319F0F301158603C0D6
:1009900080E1F3018587C30160E141E020E00E942E
:1009A0002B04CF91DF911F910F91EF90CF90AF90DB
:1009B0008F907F906F9008958F92AF92CF92EF9229
:1009C0000F931F93CF93DF93DC01362F542F722F99
:1009D000102FAE2C8C2C81E391E011969C938E937A
:1009E00000D000D0EDB7FEB73196CDB7DEB7198293
:1009F000118212821382CD0161E0432F2FEF052F68
:100A0000E72EC12E0E9497040F900F900F900F9029
:100A1000DF91CF911F910F91EF90CF90AF908F907A
:100A20000895CF92DF92EF92FF920F931F936C0184
:100A30007A018B01FC0120853185442737FD4095E3
:100A4000542F60E67AEE80E090E00E94060BCA0127
:100A5000B901A80197010E94060BF6012483358392
:100A6000468357831F910F91FF90EF90DF90CF90B7
:100A700008950F931F93CF93DF93EC018B018A8529
:100A80009B85029731F56130710589F062307105FF
:100A900024F46115710541F01CC06230710571F0DC
:100AA00063307105B1F40DC08E8560E002C08E85A3
:100AB00061E00E94350A888961E009C08E8561E0A5
:100AC00002C08E8560E00E94350A888960E00E943D
:100AD000350A8A859B850497E9F501301105A1F057
:100AE000023011051CF4012B41F034C00230110515
:100AF000D1F00330110571F51DC08E8561E00E94B3
:100B0000350A888960E006C08E8560E00E94350A5B
:100B1000888961E00E94350A8A8961E00E94350A6D
:100B20008C8960E015C08E8560E00E94350A888956
:100B300061E006C08E8561E00E94350A888960E028
:100B40000E94350A8A8960E00E94350A8C8961E03A
:100B50000E94350ADF91CF911F910F9108950F9355
:100B60001F93CF93DF93EC011616170624F481E050
:100B700090E09983888377FF02C0198218828B01E5
:100B800077FF46C0109501951F4F42C00E94BF09D4
:100B90002E893F89488D598D621B730B840B950BF1
:100BA0002C813D814E815F81621773078407950711
:100BB00068F30E94BF096E8B7F8B888F998F888125
:100BC00099812C853D85019761F42F5F3F4F3D87CB
:100BD0002C87888599852817390771F41D861C860E
:100BE0000BC0232B21F4888599859D878C878C8564
:100BF0009D8501979D878C87015010408C859D8530
:100C000064E070E00E94D10ABC01CE010E94390567
:100C10000115110509F0BACFDF91CF911F910F9106
:100C20000895CF92DF92EF92FF920F931F936C0182
:100C3000842FF60115861486138212821182108287
:100C4000168A178A108E118E71876087468757879C
:100C5000318B208B138B028BF58AE48A61E00E9432
:100C6000150AF601808961E00E94150AF601828961
:100C700061E00E94150AF601848961E00E94150A6C
:100C800084E090E0F601938782871F910F91FF9097
:100C9000EF90DF90CF900895CF92EF92FF920F9355
:100CA0001F9382E491E068EC70E047E050E029E0B7
:100CB00030E008E010E0EAE0EE2EF12C0E94110690
:100CC0008CE591E06CE04BE027E008E059E0E52E90
:100CD0003AE0C32E0E94DC041F910F91FF90EF9029
:100CE000CF900895809123010E94820A9C019093E5
:100CF00072018093710180916F0190917001892B35
:100D000009F07AC02130310509F076C080912501C3
:100D10000E94820A20916D0130916E01892B81F42D
:100D20002150304030936E0120936D018091270156
:100D300061E00E94350A82E491E06FEF7FEF0FC01F
:100D40002F5F3F4F30936E0120936D0180912701FB
:100D500061E00E94350A82E491E061E070E00E9467
:100D6000AF058091270160E00E94350A00D000D0D5
:100D700000D0EDB7FEB7319689E291E0ADB7BEB7CE
:100D800012969C938E93119780E091E093838283D7
:100D900080916D0190916E01958384830E948D00F6
:100DA0008DB79EB706960FB6F8949EBF0FBE8DBF47
:100DB0008CE591E06AE042E00E94F40387E061E0A4
:100DC0000E94150A88E061E00E94150A89E061E04E
:100DD0000E94150A8AE061E00E94150A60916D0187
:100DE00070916E0187EF91E00E94470987EF91E0D3
:100DF00064E071E00E94700880917101909172012D
:100E00009093700180936F018091270160E00E94B0
:100E1000350A0895EF92FF920F931F93809123015B
:100E200060E00E94150A8091250160E00E94150A89
:100E30008091270161E00E94150A87EF91E040E868
:100E400055E260E070E00E94BD0782E491E04CE36F
:100E500050E060E070E00E9411050CE511E0C8016F
:100E600064E144E020E00E942B04C8010E942304B6
:100E7000C80166E071E00E947008C80160E042E0CD
:100E80000E94F403C80169E171E00E94700800D07B
:100E900000D000D0EDB7FEB73196A9E2EA2EA1E06E
:100EA000FA2EADB7BEB71296FC92EE92119780E083
:100EB00091E0938382838091710190917201958377
:100EC00084830E948D008DB79EB706960FB6F89466
:100ED0009EBF0FBE8DBFC8016AE042E00E94F403CE
:100EE000C801B7010E9470081F910F91FF90EF9009
:100EF00008950E94DB090E940A070E947206FDCF36
:100F00001F920F920FB60F9211242F933F934F937E
:100F10005F936F937F938F939F93AF93BF93EF9361
:100F2000FF934091C600E091F301F091F401CF01ED
:100F3000019660E870E00E94D10A9C018091F50161
:100F40009091F6012817390739F0ED58FE4F40838C
:100F50003093F4012093F301FF91EF91BF91AF9192
:100F60009F918F917F916F915F914F913F912F91C1
:100F70000F900FBE0F901F901895AF92BF92CF9217
:100F8000DF92EF92FF920F931F93CF93DF936C0149
:100F90007A018B01DC011496AD90BC901597CB01C2
:100FA000BA0122E030E040E050E00E94060B205CF5
:100FB0003D4B404F5F4FCA01B901A80197010E9404
:100FC000060BC901DA010197A109B109292F3A2FAE
:100FD0004B2F552747FD5A950196A11DB11DE501DF
:100FE0002883E601EE81FF8181508083EA85FB85BD
:100FF000208141E050E0CA010E8402C0880F991F91
:101000000A94E2F7282B2083EA85FB852081CA0118
:101010000F8402C0880F991F0A94E2F7282B2083BF
:10102000EA85FB858081088802C0440F551F0A9419
:10103000E2F7842B8083DF91CF911F910F91FF9076
:10104000EF90DF90CF90BF90AF900895FC01A08506
:10105000B18521898C9190E0022E02C095958795EB
:101060000A94E2F780FFF6CF0484F585E02D6083D3
:1010700008958FE391E09093F8018093F70183E75F
:1010800091E09093FA018093F90185EC90E09093C0
:10109000FC018093FB0184EC90E09093FE0180932F
:1010A000FD0180EC90E0909300028093FF0181ECC1
:1010B00090E0909302028093010286EC90E090937E
:1010C00004028093030284E08093050283E080930E
:1010D000060287E08093070285E080930802089566
:1010E0000F931F93CF93DF938C01EB0109C02196DF
:1010F000D801ED91FC910190F081E02DC801099596
:1011000068816623A1F7DF91CF911F910F91089518
:101110002F923F924F925F926F927F928F929F9207
:10112000AF92BF92CF92DF92EF92FF920F931F93F5
:10113000DF93CF93CDB7DEB7A0970FB6F894DEBF9D
:101140000FBECDBF1C016A017B0141155105610530
:10115000710549F4DC01ED91FC910190F081E02DE5
:1011600060E3099554C0882499245401422E5524E3
:101170006624772401E010E00C0F1D1F080D191DD7
:10118000C701B601A30192010E94E40AF80160833D
:101190000894811C911CA11CB11CC701B601A301BC
:1011A00092010E94E40AC901DA016C017D01C114B7
:1011B000D104E104F104F1F681E0E82EF12CEC0E0B
:1011C000FD1EE80CF91C3E010894611C711CD50140
:1011D000C4010197A109B1096C01C818D90814C04C
:1011E000F601EE0DFF1D60816A3010F4605D01C0F4
:1011F000695CD101ED91FC910190F081E02DC1017C
:1012000009950894E108F1086E147F0449F7A09647
:101210000FB6F894DEBF0FBECDBFCF91DF911F9107
:101220000F91FF90EF90DF90CF90BF90AF909F9085
:101230008F907F906F905F904F903F902F90089588
:10124000EF92FF920F931F93CF93DF93EC017A01FC
:101250008B0177FF0FC0E881F9810190F081E02DCB
:101260006DE2099510950095F094E094E11CF11C55
:10127000011D111DCE01B801A7012AE00E948808B6
:10128000DF91CF911F910F91FF90EF900895AB01E7
:10129000662757FD6095762F0E94200908951F92BA
:1012A0000F920FB60F9211242F938F939F93AF93AA
:1012B000BF938091090290910A02A0910B02B09114
:1012C0000C020196A11DB11D8093090290930A02A0
:1012D000A0930B02B0930C0280910D0290910E022C
:1012E000A0910F02B09110028050904CAF4FBF4FB1
:1012F00080930D0290930E02A0930F02B093100200
:1013000027C080910D0290910E02A0910F02B09122
:10131000100280589E43A040B04080930D029093ED
:101320000E02A0930F02B0931002809111029091CF
:101330001202A0911302B09114020196A11DB11DD9
:101340008093110290931202A0931302B09314029F
:1013500080910D0290910E02A0910F02B0911002A7
:1013600081589E43A040B04060F6BF91AF919F91DD
:101370008F912F910F900FBE0F901F9018958FB7E0
:10138000F894209111023091120240911302509171
:1013900014028FBFB901CA010895019759F0FC01E9
:1013A000EE0FFF1FEE0FFF1F32978FB7F8943197A4
:1013B000F1F78FBF0895789484B5826084BD84B5B9
:1013C000816084BD85B5826085BD85B5816085BD40
:1013D000EEE6F0E0808181608083E1E8F0E08081EA
:1013E00082608083808181608083E0E8F0E080819A
:1013F00081608083E1EBF0E0808184608083E0EBBA
:10140000F0E0808181608083EAE7F0E080818460A1
:1014100080838081826080838081816080838081FD
:10142000806880831092C1000895282F30E0C901A0
:1014300086569F4FFC0194912A573F4FF9018491A2
:10144000882391F0E82FF0E0EE0FFF1FE859FF4FDF
:10145000A591B491662329F48C91909589238C935E
:1014600008958C91892B8C930895482F50E0CA01E0
:1014700082559F4FFC012491CA0186569F4FFC0163
:1014800094914A575F4FFA0134913323D1F12223CB
:1014900031F1233021F4809180008F7705C0243012
:1014A00031F4809180008F7D8093800018C02130BE
:1014B00019F484B58F7704C0223021F484B58F7D70
:1014C00084BD0DC0263021F48091B0008F7705C017
:1014D000273029F48091B0008F7D8093B000E32FF6
:1014E000F0E0EE0FFF1FEE58FF4FA591B491662379
:1014F00029F48C91909589238C9308958C91892B54
:101500008C930895682F70E0CB0182559F4FFC01AA
:101510002491CB0186569F4FFC0144916A577F4F1F
:10152000FB019491992319F420E030E038C0222384
:1015300031F1233021F4809180008F7705C0243071
:1015400031F4809180008F7D8093800018C021301D
:1015500019F484B58F7704C0223021F484B58F7DCF
:1015600084BD0DC0263021F48091B0008F7705C076
:10157000273029F48091B0008F7D8093B000892FAF
:1015800090E0880F991F84589F4FFC01A591B4915A
:101590008C9120E030E0842311F021E030E0C9019B
:1015A000089597FB092E07260AD077FD04D049D06D
:1015B00006D000201AF4709561957F4F0895F6F7D4
:1015C000909581959F4F0895A1E21A2EAA1BBB1BEF
:1015D000FD010DC0AA1FBB1FEE1FFF1FA217B307FF
:1015E000E407F50720F0A21BB30BE40BF50B661F15
:1015F000771F881F991F1A9469F7609570958095D9
:1016000090959B01AC01BD01CF01089597FB092E78
:1016100005260ED057FD04D0D7DF0AD0001C38F4C1
:1016200050954095309521953F4F4F4F5F4F08950E
:10163000F6F790958095709561957F4F8F4F9F4FEE
:101640000895AA1BBB1B51E107C0AA1FBB1FA61709
:10165000B70710F0A61BB70B881F991F5A95A9F75B
:1016600080959095BC01CD010895EE0FFF1F059068
:10167000F491E02D09942F923F924F925F926F92D6
:101680007F928F929F92AF92BF92CF92DF92EF9212
:10169000FF920F931F93CF93DF93CDB7DEB7CA1B93
:1016A000DB0B0FB6F894DEBF0FBECDBF09942A88BE
:1016B000398848885F846E847D848C849B84AA8466
:1016C000B984C884DF80EE80FD800C811B81AA81F3
:1016D000B981CE0FD11D0FB6F894DEBF0FBECDBFBE
:0816E000ED010895F894FFCF1D
:1016E800253364002F00537465707065722C205682
:1016F8006572732E20312E3000506F736974696FD4
:101708006E3A00030002000500000000000000001F
:1017180000E203000040001400540000000000260E
:021728000800B7
:00000001FF
