:100000000C9461000C947E000C947E000C947E0095
:100010000C947E000C947E000C947E000C947E0068
:100020000C947E000C947E000C947E000C947E0058
:100030000C947E000C947E000C947E000C947E0048
:100040000C9402010C947E000C947E000C947E00B3
:100050000C947E000C947E000C947E000C947E0028
:100060000C947E000C947E00000000002400270009
:100070002A0000000000250028002B0000000000DE
:1000800023002600290004040404040404040202DA
:100090000202020203030303030301020408102007
:1000A0004080010204081020010204081020000012
:1000B0000007000201000003040600000000000029
:1000C000000011241FBECFEFD4E0DEBFCDBF11E092
:1000D000A0E0B1E0EAE8F4E002C005900D92AE3095
:1000E000B107D9F711E0AEE0B1E001C01D92AE3129
:1000F000B107E1F70E94FB000C9443020C9400004E
:100100008091100190911101029730F480E190E00C
:100110009093110180931001809110019091110131
:1001200095958795909311018093100183E090E05D
:1001300017C0FC01EE0FFF1FE050FF4F6091100150
:100140007091110102C0759567958A95E2F761700B
:1001500080810E94F60180910E0190910F0101971C
:1001600090930F0180930E0180910E0190910F01E9
:1001700097FFDFCF6091080170910901882777FD13
:100180008095982F0E94720108950E9480008AE055
:1001900090E09093090180930801089580910C01EB
:1001A00061E00E94D60180910A0161E00E94D601BF
:1001B00080910A0161E00E94F60110920F011092F5
:1001C0000E0111C0EE0FFF1FE050FF4F808161E074
:1001D0000E94D60180910E0190910F01019690939B
:1001E0000F0180930E01E0910E01F0910F01E430B8
:1001F000F10544F308950E949C010E94CE000E94E4
:10020000C500FDCF1F920F920FB60F9211242F93AE
:100210008F939F93AF93BF9380911201909113019D
:10022000A0911401B09115010196A11DB11D8093FB
:10023000120190931301A0931401B09315018091C2
:10024000160190911701A0911801B09119018050E9
:10025000904CAF4FBF4F8093160190931701A0931E
:100260001801B093190127C08091160190911701D0
:10027000A0911801B091190180589E43A040B04050
:100280008093160190931701A0931801B093190160
:1002900080911A0190911B01A0911C01B0911D0148
:1002A0000196A11DB11D80931A0190931B01A0938B
:1002B0001C01B0931D018091160190911701A0912E
:1002C0001801B091190181589E43A040B04060F6DA
:1002D000BF91AF919F918F912F910F900FBE0F9073
:1002E0001F901895EF92FF920F931F937B018C0143
:1002F0008FB7F89440911A0150911B0160911C0135
:1003000070911D018FBF2FB7F89480911A019091C1
:100310001B01A0911C01B0911D012FBF841B950BE7
:10032000A60BB70BE816F9060A071B0760F71F9123
:100330000F91FF90EF900895789484B5826084BD0A
:1003400084B5816084BD85B5826085BD85B58160D9
:1003500085BDEEE6F0E0808181608083E1E8F0E039
:10036000808182608083808181608083E0E8F0E02A
:10037000808181608083E1EBF0E080818460808314
:10038000E0EBF0E0808181608083EAE7F0E080814B
:1003900084608083808182608083808181608083AB
:1003A0008081806880831092C1000895282F30E0FA
:1003B000C90186569F4FFC0194912A573F4FF9017E
:1003C0008491882391F0E82FF0E0EE0FFF1FE859A9
:1003D000FF4FA591B491662329F48C9190958923C0
:1003E0008C9308958C91892B8C930895482F50E01D
:1003F000CA0182559F4FFC012491CA0186569F4F26
:10040000FC0194914A575F4FFA0134913323D1F1A3
:10041000222331F1233021F4809180008F7705C0B1
:10042000243031F4809180008F7D8093800018C04B
:10043000213019F484B58F7704C0223021F484B5BB
:100440008F7D84BD0DC0263021F48091B0008F7760
:1004500005C0273029F48091B0008F7D8093B000D3
:10046000E32FF0E0EE0FFF1FEE58FF4FA591B49180
:10047000662329F48C91909589238C9308958C910F
:0A048000892B8C930895F894FFCFA8
:0E048A000700090008000A00F40105000D003B
:00000001FF
