:100000000C945C000C94EC030C9419040C94820086
:100010000C9482000C9482000C9482000C94820058
:100020000C9482000C9482000C9482000C94820048
:100030000C9482000C9482000C9482000C94820038
:100040000C9446040C9482000C9428060C948200B4
:100050000C9482000C9482000C9482000C94820018
:100060000C9482000C948200EF02BB030000000796
:100070000002010000030406000000000000000070
:10008000010204081020408001020408102001022F
:1000900004081020040404040404040402020202FC
:1000A00002020303030303030000232629000025A3
:1000B000282B000024272A0011241FBECFEFD4E0F4
:1000C000DEBFCDBF11E0A0E0B1E0E8E4FFE002C098
:1000D00005900D92AA37B107D9F712E0AAE7B1E06F
:1000E00001C01D92A431B107E1F710E0CCE6D0E0E9
:1000F00004C02297FE010E94A007C836D107C9F7A5
:100100000C94D8020C94000060E080910A010E94D7
:10011000630581E090E00E94A50461E080910A01FE
:100120000E94630581E090E00E94A50460E0809158
:100130000A010E94630561E070E080E090E00E94A7
:1001400083040895EF92FF920F931F93CF93DF9351
:100150007C018B010F701070C0910201D0910301DE
:1001600008C0602F61708C2F0E946305159507955C
:10017000219680910801909109018C179D078CF7B9
:10018000C7010E948400DF91CF911F910F91FF90D2
:10019000EF900895EF92FF920F931F937C018B01D4
:1001A00094E0759567959A95E1F7C7010E94A200C2
:1001B0000F701070B801C7010E94A2001F910F912B
:1001C000FF90EF90089570930101609300016150DA
:1001D00070406430710530F081E090E0909301014F
:1001E00080930001089570930101609300016150B4
:1001F00070406430710530F081E090E0909301012F
:100200008093000108950F931F93CF93DF938C0188
:10021000EB0160E080910E010E94630580917A01FC
:1002200090917B01892B29F060E080910C010E9464
:100230006305BE01C8010E94A200DF91CF911F910A
:100240000F9108950F931F93CF93DF938C01EB01D0
:1002500060E080910E010E94630580917A01909187
:100260007B01892B29F060E080910C010E946305DD
:10027000BE01C8010E94CA00DF91CF911F910F916A
:1002800008950F931F93CF93DF938C01EB0161E0EF
:1002900080910E010E94630580917A0190917B010B
:1002A000892B29F060E080910C010E946305BE015A
:1002B000C8010E94CA00DF91CF911F910F9108954C
:1002C000EF92FF920F931F93CF93DF937C01EB018B
:1002D00000E010E009C0AC0FBD1F6C91772767FDEF
:1002E0007095C7010E944101A02FBB270F5F1F4FD0
:1002F000FE0101900020E9F73197EC1BFD0BAE17D2
:10030000BF0748F3DF91CF911F910F91FF90EF90BE
:10031000089561E070E00E94220161E070E080E0F9
:1003200090E00E9483040895CF93DF93EC0161E095
:1003300080910A010E94FC0461E080910E010E94FC
:10034000FC0480917A0190917B01892B29F061E076
:1003500080910C010E94FC0461E0809102010E94E6
:10036000FC0461E0809104010E94FC0461E0809142
:1003700006010E94FC0461E0809108010E94FC04D7
:1003800062E370E080E090E00E94830463E070E04C
:10039000CE010E94030165E070E080E090E00E94E1
:1003A000830463E070E0CE010E94030184E690E0E4
:1003B0000E94A50463E070E0CE010E94030165E0A5
:1003C00070E080E090E00E94830462E070E0CE0183
:1003D0000E94030162E070E0CE010E94030160917F
:1003E0000001709101016150704023E0660F771F9A
:1003F0002A95E1F7CE010E9403018CE390E00E9470
:10040000A5046CE070E0CE010E9422018CE390E034
:100410000E94A50461E070E0CE010E94220163E029
:1004200070E080E090E00E94830466E070E0CE011E
:100430000E94220161E070E080E090E00E9483046D
:10044000DF91CF910895CF92DF92EF92FF920F93B9
:100450001F93CF93DF93CDB7DEB728970FB6F894ED
:10046000DEBF0FBECDBF7C018B016A0162E070E090
:100470000E942201DE011196E0E1F1E088E00190A6
:100480000D928150E1F7000F111F0C0F1D1F01503D
:100490001040F801608171816C0D7D1D60587F4FA7
:1004A000C7010E94220128960FB6F894DEBF0FBE46
:1004B000CDBFDF91CF911F910F91FF90EF90DF9013
:1004C000CF900895CF92DF92EF92FF920F931F93F8
:1004D000CF93DF936C017B018A01C0E0D0E00DC0B7
:1004E00068E170E0C6010E942201B801882777FD0B
:1004F0008095982F0E9483042196CE15DF0584F302
:10050000DF91CF911F910F91FF90EF90DF90CF90EF
:10051000089561E080911A010E94FC0460E08091DE
:1005200018010E94FC0442E050E063EA72E081E0BE
:100530000E94BC0340E855E260E070E087E891E08B
:100540000E94F8020895809118010E941A052091D6
:10055000820130918301892B19F42150304002C06F
:100560002F5F3F4F309383012093820108950F93B3
:100570001F93609182017091830107E811E0C80127
:100580000E94A70368E771E0C8010E940B038091F5
:10059000820190918301909381018093800164E6B0
:1005A00070E080E090E00E9483041F910F91089515
:1005B000CFEFD4E0DEBFCDBF0E94B2040E9489021B
:1005C0000E94B702FDCF6F5F7F4F41F4019731F476
:1005D00061E070E086E891E00E94F30008956FEF1B
:1005E0007FEF81E090E00E94E3020895089508956E
:1005F000CB01BA010E94AE0508950E94EF0599272C
:1006000008950E94000608950E941F060895862FEF
:100610000E9466060895CB010E946D060895862FFC
:100620000E94660608950F931F938C016DE00E944F
:1006300007036AE0C8010E9407031F910F91089504
:100640000F931F938C010E940703C8010E9413039C
:100650001F910F9108950F931F938C010E940B031C
:10066000C8010E9413031F910F9108950F931F93C8
:100670008C010E940F03C8010E9413031F910F9168
:100680000895CB01BA013327442755270E947A06E3
:1006900008952AE00E94410308950F931F938C014F
:1006A0000E944903C8010E9413031F910F910895EE
:1006B000AB01662777270E9449030895EF92FF92C6
:1006C0000F931F93CF93DF93EC017A018B0177FF98
:1006D0000BC06DE20E94070310950095F094E09422
:1006E000E11CF11C011D111D2AE0B801A701CE017A
:1006F0000E944103DF91CF911F910F91FF90EF90E6
:1007000008950F931F938C010E945E03C8010E94FD
:1007100013031F910F9108952115310521F4642FC2
:100720000E94070308952A30310519F40E945E03E0
:1007300008950E94410308950F931F938C010E9416
:100740008C03C8010E9413031F910F910895AB0100
:10075000662757FD6095762F0E945E0308950F93DC
:100760001F938C010E94A703C8010E9413031F91CD
:100770000F910895089508958230E8F4E82FFF2737
:10078000EE0FFF1FE857FE4F71836083882341F40B
:10079000809169008C7F842B80936900E89A08958A
:1007A00080916900837F440F551F440F551F842B90
:1007B00080936900E99A0895823068F4882311F4DF
:1007C000E89801C0E998E82FFF27EE0FFF1FE857D0
:1007D000FE4F1182108208951F920F920FB60F9252
:1007E00011242F933F934F935F936F937F938F9336
:1007F0009F93AF93BF93EF93FF9380918801909164
:100800008901892B29F0E0918801F09189010995EE
:10081000FF91EF91BF91AF919F918F917F916F91D8
:100820005F914F913F912F910F900FBE0F901F90AE
:1008300018951F920F920FB60F9211242F933F938A
:100840004F935F936F937F938F939F93AF93BF93D8
:10085000EF93FF9380918A0190918B01892B29F06E
:10086000E0918A01F0918B010995FF91EF91BF9181
:10087000AF919F918F917F916F915F914F913F9138
:100880002F910F900FBE0F901F9018951F920F92EF
:100890000FB60F9211248F939F93AF93BF938091C4
:1008A000900190919101A0919201B09193010196D4
:1008B000A11DB11D8093900190939101A09392018D
:1008C000B0939301BF91AF919F918F910F900FBE05
:1008D0000F901F90189560919001709191018091F7
:1008E00092019091930127E0660F771F881F991F4F
:1008F0002A95D1F72DE730E040E050E00E944D0707
:10090000CA01B9010895AF92BF92CF92DF92EF92E0
:10091000FF920F931F935B016C010E946B047B019C
:100920008C010E946B046E197F09800B910B6A1574
:100930007B058C059D05A8F31F910F91FF90EF900B
:10094000DF90CF90BF90AF900895019751F0880F3E
:10095000991F880F991F02972FB7F8940197F1F705
:100960002FBF0895789410929001109291011092E7
:1009700092011092930184B5826084BD84B5816038
:1009800084BD85B5826085BD85B5816085BDEEE697
:10099000F0E0808181608083E1E8F0E08081826026
:1009A0008083808181608083E0E8F0E080818160E5
:1009B0008083E1EBF0E0808184608083E0EBF0E015
:1009C000808181608083ECE7F0E080818F77808395
:1009D000808180648083EAE7F0E0808184608083A6
:1009E0008081826080838081816080838081806853
:1009F00080831092C1000895282F3327C9018058A1
:100A00009F4FFC0194912C563F4FF901849188230C
:100A100081F0E82FFF27EE54FF4FE491FF27662374
:100A200029F4808190958923808308958081892B82
:100A300080830895482F5527CA0184599F4FFC0190
:100A40002491CA0180589F4FFC0194914C565F4FEE
:100A5000FA0134913323A1F1222331F1233021F41F
:100A6000809180008F7705C0243031F48091800020
:100A70008F7D8093800018C0213019F484B58F7762
:100A800004C0223021F484B58F7D84BD0DC0263092
:100A900021F48091B0008F7705C0273029F4809130
:100AA000B0008F7D8093B000E32FFF27E855FF4F04
:100AB000E491FF278081892319F081E090E0089577
:100AC00080E090E00895482F5527CA0184599F4F30
:100AD000FC012491CA0180589F4FFC0194914C560F
:100AE0005F4FFA0134913323C1F1222331F12330D6
:100AF00021F4809180008F7705C0243031F48091FB
:100B000080008F7D8093800018C0213019F484B557
:100B10008F7704C0223021F484B58F7D84BD0DC051
:100B2000263021F48091B0008F7705C0273029F45A
:100B30008091B0008F7D8093B000E32FFF27E355B5
:100B4000FF4FE491FF27662329F480819095892344
:100B5000808308958081892B80830895EF92FF928E
:100B60000F931F937B018C0122E030E040E050E0C6
:100B70000E946F07205C3D4B404F5F4FCA01B90197
:100B8000A80197010E946F0721503040404050401B
:100B9000BB2757FDBA95A52F942F832F2F5F3F4F6B
:100BA0004F4F5F4F8093C50021502093C400E1EC6C
:100BB000F0E0808180618083808188608083808193
:100BC000806880831F910F91FF90EF900895982F78
:100BD0008091C00085FFFCCF9093C600089580915E
:100BE0008E0190918F0120918C0130918D01821B9B
:100BF000930B80589F4F60E870E00E943A07089579
:100C000040918C0150918D0180918E0190918F01C6
:100C10008417950719F48FEF9FEF0895FA01EC56AA
:100C2000FE4F2081CA01019660E870E00E943A07F9
:100C300090938D0180938C01822F99270895809144
:100C40008C0190918D0190938F0180938E01089576
:100C50001F920F920FB60F9211242F933F934F9331
:100C60005F936F937F938F939F93AF93BF93EF9314
:100C7000FF934091C600E0918E01F0918F01CF016A
:100C8000019660E870E00E943A079C0180918C0117
:100C900090918D012817390739F0EC56FE4F4083AB
:100CA00030938F0120938E01FF91EF91BF91AF910F
:100CB0009F918F917F916F915F914F913F912F9174
:100CC0000F900FBE0F901F90189508950E94E70592
:100CD00008958AE00E9466060895CF93DF93EC01A1
:100CE00003C021960E94660688818823D1F7DF9190
:100CF000CF9108952F923F924F925F926F927F9281
:100D00008F929F92AF92BF92CF92DF92EF92FF921B
:100D10000F931F93CF93DF93CDB7DEB7A0970FB696
:100D2000F894DEBF0FBECDBF6B017C0119012A0113
:100D3000611571058105910521F480E30E94660625
:100D40004BC06624772443015E010894A11CB11CAA
:100D50008501060D171DC701B601A20191010E9470
:100D60004D07F80160830894611C711C811C911C63
:100D7000C701B601A20191010E944D0769017A01E4
:100D8000211531054105510519F773010894E10852
:100D9000F108EA0CFB1CAA24BB24650111C0F70171
:100DA00080818A3010F4805D01C0895C0E946606F3
:100DB0000894A108B108C108D1080894E108F10815
:100DC00088279927DC0186199709A809B909A81667
:100DD000B906CA06DB0619F7A0960FB6F894DEBF6F
:100DE0000FBECDBFDF91CF911F910F91FF90EF907C
:100DF000DF90CF90BF90AF909F908F907F906F903B
:100E00005F904F903F902F900895EF92FF920F9335
:100E10001F937B018C0197FF0BC08DE20E94660639
:100E200010950095F094E094E11CF11C011D111D3A
:100E30002AE030E040E050E0C801B7010E947A06A5
:100E40001F910F91FF90EF90089520E130E040E076
:100E500050E00E947A06089528E030E040E050E03B
:100E60000E947A06089522E030E040E050E00E94BF
:100E70007A06089597FB092E07260AD077FD04D03D
:100E800049D006D000201AF4709561957F4F0895DF
:100E9000F6F7909581959F4F0895A1E21A2EAA1B0F
:100EA000BB1BFD010DC0AA1FBB1FEE1FFF1FA2171A
:100EB000B307E407F50720F0A21BB30BE40BF50B17
:100EC000661F771F881F991F1A9469F760957095A0
:100ED000809590959B01AC01BD01CF01089597FBD2
:100EE000092E05260ED057FD04D0D7DF0AD0001CEE
:100EF00038F450954095309521953F4F4F4F5F4FB7
:100F00000895F6F790958095709561957F4F8F4F76
:100F10009F4F0895AA1BBB1B51E107C0AA1FBB1F0F
:100F2000A617B70710F0A61BB70B881F991F5A9575
:100F3000A9F780959095BC01CD010895EE0FFF1F94
:080F40000590F491E02D0994E5
:100F480002000700080009000A0002000B000C005C
:100F5800000040001400540001000D0006006170FC
:100F6800706C650000000000000000000062616E07
:100F7800616E6100000000000000000070696E658D
:100F88006170706C650000000000006D616E676F35
:100F98000000000000000000000077617465726DB9
:100FA800656C6F6E000000000070656172000000E3
:0A0FB80000000000000000002F0000
:00000001FF
