:100000000C945C000C9460040C948D040C9482009D
:100010000C9482000C9482000C9482000C94820058
:100020000C9482000C9482000C9482000C94820048
:100030000C9482000C9482000C9482000C94820038
:100040000C94BA040C9482000C9494060C948200D4
:100050000C9482000C9482000C9482000C94820018
:100060000C9482000C94820058032F0400000007B7
:100070000002010000030406000000000000000070
:10008000010204081020408001020408102001022F
:1000900004081020040404040404040402020202FC
:1000A00002020303030303030000232629000025A3
:1000B000282B000024272A0011241FBECFEFD4E0F4
:1000C000DEBFCDBF11E0A0E0B1E0E4ECF6E102C09C
:1000D00005900D92AE32B107D9F711E0AEE2B1E072
:1000E00001C01D92A03DB107E1F710E0CCE6D0E0E1
:1000F00004C02297FE010E945E0BC836D107C9F7E3
:100100000C9441030C94000060E080910A010E946D
:10011000CF0581E090E00E94190561E080910A011D
:100120000E94CF0581E090E00E94190560E0809177
:100130000A010E94CF0561E070E080E090E00E943B
:10014000F7040895EF92FF920F931F93CF93DF93DD
:100150007C018B010F701070C0910201D0910301DE
:1001600008C0602F61708C2F0E94CF0515950795F0
:10017000219680910801909109018C179D078CF7B9
:10018000C7010E948400DF91CF911F910F91FF90D2
:10019000EF900895EF92FF920F931F937C018B01D4
:1001A00094E0759567959A95E1F7C7010E94A200C2
:1001B0000F701070B801C7010E94A2001F910F912B
:1001C000FF90EF90089570930101609300016150DA
:1001D00070406230710530F081E090E09093010151
:1001E00080930001089570930101609300016150B4
:1001F00070406230710530F081E090E09093010131
:100200008093000108950F931F93CF93DF938C0188
:10021000EB0160E080910E010E94CF0580912E01DC
:1002200090912F01892B29F060E080910C010E94B0
:10023000CF05BE01C8010E94A200DF91CF911F919E
:100240000F9108950F931F93CF93DF938C01EB01D0
:1002500060E080910E010E94CF0580912E01909167
:100260002F01892B29F060E080910C010E94CF05BD
:10027000BE01C8010E94CA00DF91CF911F910F916A
:1002800008950F931F93CF93DF938C01EB0161E0EF
:1002900080910E010E94CF0580912E0190912F0137
:1002A000892B29F060E080910C010E94CF05BE01EE
:1002B000C8010E94CA00DF91CF911F910F9108954C
:1002C000EF92FF920F931F93CF93DF937C01EB018B
:1002D00000E010E009C0AC0FBD1F6C91772767FDEF
:1002E0007095C7010E944101A02FBB270F5F1F4FD0
:1002F000FE0101900020E9F73197EC1BFD0BAE17D2
:10030000BF0748F3DF91CF911F910F91FF90EF90BE
:10031000089561E070E00E94220161E070E080E0F9
:1003200090E00E94F7040895CF93DF93EC0161E021
:1003300080910A010E94680561E080910E010E948F
:10034000680580912E0190912F01892B29F061E0A1
:1003500080910C010E94680561E0809102010E9479
:10036000680561E0809104010E94680561E0809168
:1003700006010E94680561E0809108010E946805FD
:1003800062E370E080E090E00E94F70463E070E0D8
:10039000CE010E94030165E070E080E090E00E94E1
:1003A000F70463E070E0CE010E94030184E690E070
:1003B0000E94190563E070E0CE010E94030165E030
:1003C00070E080E090E00E94F70462E070E0CE010F
:1003D0000E94030162E070E0CE010E94030160917F
:1003E0000001709101016150704023E0660F771F9A
:1003F0002A95E1F7CE010E9403018CE390E00E9470
:1004000019056CE070E0CE010E9422018CE390E0BF
:100410000E94190561E070E0CE010E94220163E0B4
:1004200070E080E090E00E94F70466E070E0CE01AA
:100430000E94220161E070E080E090E00E94F704F9
:10044000DF91CF910895EF92FF920F931F93CF9377
:10045000DF937C01EB018A0162E070E00E942201DF
:100460008091000190910101019721F0229711F4F0
:10047000085D1F4FC0E0D0E006C064E170E0C70136
:100480000E9422012196C017D107BCF3DF91CF91C2
:100490001F910F91FF90EF900895CF92DF92EF920E
:1004A000FF920F931F93CF93DF936C017B018A011F
:1004B000C0E0D0E00DC068E170E0C6010E942201FA
:1004C000B801882777FD8095982F0E94F704219620
:1004D000CE15DF0584F3DF91CF911F910F91FF902F
:1004E000EF90DF90CF90089582E491E00E94940114
:1004F00061E0809118010E94680542E050E06DE1E2
:1005000073E081E00E94300460E080911A010E9453
:10051000680540E855E260E070E083E491E00E9405
:10052000610308950F931F9380913C0190913D01C9
:10053000E0911401F0911501BF010E94F80A709337
:100540003701609336018091380190913901681725
:10055000790784F490933701809336019C012E9F94
:10056000C0012F9F900D3E9F900D112490933D014F
:1005700080933C0120911601309117018091360142
:1005800090913701281739077CF430933701209375
:1005900036012E9FC0012F9F900D3E9F900D11247C
:1005A00090933D0180933C01609136017091370139
:1005B000809134019091350168177907A9F183E49E
:1005C00091E00E941B046CE171E083E491E00E94E1
:1005D0007403809136019091370190933501809397
:1005E00034019F938F938EE191E09F938F9300E16D
:1005F00011E01F930F930E94A60782E491E00E94EE
:10060000890162E271E082E491E00E946001B80138
:1006100082E491E00E9460018DB79EB706960FB606
:10062000F8949EBF0FBE8DBF60914001809118016C
:100630000E94CF051F910F91089580911A010E9489
:100640008605892B31F480913C0190913D01019701
:1006500005C080913C0190913D01019690933D0130
:1006600080933C0120E030E0809140019091410175
:10067000892B11F421E030E03093410120934001B7
:100680000895CFEFD4E0DEBFCDBF0E9426050E94C3
:1006900074020E949202FDCF6F5F7F4F41F4019779
:1006A00031F461E070E082E491E00E94F30008958B
:1006B0006FEF7FEF81E090E00E944C030895089572
:1006C0000895CB01BA010E941A0608950E945B06A4
:1006D000992708950E946C0608950E948B0608953C
:1006E000862F0E94D2060895CB010E94D906089554
:1006F000862F0E94D20608950F931F938C016DE000
:100700000E9470036AE0C8010E9470031F910F915C
:1007100008950F931F938C010E947003C8010E94DB
:100720007C031F910F9108950F931F938C010E94DA
:100730007403C8010E947C031F910F9108950F93C9
:100740001F938C010E947803C8010E947C031F91B3
:100750000F910895CB01BA013327442755270E94F2
:10076000E60608952AE00E94AA0308950F931F93B6
:100770008C010E94B203C8010E947C031F910F915B
:100780000895AB01662777270E94B20308950F935F
:100790001F938C010E94C103C8010E947C031F911A
:1007A0000F910895EF92FF920F931F93CF93DF93D2
:1007B000EC017A018B0177FF0BC06DE20E947003A0
:1007C00010950095F094E094E11CF11C011D111DA1
:1007D0002AE0B801A701CE010E94AA03DF91CF91C0
:1007E0001F910F91FF90EF9008950F931F938C012D
:1007F0000E94D203C8010E947C031F910F910895AB
:100800002115310521F4642F0E94700308952A30C8
:10081000310519F40E94D20308950E94AA03089595
:100820000F931F938C010E940004C8010E947C0357
:100830001F910F910895AB01662757FD6095762FA4
:100840000E94D20308950F931F938C010E941B04F2
:10085000C8010E947C031F910F9108950895089587
:100860008230E8F4E82FFF27EE0FFF1FEC5BFE4F0E
:1008700071836083882341F4809169008C7F842B8D
:1008800080936900E89A089580916900837F440FFE
:10089000551F440F551F842B80936900E99A0895D2
:1008A000823068F4882311F4E89801C0E998E82FB1
:1008B000FF27EE0FFF1FEC5BFE4F118210820895A1
:1008C0001F920F920FB60F9211242F933F934F93C5
:1008D0005F936F937F938F939F93AF93BF93EF93A8
:1008E000FF938091440190914501892B29F0E0917B
:1008F0004401F09145010995FF91EF91BF91AF91AE
:100900009F918F917F916F915F914F913F912F9127
:100910000F900FBE0F901F9018951F920F920FB659
:100920000F9211242F933F934F935F936F937F9375
:100930008F939F93AF93BF93EF93FF938091460163
:1009400090914701892B29F0E0914601F0914701F0
:100950000995FF91EF91BF91AF919F918F917F91F9
:100960006F915F914F913F912F910F900FBE0F901C
:100970001F9018951F920F920FB60F9211248F930C
:100980009F93AF93BF9380914C0190914D01A091A3
:100990004E01B0914F010196A11DB11D80934C01F4
:1009A00090934D01A0934E01B0934F01BF91AF9131
:1009B0009F918F910F900FBE0F901F90189560918F
:1009C0004C0170914D0180914E0190914F0127E0B3
:1009D000660F771F881F991F2A95D1F72DE730E002
:1009E00040E050E00E940B0BCA01B9010895AF929C
:1009F000BF92CF92DF92EF92FF920F931F935B0112
:100A00006C010E94DF047B018C010E94DF046E19DF
:100A10007F09800B910B6A157B058C059D05A8F35A
:100A20001F910F91FF90EF90DF90CF90BF90AF900C
:100A30000895019751F0880F991F880F991F029709
:100A40002FB7F8940197F1F72FBF0895789410927B
:100A50004C0110924D0110924E0110924F0184B53D
:100A6000826084BD84B5816084BD85B5826085BDAA
:100A700085B5816085BDEEE6F0E080818160808390
:100A8000E1E8F0E080818260808380818160808302
:100A9000E0E8F0E0808181608083E1EBF0E080813C
:100AA00084608083E0EBF0E0808181608083EAE70E
:100AB000F0E0808184608083808182608083808197
:100AC000816080838081806880831092C100089556
:100AD000282F3327C90180589F4FFC0194912C5631
:100AE0003F4FF9018491882381F0E82FFF27EE54CE
:100AF000FF4FE491FF27662329F480819095892395
:100B0000808308958081892B80830895482F5527FD
:100B1000CA0184599F4FFC012491CA0180589F4FFC
:100B2000FC0194914C565F4FFA0134913323A1F1AB
:100B3000222331F1233021F4809180008F7705C08A
:100B4000243031F4809180008F7D8093800018C024
:100B5000213019F484B58F7704C0223021F484B594
:100B60008F7D84BD0DC0263021F48091B0008F7739
:100B700005C0273029F48091B0008F7D8093B000AC
:100B8000E32FFF27E855FF4FE491FF27808189235A
:100B900019F081E090E0089580E090E00895482FFA
:100BA0005527CA0184599F4FFC012491CA018058DE
:100BB0009F4FFC0194914C565F4FFA0134913323BF
:100BC000C1F1222331F1233021F4809180008F770D
:100BD00005C0243031F4809180008F7D80938000A7
:100BE00018C0213019F484B58F7704C0223021F465
:100BF00084B58F7D84BD0DC0263021F48091B00076
:100C00008F7705C0273029F48091B0008F7D8093C5
:100C1000B000E32FFF27E355FF4FE491FF27662342
:100C200029F4808190958923808308958081892B80
:100C300080830895EF92FF920F931F937B018C01A5
:100C400022E030E040E050E00E942D0B205C3D4B64
:100C5000404F5F4FCA01B901A80197010E942D0BB7
:100C60002150304040405040BB2757FDBA95A52F3A
:100C7000942F832F2F5F3F4F4F4F5F4F8093C500BF
:100C800021502093C400E1ECF0E0808180618083FA
:100C90008081886080838081806880831F910F912C
:100CA000FF90EF900895982F8091C00085FFFCCFB2
:100CB0009093C600089580914A0190914B01209134
:100CC000480130914901821B930B80589F4F60E887
:100CD00070E00E94F80A089540914801509149013E
:100CE00080914A0190914B018417950719F48FEF79
:100CF0009FEF0895FA01E05BFE4F2081CA01019643
:100D000060E870E00E94F80A9093490180934801DE
:100D1000822F9927089580914801909149019093DD
:100D20004B0180934A0108951F920F920FB60F92C4
:100D300011242F933F934F935F936F937F938F93E0
:100D40009F93AF93BF93EF93FF934091C600E091C1
:100D50004A01F0914B01CF01019660E870E00E94DA
:100D6000F80A9C01809148019091490128173907A0
:100D700039F0E05BFE4F408330934B0120934A01F2
:100D8000FF91EF91BF91AF919F918F917F916F9163
:100D90005F914F913F912F910F900FBE0F901F9039
:100DA000189508950E94530608958AE00E94D2067D
:100DB0000895CF93DF93EC0103C021960E94D206E1
:100DC00088818823D1F7DF91CF9108952F923F92A8
:100DD0004F925F926F927F928F929F92AF92BF924B
:100DE000CF92DF92EF92FF920F931F93CF93DF93F7
:100DF000CDB7DEB7A0970FB6F894DEBF0FBECDBF5C
:100E00006B017C0119012A016115710581059105AC
:100E100021F480E30E94D2064BC06624772443016C
:100E20005E010894A11CB11C8501060D171DC701A8
:100E3000B601A20191010E940B0BF8016083089496
:100E4000611C711C811C911CC701B601A20191019A
:100E50000E940B0B69017A012115310541055105ED
:100E600019F773010894E108F108EA0CFB1CAA24A5
:100E7000BB24650111C0F70180818A3010F4805DC8
:100E800001C0895C0E94D2060894A108B108C1087B
:100E9000D1080894E108F10888279927DC01861910
:100EA0009709A809B909A816B906CA06DB0619F7F1
:100EB000A0960FB6F894DEBF0FBECDBFDF91CF91E5
:100EC0001F910F91FF90EF90DF90CF90BF90AF9068
:100ED0009F908F907F906F905F904F903F902F905A
:100EE0000895EF92FF920F931F937B018C0197FF60
:100EF0000BC08DE20E94D20610950095F094E0940C
:100F0000E11CF11C011D111D2AE030E040E050E021
:100F1000C801B7010E94E6061F910F91FF90EF9064
:100F2000089520E130E040E050E00E94E606089598
:100F300028E030E040E050E00E94E606089522E01C
:100F400030E040E050E00E94E60608950F931F93C2
:100F5000CF93DF93CDB7DEB760970FB6F894DEBFBF
:100F60000FBECDBF0F89188D698D7A8D86E08E8377
:100F70001C830B838FEF9FE798878F83AE01455EBD
:100F80005F4F5A834983CE0103960E94D807298573
:100F90003A85020F131FF801108260960FB6F8947D
:100FA000DEBF0FBECDBFDF91CF911F910F9108958E
:100FB0002F923F924F925F926F927F928F929F9269
:100FC000AF92BF92CF92DF92EF92FF920F931F9357
:100FD000CF93DF93CDB7DEB762970FB6F894DEBF3D
:100FE0000FBECDBF8824992454012C017A8B698BC4
:100FF0003A01FC0117821682838181FD6EC28FEF58
:101000009FEF91C229893A892F5F3F4F3A8B298BF5
:10101000C0FE66C2832D80538A30E0F430E333167D
:1010200041F48D85882329F4C3FC03C0E0E0F1E09E
:101030007BC08AE0FD85F802C0011124380E232D03
:1010400020532D8727FF02C03FE73D87C3FC5AC2CC
:101050002D8458C2C601B3E096958795BA95E1F7FD
:1010600081709070282F882329F08D85882311F4B2
:1010700091E09D87832D992787FD9095E7E6E315FD
:1010800064F1F5E63F160CF065C033E5331609F45C
:101090008FC03315B4F0EBE23E1609F43FC0E31500
:1010A00044F0F0E23F16F1F123E2321609F012C2E9
:1010B00041C03DE23316D9F1EEE23E1609F00AC214
:1010C0003EC0F3E63F1609F44BC0F3150CF48AC09A
:1010D00028E5321609F0FEC1B5C030E7331609F431
:1010E000ABC033155CF0ECE63E1679F1FFE63F1637
:1010F00091F029E6321609F0EDC174C035E73316D8
:1011000009F4A2C0E8E73E1609F49CC0F3E73F16D5
:1011100009F0E0C12DC028E0288B96C080E190E066
:10112000C82AD92AE0E2F0E0CE2ADF2AEBC120E883
:1011300030E00DC080E490E0C82AD92AE3C1E8E09D
:10114000F0E0CE2ADF2A1D86DDC124E030E0C22A8D
:10115000D32AD8C1AFE38A2E2A94F3E63F2E44C1A6
:10116000F30180802A9422E030E0620E731E3CC1BD
:1011700083010E5F1F4FF301A081B1814D01222336
:1011800051F0FD856F2F772767FD7095CD010E9487
:10119000C00A888B07C0FD0101900020E9F7319754
:1011A000EA1BE88B2889221A3801E3E73E2E1CC18E
:1011B00083010E5F1F4FF301808191814C01222337
:1011C00041F0FD856F2F772767FD70950E94B50A66
:1011D00002C00E94AC0A888B2889221A380173E564
:1011E000372E02C1C2FE08C0F30180819181A28125
:1011F000B38124E030E009C0F30180819181AA2706
:1012000097FDA095BA2F22E030E0620E731E4C01CC
:101210005D01B7FF0CC082E090E0C82AD92AB094E3
:10122000A09490948094811C911CA11CB11CEFEBA4
:10123000FFEFCE22DF2221C020E430E0C22AD32AF1
:1012400068E7362E30E1388BC2FE08C0F30180819A
:101250009181A281B38124E030E007C0F301808155
:101260009181AA27BB2722E030E0620E731E4C0159
:101270005D018FEC9FEFC822D92285017401FE0128
:101280003196FF87EE87F8898F2E9924AA24BB24F4
:10129000C801B701A50194010E940B0B6A301CF034
:1012A000630D615201C0605DEE85FF856193FF872C
:1012B000EE87C801B701A50194010E940B0B7901CB
:1012C0008A01211531054105510511F7882499241A
:1012D0005401CE0101964E85481B842EC6018273AF
:1012E0009070892B09F02A94C6FE07C0F889F03166
:1012F00011F482E001C081E0281AC3FE12C08D857E
:10130000282F332727FD3095842F9927821793079D
:101310002CF0E7EFFFEFCE22DF2203C0FD85F41BA8
:10132000FD87C60153E0969587955A95E1F7817040
:101330009070082F882319F02D85221A01C0241AD5
:10134000C60180789170892B69F4822D06C0B201A4
:1013500080E290E00E94CB0A812F182F11501816BE
:10136000B4F3212EC1FE04C0B2018DE290E00BC0A7
:10137000C4FE04C0B2018BE290E005C0C5FE05C00A
:10138000B20180E290E00E94CB0AC6FE0FC0B2011B
:1013900080E390E00E94CB0A3889303139F4B20101
:1013A000832D992787FD90950E94CB0AD0FE0DC012
:1013B000822D06C0B20180E390E00E94CB0A812F0B
:1013C000182F11501816B4F3212E002369F02D8523
:1013D00006C0B20180E390E00E94CB0A212F122FB9
:1013E00011501216B4F31D87C601880F892F881F6C
:1013F000990B919521E0C22ED12CC822D92280FDD3
:101400000DC0822D06C0B20180E290E00E94CB0A9E
:10141000812F182F11501816B4F3212E83E6381699
:1014200041F4B201882D992787FD90950E94CB0A3F
:1014300041C093E7391691F48401FF240AC0F801F2
:1014400081918F01B201992787FD90950E94CB0A67
:10145000FA9488898195F81691F716C023E532161B
:1014600019F00E851F851FC08401FF2409C0F801F3
:101470008491B20199270E94CB0A0F5F1F4FFA9403
:1014800088898195F81699F7F889FF0DF150F88B46
:10149000480110C0F80182918F01B201992787FDA0
:1014A00090950E94CB0ACE0101960817190791F773
:1014B0001F870E87CD2889F0822D06C0B20180E2F9
:1014C00090E00E94CB0A812F182F11501816B4F308
:1014D000212E03C0B2010E94CB0ACC24DD2412C00D
:1014E000F5E23F1641F481E0C82ED12C1D8622245E
:1014F0002AE0288B07C0B201832D992787FD90959C
:101500000E94CB0AF201838183FF04C0E989FA8932
:10151000349003C0E989FA893080332009F072CD14
:10152000F2018681978162960FB6F894DEBF0FBEF6
:10153000CDBFDF91CF911F910F91FF90EF90DF9082
:10154000CF90BF90AF909F908F907F906F905F9063
:101550004F903F902F900895FC0105900020E9F7EF
:10156000809590958E0F9F1F0895FC010590615006
:1015700070400110D8F7809590958E0F9F1F0895A9
:10158000FC016150704001900110D8F78095909552
:101590008E0F9F1F08950F931F93CF93DF938C019E
:1015A000EB018B81992781FF1BC082FF0DC02E812B
:1015B0003F818C819D812817390764F4E881F98186
:1015C0000193F983E88306C0E885F985802F0995A2
:1015D000892B31F48E819F8101969F838E8302C077
:1015E0000FEF1FEFC801DF91CF911F910F91089569
:1015F00097FB092E07260AD077FD04D049D006D0E4
:1016000000201AF4709561957F4F0895F6F7909534
:1016100081959F4F0895A1E21A2EAA1BBB1BFD01C5
:101620000DC0AA1FBB1FEE1FFF1FA217B307E407C1
:10163000F50720F0A21BB30BE40BF50B661F771F19
:10164000881F991F1A9469F76095709580959095F9
:101650009B01AC01BD01CF01089597FB092E052622
:101660000ED057FD04D0D7DF0AD0001C38F45095B7
:101670004095309521953F4F4F4F5F4F0895F6F7B6
:1016800090958095709561957F4F8F4F9F4F0895EE
:10169000AA1BBB1B51E107C0AA1FBB1FA617B70798
:1016A00010F0A61BB70B881F991F5A95A9F78095B4
:1016B0009095BC01CD010895EE0FFF1F0590F491A8
:0416C000E02D09947C
:1016C40002000700080009000A0002000B000C00D9
:1016D400000000000A00F4010D0001002000253381
:0E16E4006400506F74693A202020202000001E
:00000001FF
