:100000000C9462000C9423080C9450080C948A0001
:100010000C948A000C948A000C948A000C948A0038
:100020000C948A000C948A000C948A000C948A0028
:100030000C948A000C948A000C948A000C948A0018
:100040000C947D080C948A000C948A000C948A000D
:100050000C948A000C948A000C948A000C948A00F8
:100060000C948A000C948A000000000024002700F1
:100070002A0000000000250028002B0000000000DE
:1000800023002600290004040404040404040202DA
:100090000202020203030303030301020408102007
:1000A0004080010204081020010204081020000012
:1000B0000007000201000003040600000000000029
:1000C00000005D0611241FBECFEFD4E0DEBFCDBF20
:1000D00011E0A0E0B1E0E4E4F5E102C005900D928A
:1000E000AE33B107D9F711E0AEE3B1E001C01D9224
:1000F000A538B107E1F710E0C4ECD0E004C02297C6
:10010000FE010E94650AC23CD107C9F70E94E107BF
:100110000C94A00A0C940000AEE0B0E0E2E9F0E03C
:100120000C94770A0D891E8986E08C831A830983D3
:100130008FEF9FE79E838D839E01275E3F4FCE0109
:1001400001966F89788DA9010E94B0002F813885B2
:10015000020F131FF80110822E96E4E00C94930A0C
:10016000ABE0B0E0E6EBF0E00C94690A3C012B0157
:100170005A01FC0117821682838181FD03C06FEF53
:100180007FEFC6C19AE0892E1E010894211C311C04
:10019000F3012381F20123FD859123FF81912F013A
:1001A000882309F4B2C1853239F423FD859123FFF8
:1001B00081912F01853229F490E0B3010E94A302BE
:1001C000E7CF982FFF24EE249924FFE1FF15D0F00C
:1001D0009B3269F09C3228F4903259F0933291F4BA
:1001E0000EC09D3249F0903369F441E024C052E0E2
:1001F000F52A84E0F82A28C098E0F92A25C0E0E131
:10020000FE2A22C0F7FC29C0892F80538A3070F45F
:10021000F6FE05C0989C902C1124980E15C0E89C01
:10022000E02C1124E80EF0E2FF2A0EC09E3229F4E1
:10023000F6FC6BC140E4F42A07C09C3619F450E880
:10024000F52A02C0983649F4F20123FD959123FF67
:1002500091912F01992309F0B8CF892F85548330CC
:1002600018F08052833038F444E050E0A40EB51EFC
:100270005FE359830FC0933631F0933779F09335AC
:1002800009F056C020C0F5018081898342E050E02A
:10029000A40EB51E610101E010E012C0F501C0809E
:1002A000D180F6FC03C06FEF7FEF02C0692D70E0D4
:1002B00042E050E0A40EB51EC6010E9498028C01D7
:1002C0005FE7F52214C0F501C080D180F6FC03C0C1
:1002D0006FEF7FEF02C0692D70E042E050E0A40EA6
:1002E000B51EC6010E948D028C0150E8F52AF3FE6E
:1002F00007C01AC080E290E0B3010E94A302EA9412
:100300008E2D90E008171907A8F30EC0F601F7FC30
:100310008591F7FE81916F0190E0B3010E94A302E5
:10032000E110EA94015010400115110579F7EAC077
:10033000943611F0993669F5F7FE08C0F501208171
:1003400031814281538184E090E00AC0F5018081CF
:1003500091819C01442737FD4095542F82E090E025
:10036000A80EB91E9FE6F92257FF09C05095409587
:10037000309521953F4F4F4F5F4FE0E8FE2ACA016D
:10038000B901A1012AE030E00E94CF02D82ED21894
:1003900040C0953729F41F2D1F7E2AE030E01DC094
:1003A0001F2D197F9F3661F0903720F4983509F0A2
:1003B000ACC00FC0903739F0983709F0A6C004C020
:1003C00028E030E00AC0106114FD146020E130E044
:1003D00004C014FD166020E132E017FF08C0F501EB
:1003E000608171818281938144E050E008C0F50111
:1003F00080819181BC0180E090E042E050E0A40E59
:10040000B51EA1010E94CF02D82ED2188FE7F82E78
:10041000F122F6FE0BC05EEFF522D91438F4F4FE9B
:1004200007C0F2FC05C08FEEF82202C01D2D01C0EE
:10043000192DF4FE0DC0FE01ED0DF11D80818033FC
:1004400019F499EEF92208C01F5FF2FE05C003C03F
:100450008F2D867809F01F5F0F2DF3FC14C0F0FE7E
:100460000FC01E1510F09D2C0BC09D2C9E0C911AD8
:100470001E2D06C080E290E0B3010E94A3021F5F20
:100480001E15C0F304C01E1510F4E11A01C0EE24BD
:1004900004FF0FC080E390E0B3010E94A30202FFBB
:1004A0001DC001FD03C088E790E00EC088E590E024
:1004B0000BC0802F867891F001FF02C08BE201C053
:1004C00080E2F7FC8DE290E0B3010E94A30206C037
:1004D00080E390E0B3010E94A3029A94D914C0F380
:1004E000DA94F101ED0DF11D808190E0B3010E94DD
:1004F000A302DD20A9F706C080E290E0B3010E94CC
:10050000A302EA94EE20C1F743CEF301668177811E
:10051000CB012B96E2E10C94850AFC010590615019
:1005200070400110D8F7809590958E0F9F1F089509
:10053000FC016150704001900110D8F780959095B2
:100540008E0F9F1F08950F931F93CF93DF938C01FE
:10055000EB018B8181FF1BC082FF0DC02E813F818B
:100560008C819D812817390764F4E881F981019312
:10057000F983E88306C0E885F985802F0995892BE2
:1005800031F48E819F8101969F838E8302C00FEF8D
:100590001FEFC801DF91CF911F910F910895FA01CC
:1005A000AA27283051F1203181F1E8946F936E7FB2
:1005B0006E5F7F4F8F4F9F4FAF4FB1E03ED0B4E0A3
:1005C0003CD0670F781F891F9A1FA11D680F791FE4
:1005D0008A1F911DA11D6A0F711D811D911DA11DF5
:1005E00020D009F468943F912AE0269F1124301905
:1005F000305D3193DEF6CF010895462F4770405DA0
:100600004193B3E00FD0C9F7F6CF462F4F70405D4E
:100610004A3318F0495D31FD4052419302D0A9F7A9
:10062000EACFB4E0A6959795879577956795BA95A3
:10063000C9F700976105710508959B01AC010A2E69
:1006400006945795479537952795BA95C9F7620F40
:10065000731F841F951FA01D08950F931F938C0176
:10066000FC01848160E00E94630981E090E00E94C7
:10067000FB08F801848161E00E94630981E090E059
:100680000E94FB08F801848160E00E94630984E60F
:1006900090E00E94FB081F910F910895CF92DF9286
:1006A000EF92FF920F931F93CF93DF93D82EC92E13
:1006B000282F392FC9018C01C0E0D0E0E62EFF249D
:1006C000F801858161E00E944309B7010C2E02C048
:1006D000759567950A94E2F76170F80185810E942B
:1006E000630921960F5F1F4FC830D10549F78D2D43
:1006F0009C2D0E942D03DF91CF911F910F91FF90B0
:10070000EF90DF90CF900895CF92DF92EF92FF921B
:100710000F931F93CF93DF93D82EC92E282F392FF5
:10072000C9018C01C0E0D0E0E62EFF24F8018581EC
:1007300061E00E944309B7010C2E02C075956795D0
:100740000A94E2F76170F80185810E94630921969D
:100750000F5F1F4FC430D10549F78D2D9C2D0E948E
:100760002D03DF91CF911F910F91FF90EF90DF90BC
:10077000CF9008951F93CF93DF93EC01162F8A81BA
:10078000642F0E9463098B8160E00E9463098D855C
:1007900084FF05C0CE01612F0E944E030EC0612F61
:1007A00070E084E0759567958A95E1F7CE010E9427
:1007B0008403CE01612F0E948403DF91CF911F91AA
:1007C000089541E00E94BA03089540E00E94BA03F0
:1007D0000895FC016685862F816086876960CF0158
:1007E0000E94E5030895FC0166856E7F6687686058
:1007F0000E94E5030895FC016685862F8460868744
:100800006C60CF010E94E5030895DF93CF93CDB7CD
:10081000DEB728970FB6F894DEBF0FBECDBF9C01A0
:10082000FE013196A5E3B1E088E00D900192815080
:10083000E1F7F9018089841710F4482F4150E42F23
:10084000F0E0EE0FFF1FEC0FFD1F8181680F606865
:10085000C9010E94E50328960FB6F894DEBF0FBECB
:10086000CDBFCF91DF91089561E00E94E50380ED57
:1008700097E00E94FB080895CF93DF93EC0142308C
:1008800018F08D8588608D87488B222329F04130B0
:1008900019F48D8584608D8780E593EC0E94FB08B8
:1008A0008A8160E00E9463098C8160E00E94630994
:1008B0008B8160E00E9463096D8564FD1DC0CE01DF
:1008C00063E00E94840384E991E10E94FB08CE0169
:1008D00063E00E94840384E991E10E94FB08CE0159
:1008E00063E00E94840386E990E00E94FB08CE0149
:1008F00062E00E94840316C06062CE010E94E5039C
:1009000084E991E10E94FB086D856062CE010E943E
:10091000E50386E990E00E94FB086D856062CE01E8
:100920000E94E5036D856062CE010E94E50384E0CC
:100930008E87CE010E94FB03CE010E94340482E028
:100940008F87CE0166E00E94E503DF91CF91089585
:100950006F927F928F92AF92CF92EF920F931F93ED
:10096000DF93CF93CDB7DEB73C01162F842FF30171
:10097000428323830483E582C682A78280869D8585
:1009800091879E8592879F8593879889948761E058
:100990000E944309F301838161E00E944309F3014E
:1009A000848161E00E944309112319F0F301158647
:1009B00003C080E1F3018587C30160E141E020E0ED
:1009C0000E943C04CF91DF911F910F91EF90CF9047
:1009D000AF908F907F906F9008958F92AF92CF924B
:1009E000EF920F931F93CF93DF93DC01362F542F99
:1009F000722F102FAE2C8C2C83E391E011969C93D8
:100A00008E9300D000D0EDB7FEB73196CDB7DEB7EC
:100A10001982118212821382CD0161E0432F2FEFE0
:100A2000052FE72EC12E0E94A8040F900F900F9063
:100A30000F90DF91CF911F910F91EF90CF90AF90DA
:100A40008F900895CF92DF92EF92FF920F931F93B2
:100A50006C017A018B01FC0120853185442737FD2B
:100A60004095542F60E67AEE80E090E00E94340AD0
:100A7000CA01B901A80197010E94340AF601248332
:100A80003583468357831F910F91FF90EF90DF903E
:100A9000CF9008950F931F93CF93DF93EC018B01B9
:100AA0008A859B85029731F56130710589F0623046
:100AB000710524F46115710541F01CC062307105A7
:100AC00071F063307105B1F40DC08E8560E002C035
:100AD0008E8561E00E946309888961E009C08E8586
:100AE00061E002C08E8560E00E946309888960E051
:100AF0000E9463098A859B850497E9F501301105F9
:100B0000A1F0023011051CF4012B41F034C0023079
:100B10001105D1F00330110571F51DC08E8561E01E
:100B20000E946309888960E006C08E8560E00E94AB
:100B30006309888961E00E9463098A8961E00E94F3
:100B400063098C8960E015C08E8560E00E946309AE
:100B5000888961E006C08E8561E00E94630988890A
:100B600060E00E9463098A8960E00E9463098C89C1
:100B700061E00E946309DF91CF911F910F91089569
:100B80000F931F93CF93DF93EC011616170624F4EF
:100B900081E090E09983888377FF02C019821882F0
:100BA0008B0177FF46C0109501951F4F42C00E94F0
:100BB000ED082E893F89488D598D621B730B840B7C
:100BC000950B2C813D814E815F81621773078407ED
:100BD000950768F30E94ED086E8B7F8B888F998F45
:100BE000888199812C853D85019761F42F5F3F4F66
:100BF0003D872C87888599852817390771F41D86CC
:100C00001C860BC0232B21F4888599859D878C87B2
:100C10008C859D8501979D878C87015010408C8520
:100C20009D8564E070E00E94FF09BC01CE010E9436
:100C30004A050115110509F0BACFDF91CF911F9137
:100C40000F910895CF92DF92EF92FF920F931F932F
:100C50006C01842FF601158614861382128211828C
:100C60001082168A178A108E118E718760874687C8
:100C70005787318B208B138B028BF58AE48A61E0D6
:100C80000E944309F601808961E00E944309F60150
:100C9000828961E00E944309F601848961E00E9433
:100CA000430984E090E0F601938782871F910F91BA
:100CB000FF90EF90DF90CF900895CF92EF92FF9248
:100CC0000F931F938EE391E06CE04BE027E008E088
:100CD000A9E0EA2EFAE0CF2E0E94ED048FE491E025
:100CE00068EC70E047E050E029E030E008E010E018
:100CF000EAE0EE2EF12C0E9422061F910F91FF9048
:100D0000EF90CF900895809121010E94B009892B26
:100D100031F480916D0190916E01019705C0809131
:100D20006D0190916E01019690936E0180936D011B
:100D300020E030E08091690190916A01892B11F4E3
:100D400021E030E030936A012093690108950F9308
:100D50001F9380916D0190916E01E0912901F091B6
:100D60002A01BF010E94FF09709372016093710113
:100D700020916F0130917001621773077CF43093FA
:100D80007201209371012E9FC0012F9F900D3E9FF5
:100D9000900D112490936E0180936D012091270195
:100DA00030912801809171019091720128173907C3
:100DB0007CF430937201209371012E9FC0012F9F0C
:100DC000900D3E9F900D112490936E0180936D01C4
:100DD00020917101309172018091730190917401A1
:100DE00028173907C1F1309374012093730100D0A3
:100DF00000D000D0EDB7FEB731960BE211E0ADB7F1
:100E0000BEB712961C930E93119780E091E09383E6
:100E10008283358324830E948C008DB79EB706960B
:100E20000FB6F8949EBF0FBE8DBF8091250160E084
:100E30000E9463098EE391E06AE042E00E940504AB
:100E40008EE391E0B8010E94E8078FE491E064E648
:100E500070E00E94C0058091250161E00E94630955
:100E6000209171013091720180916B0190916C0120
:100E7000281B390B37FF03C0309521953F4F2B308E
:100E8000310554F08EE391E063E143E00E940504F4
:100E90008EE391E00E94E90360917101709172010B
:100EA00080916B0190916C01681B790B8FE491E04C
:100EB0000E94C0058EE391E00E94F303809125011A
:100EC00060E00E946309809171019091720190939A
:100ED0006C0180936B011F910F910895EF92FF9227
:100EE0000F931F938091230161E00E94430981E0E9
:100EF00063E876E042E050E00E9400088091210122
:100F000060E00E9443098091250161E00E9443094D
:100F10008091250160E00E9463098FE491E040E543
:100F200050E060E070E00E9422050EE311E0C8018D
:100F300064E144E020E00E943C04C8010E943404C3
:100F4000C80164E071E00E94E807C80160E042E087
:100F50000E940504C80167E171E00E94E80700D023
:100F600000D000D0EDB7FEB73196BBE2EB2EB1E07A
:100F7000FB2EADB7BEB71296FC92EE92119780E0B1
:100F800091E09383828380917101909172019583A6
:100F900084830E948C008DB79EB706960FB6F89496
:100FA0009EBF0FBE8DBFC8016AE042E00E940504EB
:100FB000C801B7010E94E8071F910F91FF90EF90C1
:100FC00008950E9409090E946E070E94A706FDCF9E
:100FD0000F931F93CF93DF938C01EB0109C02196F0
:100FE000D801ED91FC910190F081E02DC8010995A7
:100FF00068816623A1F7DF91CF911F910F9108952A
:10100000823000F5E82FF0E0EE0FFF1FEB58FE4FA7
:1010100071836083882319F08130A1F408C0809126
:1010200069008C7F842B80936900E89A08958091F1
:101030006900440F551F440F551F837F842B8093F5
:101040006900E99A08951F920F920FB60F9211242A
:101050002F933F934F935F936F937F938F939F93C0
:10106000AF93BF93EF93FF938091750190917601B9
:10107000892B29F0E0917501F09176010995FF9196
:10108000EF91BF91AF919F918F917F916F915F9100
:101090004F913F912F910F900FBE0F901F90189579
:1010A0001F920F920FB60F9211242F933F934F93DD
:1010B0005F936F937F938F939F93AF93BF93EF93C0
:1010C000FF938091770190917801892B29F0E0912D
:1010D0007701F09178010995FF91EF91BF91AF9160
:1010E0009F918F917F916F915F914F913F912F9140
:1010F0000F900FBE0F901F9018951F920F920FB672
:101100000F9211242F938F939F93AF93BF9380914E
:10111000790190917A01A0917B01B0917C010196B7
:10112000A11DB11D8093790190937A01A0937B0159
:10113000B0937C0180917D0190917E01A0917F010F
:10114000B09180018050904CAF4FBF4F80937D0194
:1011500090937E01A0937F01B093800127C080917E
:101160007D0190917E01A0917F01B0918001805816
:101170009E43A040B04080937D0190937E01A09358
:101180007F01B09380018091810190918201A091B3
:101190008301B09184010196A11DB11D809381014D
:1011A00090938201A0938301B093840180917D018B
:1011B00090917E01A0917F01B091800181589E4362
:1011C000A040B04060F6BF91AF919F918F912F9159
:1011D0000F900FBE0F901F9018958FB7F894209125
:1011E00081013091820140918301509184018FBF30
:1011F000B901CA010895019759F0FC01EE0FFF1FD4
:10120000EE0FFF1F32978FB7F8943197F1F78FBF2A
:101210000895789484B5826084BD84B5816084BD6E
:1012200085B5826085BD85B5816085BDEEE6F0E05F
:10123000808181608083E1E8F0E08081826080834A
:10124000808181608083E0E8F0E08081816080833C
:10125000E1EBF0E0808184608083E0EBF0E080816E
:1012600081608083EAE7F0E0808184608083808110
:1012700082608083808181608083808180688083B8
:101280001092C1000895282F30E0C90186569F4F63
:10129000FC0194912A573F4FF9018491882391F0E2
:1012A000E82FF0E0EE0FFF1FE859FF4FA591B49132
:1012B000662329F48C91909589238C9308958C91C1
:1012C000892B8C930895482F50E0CA0182559F4F77
:1012D000FC012491CA0186569F4FFC0194914A5704
:1012E0005F4FFA0134913323D1F1222331F12330BE
:1012F00021F4809180008F7705C0243031F48091F3
:1013000080008F7D8093800018C0213019F484B54F
:101310008F7704C0223021F484B58F7D84BD0DC049
:10132000263021F48091B0008F7705C0273029F452
:101330008091B0008F7D8093B000E32FF0E0EE0F3E
:10134000FF1FEE58FF4FA591B491662329F48C91AD
:10135000909589238C9308958C91892B8C93089573
:10136000682F70E0CB0182559F4FFC012491CB0187
:1013700086569F4FFC0144916A577F4FFB01949121
:10138000992319F420E030E038C0222331F12330D2
:1013900021F4809180008F7705C0243031F4809152
:1013A00080008F7D8093800018C0213019F484B5AF
:1013B0008F7704C0223021F484B58F7D84BD0DC0A9
:1013C000263021F48091B0008F7705C0273029F4B2
:1013D0008091B0008F7D8093B000892F90E0880FBE
:1013E000991F84589F4FFC01A591B4918C9120E0E6
:1013F00030E0842311F021E030E0C901089597FB2B
:10140000092E07260AD077FD04D049D006D0002047
:101410001AF4709561957F4F0895F6F79095819530
:101420009F4F0895A1E21A2EAA1BBB1BFD010DC000
:10143000AA1FBB1FEE1FFF1FA217B307E407F50784
:1014400020F0A21BB30BE40BF50B661F771F881F60
:10145000991F1A9469F760957095809590959B01F6
:10146000AC01BD01CF01089597FB092E05260ED0D2
:1014700057FD04D0D7DF0AD0001C38F450954095B2
:10148000309521953F4F4F4F5F4F0895F6F7909558
:101490008095709561957F4F8F4F9F4F0895AA1B40
:1014A000BB1B51E107C0AA1FBB1FA617B70710F04F
:1014B000A61BB70B881F991F5A95A9F78095909581
:1014C000BC01CD010895EE0FFF1F0590F491E02DB2
:1014D00009942F923F924F925F926F927F928F92D8
:1014E0009F92AF92BF92CF92DF92EF92FF920F93B3
:1014F0001F93CF93DF93CDB7DEB7CA1BDB0B0FB6BD
:10150000F894DEBF0FBECDBF09942A883988488879
:101510005F846E847D848C849B84AA84B984C8840F
:10152000DF80EE80FD800C811B81AA81B981CE0F06
:10153000D11D0FB6F894DEBF0FBECDBFED010895EB
:04154000F894FFCF4D
:1015440025336400537465707065722C205665727F
:10155400732E20312E3000506F736974696F6E3AA8
:101564000001000D000500F401040000000000006B
:0E157400000000E103000040001400540000DD
:00000001FF
