:100000000C9463000C94FA050C9427060C948B0056
:100010000C948B000C948B000C948B000C948B0034
:100020000C948B000C948B000C948B000C948B0024
:100030000C948B000C948B000C948B000C948B0014
:100040000C9454060C948B000C94A0070C948B0019
:100050000C948B000C948B000C948B000C948B00F4
:100060000C948B000C948B000000000024002700EF
:100070002A0000000000250028002B0000000000DE
:1000800023002600290004040404040404040202DA
:100090000202020203030303030301020408102007
:1000A0004080010204081020010204081020000012
:1000B0000007000201000003040600000000000029
:1000C0000000E304E90811241FBECFEFD4E0DEBF37
:1000D000CDBF11E0A0E0B1E0E6EDF5E102C0059092
:1000E0000D92A233B107D9F711E0A2E3B1E001C04C
:1000F0001D92A33FB107E1F710E0C6ECD0E004C0C9
:100100002297FE010E94AE0AC23CD107C9F70E94A5
:10011000D0050C94E90A0C940000AEE0B0E0E3E9ED
:10012000F0E00C94C00A0D891E8986E08C831A8346
:1001300009838FEF9FE79E838D839E01275E3F4F4C
:10014000CE0101966F89788DA9010E94B1002F819F
:100150003885020F131FF80110822E96E4E00C94EC
:10016000DC0AABE0B0E0E7EBF0E00C94B20A3C0153
:100170002B015A01FC0117821682838181FD03C085
:100180006FEF7FEFC6C19AE0892E1E010894211CF3
:10019000311CF3012381F20123FD859123FF81911D
:1001A0002F01882309F4B2C1853239F423FD8591EA
:1001B00023FF81912F01853229F490E0B3010E9441
:1001C000A402E7CF982FFF24EE249924FFE1FF1526
:1001D000D0F09B3269F09C3228F4903259F093327F
:1001E00091F40EC09D3249F0903369F441E024C08F
:1001F00052E0F52A84E0F82A28C098E0F92A25C0C0
:10020000E0E1FE2A22C0F7FC29C0892F80538A3002
:1002100070F4F6FE05C0989C902C1124980E15C021
:10022000E89CE02C1124E80EF0E2FF2A0EC09E327A
:1002300029F4F6FC6BC140E4F42A07C09C3619F49B
:1002400050E8F52A02C0983649F4F20123FD959151
:1002500023FF91912F01992309F0B8CF892F85545D
:10026000833018F08052833038F444E050E0A40E1C
:10027000B51E5FE359830FC0933631F0933779F0A1
:10028000933509F056C020C0F5018081898342E092
:1002900050E0A40EB51E610101E010E012C0F501AE
:1002A000C080D180F6FC03C06FEF7FEF02C0692DE4
:1002B00070E042E050E0A40EB51EC6010E94990213
:1002C0008C015FE7F52214C0F501C080D180F6FCF7
:1002D00003C06FEF7FEF02C0692D70E042E050E095
:1002E000A40EB51EC6010E948E028C0150E8F52AAC
:1002F000F3FE07C01AC080E290E0B3010E94A4029E
:10030000EA948E2D90E008171907A8F30EC0F601A5
:10031000F7FC8591F7FE81916F0190E0B3010E9497
:10032000A402E110EA94015010400115110579F77B
:10033000EAC0943611F0993669F5F7FE08C0F50168
:10034000208131814281538184E090E00AC0F5012F
:10035000808191819C01442737FD4095542F82E094
:1003600090E0A80EB91E9FE6F92257FF09C05095EC
:100370004095309521953F4F4F4F5F4FE0E8FE2A63
:10038000CA01B901A1012AE030E00E94D002D82EB2
:10039000D21840C0953729F41F2D1F7E2AE030E087
:1003A0001DC01F2D197F9F3661F0903720F49835BE
:1003B00009F0ACC00FC0903739F0983709F0A6C0EB
:1003C00004C028E030E00AC0106114FD146020E190
:1003D00030E004C014FD166020E132E017FF08C0D1
:1003E000F501608171818281938144E050E008C011
:1003F000F50180819181BC0180E090E042E050E015
:10040000A40EB51EA1010E94D002D82ED2188FE7EB
:10041000F82EF122F6FE0BC05EEFF522D91438F467
:10042000F4FE07C0F2FC05C08FEEF82202C01D2DBD
:1004300001C0192DF4FE0DC0FE01ED0DF11D8081EE
:10044000803319F499EEF92208C01F5FF2FE05C04F
:1004500003C08F2D867809F01F5F0F2DF3FC14C0A9
:10046000F0FE0FC01E1510F09D2C0BC09D2C9E0C95
:10047000911A1E2D06C080E290E0B3010E94A402F2
:100480001F5F1E15C0F304C01E1510F4E11A01C051
:10049000EE2404FF0FC080E390E0B3010E94A402A9
:1004A00002FF1DC001FD03C088E790E00EC088E593
:1004B00090E00BC0802F867891F001FF02C08BE2A4
:1004C00001C080E2F7FC8DE290E0B3010E94A4023B
:1004D00006C080E390E0B3010E94A4029A94D9146C
:1004E000C0F3DA94F101ED0DF11D808190E0B301CC
:1004F0000E94A402DD20A9F706C080E290E0B301CB
:100500000E94A402EA94EE20C1F743CEF301668173
:100510007781CB012B96E2E10C94CE0AFC01059089
:10052000615070400110D8F7809590958E0F9F1FF5
:100530000895FC016150704001900110D8F780953A
:1005400090958E0F9F1F08950F931F93CF93DF9366
:100550008C01EB018B8181FF1BC082FF0DC02E81BE
:100560003F818C819D812817390764F4E881F981E6
:100570000193F983E88306C0E885F985802F099502
:10058000892B31F48E819F8101969F838E8302C0D7
:100590000FEF1FEFC801DF91CF911F910F910895C9
:1005A000FA01AA27283051F1203181F1E8946F93A4
:1005B0006E7F6E5F7F4F8F4F9F4FAF4FB1E03ED04A
:1005C000B4E03CD0670F781F891F9A1FA11D680FE8
:1005D000791F8A1F911DA11D6A0F711D811D911D1B
:1005E000A11D20D009F468943F912AE0269F112490
:1005F0003019305D3193DEF6CF010895462F4770F4
:10060000405D4193B3E00FD0C9F7F6CF462F4F704E
:10061000405D4A3318F0495D31FD4052419302D0AC
:10062000A9F7EACFB4E0A695979587957795679552
:10063000BA95C9F700976105710508959B01AC0152
:100640000A2E06945795479537952795BA95C9F779
:10065000620F731F841F951FA01D08950F931F9392
:100660008C01FC01848160E00E94040781E090E03D
:100670000E949C06F801848161E00E94040781E0E9
:1006800090E00E949C06F801848160E00E940407CB
:1006900084E690E00E949C061F910F910895CF92EE
:1006A000DF92EF92FF920F931F93CF93DF93D82E99
:1006B000C92E282F392FC9018C01C0E0D0E0E62EC9
:1006C000FF24F801858161E00E94E406B7010C2E49
:1006D00002C0759567950A94E2F76170F80185810B
:1006E0000E94040721960F5F1F4FC830D10549F7BC
:1006F0008D2D9C2D0E942E03DF91CF911F910F9184
:10070000FF90EF90DF90CF900895CF92DF92EF921D
:10071000FF920F931F93CF93DF93D82EC92E282FCC
:10072000392FC9018C01C0E0D0E0E62EFF24F8018A
:10073000858161E00E94E406B7010C2E02C0759528
:1007400067950A94E2F76170F80185810E940407B9
:1007500021960F5F1F4FC430D10549F78D2D9C2D79
:100760000E942E03DF91CF911F910F91FF90EF9088
:10077000DF90CF9008951F93CF93DF93EC01162F56
:100780008A81642F0E9404078B8160E00E94040725
:100790008D8584FF05C0CE01612F0E944F030EC0DE
:1007A000612F70E084E0759567958A95E1F7CE0139
:1007B0000E948503CE01612F0E948503DF91CF91B6
:1007C0001F91089541E00E94BB03089540E00E94FC
:1007D000BB030895FC016685862F846086876C6064
:1007E000CF010E94E603089561E00E94E60380EDD8
:1007F00097E00E949C060895CF93DF93EC0142306E
:1008000018F08D8588608D87498B1A8A222329F0FC
:10081000413019F48D8584608D8780E593EC0E94CA
:100820009C068A8160E00E9404078C8160E00E943F
:1008300004078B8160E00E9404076D8564FD1DC084
:10084000CE0163E00E94850384E991E10E949C0649
:10085000CE0163E00E94850384E991E10E949C0639
:10086000CE0163E00E94850386E990E00E949C0629
:10087000CE0162E00E94850316C06062CE010E9434
:10088000E60384E991E10E949C066D856062CE01D9
:100890000E94E60386E990E00E949C066D856062F6
:1008A000CE010E94E6036D856062CE010E94E603E0
:1008B00084E08E87CE010E94EA03CE010E94F403F9
:1008C00082E08F87CE0166E00E94E603DF91CF9140
:1008D00008956F927F928F92AF92CF92EF920F9383
:1008E0001F93DF93CF93CDB7DEB73C01162F842F34
:1008F000F301428323830483E582C682A782808634
:100900009D8591879E8592879F85938798899487F7
:1009100061E00E94E406F301838161E00E94E40645
:10092000F301848161E00E94E406112319F0F301D0
:10093000158603C080E1F3018587C30160E141E0D2
:1009400020E00E94FC03CF91DF911F910F91EF9067
:10095000CF90AF908F907F906F9008958F92AF92CD
:10096000CF92EF920F931F93CF93DF93DC01362F3B
:10097000542F722F102FAE2C8C2C81E291E0119607
:100980009C938E9300D000D0EDB7FEB73196CDB7D3
:10099000DEB71982118212821382CD0161E0432FEA
:1009A0002FEF052FE72EC12E0E9469040F900F90A4
:1009B0000F900F90DF91CF911F910F91EF90CF90FB
:1009C000AF908F900895CF92EF920F9382E391E0D2
:1009D0006CE042E027E008E059E0E52E3AE0C32E63
:1009E0000E94AE040F91EF90CF9008958091110175
:1009F0000E945107892B31F4809147019091480161
:100A0000019705C08091470190914801019690930C
:100A100048018093470120E030E0809145019091AA
:100A20004601892B11F421E030E0309346012093F8
:100A3000450108950F931F938091470190914801BC
:100A4000E0911701F0911801BF010E94480A7093CC
:100A50004C0160934B012091490130914A0162178A
:100A600073077CF430934C0120934B012E9FC001FF
:100A70002F9F900D3E9F900D1124909348018093DD
:100A80004701209115013091160180914B01909101
:100A90004C01281739077CF430934C0120934B010B
:100AA0002E9FC0012F9F900D3E9F900D112490937B
:100AB00048018093470160914B0170914C018091F6
:100AC0004D0190914E016817790709F43FC080EEFF
:100AD00091E00E94210A80EE91E060E071E00E94C6
:100AE0005A0920914B0130914C0130934E012093D3
:100AF0004D0100D000D000D0EDB7FEB7319609E12E
:100B000011E0ADB7BEB712961C930E93119782E019
:100B100091E093838283358324830E948D008DB777
:100B20009EB706960FB6F8949EBF0FBE8DBF82E3A8
:100B300091E00E94F40382E391E066E071E00E949C
:100B40005A0982E391E0B8010E945A098091130189
:100B5000609145010E9404071F910F9108958091B3
:100B6000130161E00E94E40681E066EF74E042E078
:100B700050E00E94D7058091110160E00E94E406D8
:100B800080EE91E040E855E260E070E00E94DD0711
:100B900082E391E064E144E020E00E94FC030895D8
:100BA0000E94AA060E94AF050E941A05FDCF82305E
:100BB00000F5E82FF0E0EE0FFF1FE15BFE4F7183C1
:100BC0006083882319F08130A1F408C08091690006
:100BD0008C7F842B80936900E89A08958091690046
:100BE000440F551F440F551F837F842B809369004A
:100BF000E99A08951F920F920FB60F9211242F9326
:100C00003F934F935F936F937F938F939F93AF9394
:100C1000BF93EF93FF9380914F0190915001892BE7
:100C200029F0E0914F01F09150010995FF91EF916A
:100C3000BF91AF919F918F917F916F915F914F91F4
:100C40003F912F910F900FBE0F901F9018951F92FC
:100C50000F920FB60F9211242F933F934F935F93F0
:100C60006F937F938F939F93AF93BF93EF93FF9374
:100C70008091510190915201892B29F0E09151010D
:100C8000F09152010995FF91EF91BF91AF919F9122
:100C90008F917F916F915F914F913F912F910F9025
:100CA0000FBE0F901F9018951F920F920FB60F92C4
:100CB00011242F933F938F939F93AF93BF93809172
:100CC000570190915801A0915901B0915A0130916A
:100CD0005B010196A11DB11D232F2D5F2D3720F043
:100CE0002D570196A11DB11D20935B0180935701E3
:100CF00090935801A0935901B0935A0180915301E8
:100D000090915401A0915501B09156010196A11DF9
:100D1000B11D8093530190935401A0935501B0935A
:100D20005601BF91AF919F918F913F912F910F905D
:100D30000FBE0F901F901895019759F0FC01EE0F10
:100D4000FF1FEE0FFF1F32978FB7F8943197F1F71F
:100D50008FBF0895789484B5826084BD84B5816026
:100D600084BD85B5826085BD85B5816085BDEEE6B3
:100D7000F0E0808181608083E1E8F0E08081826042
:100D80008083808181608083E0E8F0E08081816001
:100D90008083E1EBF0E0808184608083E0EBF0E031
:100DA000808181608083EAE7F0E0808184608083D5
:100DB000808182608083808181608083808180687F
:100DC00080831092C1000895282F30E0C901865613
:100DD0009F4FFC0194912A573F4FF901849188233A
:100DE00091F0E82FF0E0EE0FFF1FE859FF4FA591BB
:100DF000B491662329F48C91909589238C9308955E
:100E00008C91892B8C930895482F50E0CA0182550C
:100E10009F4FFC012491CA0186569F4FFC0194917B
:100E20004A575F4FFA0134913323D1F1222331F134
:100E3000233021F4809180008F7705C0243031F475
:100E4000809180008F7D8093800018C0213019F43C
:100E500084B58F7704C0223021F484B58F7D84BDA2
:100E60000DC0263021F48091B0008F7705C0273067
:100E700029F48091B0008F7D8093B000E32FF0E0E3
:100E8000EE0FFF1FEE58FF4FA591B491662329F492
:100E90008C91909589238C9308958C91892B8C93B8
:100EA0000895682F70E0CB0182559F4FFC0124917B
:100EB000CB0186569F4FFC0144916A577F4FFB013F
:100EC0009491992319F420E030E038C0222331F1C5
:100ED000233021F4809180008F7705C0243031F4D5
:100EE000809180008F7D8093800018C0213019F49C
:100EF00084B58F7704C0223021F484B58F7D84BD02
:100F00000DC0263021F48091B0008F7705C02730C6
:100F100029F48091B0008F7D8093B000892F90E0FC
:100F2000880F991F84589F4FFC01A591B4918C9113
:100F300020E030E0842311F021E030E0C901089581
:100F40001F920F920FB60F9211242F933F934F933E
:100F50005F936F937F938F939F93AF93BF93EF9321
:100F6000FF934091C600E091DC01F091DD01CF01DB
:100F7000019660E870E00E94480A9C018091DE01C1
:100F80009091DF012817390739F0E45AFE4F40836A
:100F90003093DD012093DC01FF91EF91BF91AF9180
:100FA0009F918F917F916F915F914F913F912F9181
:100FB0000F900FBE0F901F9018955F926F927F92C7
:100FC0008F929F92AF92BF92CF92DF92EF92FF9259
:100FD0000F931F93CF93DF93EC013A014B01413400
:100FE00082E458078FE0680780E078070CF07FC044
:100FF00060E874E88EE190E0A40193010E947D0A0C
:101000002150304040405040CA01B90122E030E058
:1010100040E050E00E947D0A59016A01A601950155
:10102000209530954095509594E0220F331F441F32
:10103000551F9A95D1F760E074E284EF90E00E942A
:101040007D0ACA01B9012FEF30E040E050E00E9474
:10105000290AA40193010E947D0AC90181509F4F72
:10106000181619061CF4522E5A9403C05524539492
:10107000521A60E079E08DE390E0A40193010E94B0
:101080007D0A2150304040405040CA01B90122E061
:1010900030E040E050E00E947D0A20953095409578
:1010A000509583E0220F331F441F551F8A95D1F7B7
:1010B00060E074E284EF90E00E947D0ACA01B90109
:1010C0002FEF30E040E050E00E94290AA401930194
:1010D0000E947D0AC90181509F4F181619061CF401
:1010E000822F815002C081E0821B851500F5E885C2
:1010F000F98581E090E00A8802C0880F991F0A9460
:10110000E2F7808360E079E08DE390E0A401930151
:101110000E947D0A2150304040405040CA01B90130
:1011200022E030E040E050E00E947D0A04C0E88503
:10113000F98510829501EC81FD813083EE81FF817C
:101140002083EA85FB85208141E050E0CA010E84BE
:1011500002C0880F991F0A94E2F7282B2083EA85A2
:10116000FB852081CA010F8402C0880F991F0A9451
:10117000E2F7282B2083EA85FB858081088802C05E
:10118000440F551F0A94E2F7842B8083DF91CF919F
:101190001F910F91FF90EF90DF90CF90BF90AF9095
:1011A0009F908F907F906F905F900895FC01A08535
:1011B000B18521898C9190E0022E02C0959587958A
:1011C0000A94E2F780FFF6CF0484F585E02D608372
:1011D00008958BE291E09093E1018093E0018CE52A
:1011E00091E09093E3018093E20185EC90E090938D
:1011F000E5018093E40184EC90E09093E701809313
:10120000E60180EC90E09093E9018093E80181ECA5
:1012100090E09093EB018093EA0186EC90E090934C
:10122000ED018093EC0184E08093EE0183E08093F4
:10123000EF0187E08093F00185E08093F10181E088
:101240008093F20108950F931F93CF93DF938C0146
:10125000EB0109C02196D801ED91FC910190F0813C
:10126000E02DC801099568816623A1F7DF91CF9130
:101270001F910F910895EF92FF920F931F93CF93B9
:10128000DF938C017B01EA010CC0D7016D917D01D8
:10129000D801ED91FC910190F081E02DC8010995F4
:1012A0002197209791F7DF91CF911F910F91FF9098
:1012B000EF900895DC01ED91FC910280F381E02D27
:1012C000099508952F923F924F925F926F927F926D
:1012D0008F929F92AF92BF92CF92DF92EF92FF9246
:1012E0000F931F93DF93CF93CDB7DEB7A0970FB6C1
:1012F000F894DEBF0FBECDBF1C016A017B01411512
:1013000051056105710549F4DC01ED91FC910190F5
:10131000F081E02D60E3099554C08824992454019C
:10132000422E55246624772401E010E00C0F1D1F87
:10133000080D191DC701B601A30192010E945B0AA5
:10134000F80160830894811C911CA11CB11CC70189
:10135000B601A30192010E945B0AC901DA016C0186
:101360007D01C114D104E104F104F1F681E0E82E1D
:10137000F12CEC0EFD1EE80CF91C3E010894611CDA
:10138000711CD501C4010197A109B1096C01C818EC
:10139000D90814C0F601EE0DFF1D60816A3010F40B
:1013A000605D01C0695CD101ED91FC910190F0811B
:1013B000E02DC10109950894E108F1086E147F043D
:1013C00049F7A0960FB6F894DEBF0FBECDBFCF9100
:1013D000DF911F910F91FF90EF90DF90CF90BF9022
:1013E000AF909F908F907F906F905F904F903F90C5
:1013F0002F900895EF92FF920F931F93CF93DF9357
:10140000EC017A018B0177FF0FC0E881F98101902F
:10141000F081E02D6DE2099510950095F094E0942F
:10142000E11CF11C011D111DCE01B801A7012AE02C
:101430000E946209DF91CF911F910F91FF90EF9071
:101440000895AB01662757FD6095762F0E94FA0933
:101450000895629FD001739FF001829FE00DF11DFE
:10146000649FE00DF11D929FF00D839FF00D749F1E
:10147000F00D659FF00D9927729FB00DE11DF91FCA
:10148000639FB00DE11DF91FBD01CF011124089527
:1014900097FB092E07260AD077FD04D049D006D045
:1014A00000201AF4709561957F4F0895F6F7909596
:1014B00081959F4F0895A1E21A2EAA1BBB1BFD0127
:1014C0000DC0AA1FBB1FEE1FFF1FA217B307E40723
:1014D000F50720F0A21BB30BE40BF50B661F771F7B
:1014E000881F991F1A9469F760957095809590955B
:1014F0009B01AC01BD01CF01089597FB092E052684
:101500000ED057FD04D0D7DF0AD0001C38F4509518
:101510004095309521953F4F4F4F5F4F0895F6F717
:1015200090958095709561957F4F8F4F9F4F08954F
:10153000AA1BBB1B51E107C0AA1FBB1FA617B707F9
:1015400010F0A61BB70B881F991F5A95A9F7809515
:101550009095BC01CD010895EE0FFF1F0590F49109
:10156000E02D09942F923F924F925F926F927F925B
:101570008F929F92AF92BF92CF92DF92EF92FF92A3
:101580000F931F93CF93DF93CDB7DEB7CA1BDB0B4F
:101590000FB6F894DEBF0FBECDBF09942A883988F4
:1015A00048885F846E847D848C849B84AA84B984FB
:1015B000C884DF80EE80FD800C811B81AA81B98107
:1015C000CE0FD11D0FB6F894DEBF0FBECDBFED011B
:0615D0000895F894FFCF1E
:1015D600200025336400506F74693A2020202020B3
:1015E6000001000D00F401040000000000000000EE
:1015F60000E20323093B0900000000D60823093B4B
:021606000900D9
:00000001FF
