:100000000C9461000C947E000C947E000C947E0095
:100010000C947E000C947E000C947E000C947E0068
:100020000C947E000C947E000C947E000C947E0058
:100030000C947E000C947E000C947E000C947E0048
:100040000C9456010C947E000C947E000C947E005F
:100050000C947E000C947E000C947E000C947E0028
:100060000C947E000C947E00000000002400270009
:100070002A0000000000250028002B0000000000DE
:1000800023002600290004040404040404040202DA
:100090000202020203030303030301020408102007
:1000A0004080010204081020010204081020000012
:1000B0000007000201000003040600000000000029
:1000C000000011241FBECFEFD8E0DEBFCDBF11E08E
:1000D000A0E0B1E0ECEBF5E002C005900D92A2319A
:1000E000B107D9F711E0A2E1B1E001C01D92AB3137
:1000F000B107E1F70E944F010C94DC020C94000060
:100100001F9380910C010E9402029C0153E0880F12
:10011000991F5A95E1F7220F331F820F931F909377
:100120000F0180930E0110910601809100010E9441
:100130008D02682F812F0E944002809100010E9451
:100140008D02892B41F48091060161E00E944002FA
:10015000809108010DC0809102010E948D02892BBF
:1001600069F48091080161E00E94400280910601DB
:1001700060E00E94400280910A0112C08091040157
:100180000E948D02892BC9F480910A0161E00E94CE
:1001900040028091060160E00E94400280910801C7
:1001A00060E00E94400260910E0170910F0188276B
:1001B00077FD8095982F0E949E018091060160E056
:1001C0000E9440028091080160E00E9440028091FC
:1001D0000A0160E00E9440021F9108958091000191
:1001E00060E00E9420028091020160E00E942002F3
:1001F0008091040160E00E9420028091060161E08C
:100200000E9420028091080161E00E9420028091FA
:100210000A0161E00E9420028091060161E00E94D3
:10022000400264EF71E080E090E00E949E018091C6
:10023000060160E00E94400264EF71E080E090E01F
:100240000E949E018091080161E00E94400264EFDB
:1002500071E080E090E00E949E018091080160E0E2
:100260000E94400264EF71E080E090E00E949E01F5
:1002700080910A0161E00E94400264EF71E080E039
:1002800090E00E949E0180910A0160E00E9440027D
:1002900064EF71E080E090E00E949E0108950E946A
:1002A000C8010E94EE000E948000FDCF1F920F92B5
:1002B0000FB60F9211242F933F938F939F93AF9379
:1002C000BF938091160190911701A0911801B091F0
:1002D000190130911A010196A11DB11D232F2D5F27
:1002E0002D3720F02D570196A11DB11D20931A0125
:1002F0008093160190931701A0931801B0931901F0
:100300008091120190911301A0911401B0911501F7
:100310000196A11DB11D8093120190931301A0932A
:100320001401B0931501BF91AF919F918F913F91AF
:100330002F910F900FBE0F901F901895EF92FF9284
:100340000F931F937B018C018FB7F8944091160196
:100350005091170160911801709119018FBF2FB74B
:10036000F8948091160190911701A0911801B09115
:1003700019012FBF841B950BA60BB70BE816F906C6
:100380000A071B0760F71F910F91FF90EF900895E8
:10039000789484B5826084BD84B5816084BD85B560
:1003A000826085BD85B5816085BDEEE6F0E0808127
:1003B00081608083E1E8F0E08081826080838081D9
:1003C00081608083E0E8F0E0808181608083E1EB00
:1003D000F0E0808184608083E0EBF0E080818160E8
:1003E0008083EAE7F0E0808184608083808182609E
:1003F0008083808181608083808180688083109287
:10040000C10008958F70909110019295990F990FE6
:10041000907C982B90937C0080917A0080648093EC
:100420007A0080917A0086FDFCCF2091780040917F
:100430007900942F80E030E0282B392BC9010895F2
:10044000282F30E0C90186569F4FFC0194912A570E
:100450003F4FF9018491882391F0E82FF0E0EE0FEF
:10046000FF1FE859FF4FA591B491662329F48C91A1
:10047000909589238C9308958C91892B8C93089562
:10048000482F50E0CA0182559F4FFC012491CA01B8
:1004900086569F4FFC0194914A575F4FFA01349161
:1004A0003323D1F1222331F1233021F480918000D4
:1004B0008F7705C0243031F4809180008F7D809348
:1004C000800018C0213019F484B58F7704C0223021
:1004D00021F484B58F7D84BD0DC0263021F4809138
:1004E000B0008F7705C0273029F48091B0008F7D50
:1004F0008093B000E32FF0E0EE0FFF1FEE58FF4FA8
:10050000A591B491662329F48C91909589238C93BD
:1005100008958C91892B8C930895682F70E0CB01FE
:1005200082559F4FFC012491CB0186569F4FFC01C1
:1005300044916A577F4FFB019491992319F420E06D
:1005400030E038C0222331F1233021F48091800043
:100550008F7705C0243031F4809180008F7D8093A7
:10056000800018C0213019F484B58F7704C0223080
:1005700021F484B58F7D84BD0DC0263021F4809197
:10058000B0008F7705C0273029F48091B0008F7DAF
:100590008093B000892F90E0880F991F84589F4F57
:1005A000FC01A591B4918C9120E030E0842311F0FE
:0C05B00021E030E0C9010895F894FFCF6D
:1005BC0002000300040005000600070005006400AB
:0205CC0001002C
:00000001FF
