:100000000C9463000C948B000C948B000C948B006C
:100010000C948B000C948B000C948B000C948B0034
:100020000C948B000C9412050C948B000C948B0098
:100030000C948B000C948B000C948B000C948B0014
:100040000C94EC060C948B000C9431080C948B00EF
:100050000C948B000C948B000C948B000C948B00F4
:100060000C948B000C948B000000000024002700EF
:100070002A0000000000250028002B0000000000DE
:1000800023002600290004040404040404040202DA
:100090000202020203030303030301020408102007
:1000A0004080010204081020010204081020000012
:1000B0000007000201000003040600000000000029
:1000C000000015067A0911241FBECFEFD8E0DEBF6D
:1000D000CDBF11E0A0E0B1E0E6E2F7E102C005909B
:1000E0000D92A034B107D9F714E0A0E4B1E001C04B
:1000F0001D92A231B107E1F710E0C6ECD0E004C0D8
:100100002297FE010E94560BC23CD107C9F70E94FC
:10011000E5060C94910B0C940000AEE0B0E0E3E92E
:10012000F0E00C94680B0D891E8986E08C831A839D
:1001300009838FEF9FE79E838D839E01275E3F4F4C
:10014000CE0101966F89788DA9010E94B1002F819F
:100150003885020F131FF80110822E96E4E00C94EC
:10016000840BABE0B0E0E7EBF0E00C945A0B3C0101
:100170002B015A01FC0117821682838181FD03C085
:100180006FEF7FEFC6C19AE0892E1E010894211CF3
:10019000311CF3012381F20123FD859123FF81911D
:1001A0002F01882309F4B2C1853239F423FD8591EA
:1001B00023FF81912F01853229F490E0B3010E9441
:1001C000A402E7CF982FFF24EE249924FFE1FF1526
:1001D000D0F09B3269F09C3228F4903259F093327F
:1001E00091F40EC09D3249F0903369F441E024C08F
:1001F00052E0F52A84E0F82A28C098E0F92A25C0C0
:10020000E0E1FE2A22C0F7FC29C0892F80538A3002
:1002100070F4F6FE05C0989C902C1124980E15C021
:10022000E89CE02C1124E80EF0E2FF2A0EC09E327A
:1002300029F4F6FC6BC140E4F42A07C09C3619F49B
:1002400050E8F52A02C0983649F4F20123FD959151
:1002500023FF91912F01992309F0B8CF892F85545D
:10026000833018F08052833038F444E050E0A40E1C
:10027000B51E5FE359830FC0933631F0933779F0A1
:10028000933509F056C020C0F5018081898342E092
:1002900050E0A40EB51E610101E010E012C0F501AE
:1002A000C080D180F6FC03C06FEF7FEF02C0692DE4
:1002B00070E042E050E0A40EB51EC6010E94990213
:1002C0008C015FE7F52214C0F501C080D180F6FCF7
:1002D00003C06FEF7FEF02C0692D70E042E050E095
:1002E000A40EB51EC6010E948E028C0150E8F52AAC
:1002F000F3FE07C01AC080E290E0B3010E94A4029E
:10030000EA948E2D90E008171907A8F30EC0F601A5
:10031000F7FC8591F7FE81916F0190E0B3010E9497
:10032000A402E110EA94015010400115110579F77B
:10033000EAC0943611F0993669F5F7FE08C0F50168
:10034000208131814281538184E090E00AC0F5012F
:10035000808191819C01442737FD4095542F82E094
:1003600090E0A80EB91E9FE6F92257FF09C05095EC
:100370004095309521953F4F4F4F5F4FE0E8FE2A63
:10038000CA01B901A1012AE030E00E94D002D82EB2
:10039000D21840C0953729F41F2D1F7E2AE030E087
:1003A0001DC01F2D197F9F3661F0903720F49835BE
:1003B00009F0ACC00FC0903739F0983709F0A6C0EB
:1003C00004C028E030E00AC0106114FD146020E190
:1003D00030E004C014FD166020E132E017FF08C0D1
:1003E000F501608171818281938144E050E008C011
:1003F000F50180819181BC0180E090E042E050E015
:10040000A40EB51EA1010E94D002D82ED2188FE7EB
:10041000F82EF122F6FE0BC05EEFF522D91438F467
:10042000F4FE07C0F2FC05C08FEEF82202C01D2DBD
:1004300001C0192DF4FE0DC0FE01ED0DF11D8081EE
:10044000803319F499EEF92208C01F5FF2FE05C04F
:1004500003C08F2D867809F01F5F0F2DF3FC14C0A9
:10046000F0FE0FC01E1510F09D2C0BC09D2C9E0C95
:10047000911A1E2D06C080E290E0B3010E94A402F2
:100480001F5F1E15C0F304C01E1510F4E11A01C051
:10049000EE2404FF0FC080E390E0B3010E94A402A9
:1004A00002FF1DC001FD03C088E790E00EC088E593
:1004B00090E00BC0802F867891F001FF02C08BE2A4
:1004C00001C080E2F7FC8DE290E0B3010E94A4023B
:1004D00006C080E390E0B3010E94A4029A94D9146C
:1004E000C0F3DA94F101ED0DF11D808190E0B301CC
:1004F0000E94A402DD20A9F706C080E290E0B301CB
:100500000E94A402EA94EE20C1F743CEF301668173
:100510007781CB012B96E2E10C94760BFC010590E0
:10052000615070400110D8F7809590958E0F9F1FF5
:100530000895FC016150704001900110D8F780953A
:1005400090958E0F9F1F08950F931F93CF93DF9366
:100550008C01EB018B8181FF1BC082FF0DC02E81BE
:100560003F818C819D812817390764F4E881F981E6
:100570000193F983E88306C0E885F985802F099502
:10058000892B31F48E819F8101969F838E8302C0D7
:100590000FEF1FEFC801DF91CF911F910F910895C9
:1005A000FA01AA27283051F1203181F1E8946F93A4
:1005B0006E7F6E5F7F4F8F4F9F4FAF4FB1E03ED04A
:1005C000B4E03CD0670F781F891F9A1FA11D680FE8
:1005D000791F8A1F911DA11D6A0F711D811D911D1B
:1005E000A11D20D009F468943F912AE0269F112490
:1005F0003019305D3193DEF6CF010895462F4770F4
:10060000405D4193B3E00FD0C9F7F6CF462F4F704E
:10061000405D4A3318F0495D31FD4052419302D0AC
:10062000A9F7EACFB4E0A695979587957795679552
:10063000BA95C9F700976105710508959B01AC0152
:100640000A2E06945795479537952795BA95C9F779
:10065000620F731F841F951FA01D08950F931F9392
:100660008C01FC01848160E00E94E40781E090E05D
:100670000E945E07F801848161E00E94E40781E046
:1006800090E00E945E07F801848160E00E94E40728
:1006900084E690E00E945E071F910F910895CF922B
:1006A000DF92EF92FF920F931F93CF93DF93D82E99
:1006B000C92E282F392FC9018C01C0E0D0E0E62EC9
:1006C000FF24F801858161E00E94C407B7010C2E68
:1006D00002C0759567950A94E2F76170F80185810B
:1006E0000E94E40721960F5F1F4FC830D10549F7DC
:1006F0008D2D9C2D0E942E03DF91CF911F910F9184
:10070000FF90EF90DF90CF900895CF92DF92EF921D
:10071000FF920F931F93CF93DF93D82EC92E282FCC
:10072000392FC9018C01C0E0D0E0E62EFF24F8018A
:10073000858161E00E94C407B7010C2E02C0759547
:1007400067950A94E2F76170F80185810E94E407D9
:1007500021960F5F1F4FC430D10549F78D2D9C2D79
:100760000E942E03DF91CF911F910F91FF90EF9088
:10077000DF90CF9008951F93CF93DF93EC01162F56
:100780008A81642F0E94E4078B8160E00E94E40765
:100790008D8584FF05C0CE01612F0E944F030EC0DE
:1007A000612F70E084E0759567958A95E1F7CE0139
:1007B0000E948503CE01612F0E948503DF91CF91B6
:1007C0001F91089541E00E94BB03089540E00E94FC
:1007D000BB030895FC016685862F846086876C6064
:1007E000CF010E94E6030895DF93CF93CDB7DEB724
:1007F00028970FB6F894DEBF0FBECDBF9C01FE0157
:100800003196ADE2B1E088E00D9001928150E1F7C0
:10081000F9018189841710F4482F4150E42FF0E04A
:10082000EE0FFF1FEC0FFD1F8181680F6068C9018B
:100830000E94E60328960FB6F894DEBF0FBECDBF28
:10084000CF91DF91089561E00E94E60380ED97E08B
:100850000E945E070895CF93DF93EC01423018F0B9
:100860008D8588608D87498B1A8A222329F0413033
:1008700019F48D8584608D8780E593EC0E945E0776
:100880008A8160E00E94E4078C8160E00E94E407B6
:100890008B8160E00E94E4076D8564FD1DC0CE0180
:1008A00063E00E94850384E991E10E945E07CE0126
:1008B00063E00E94850384E991E10E945E07CE0116
:1008C00063E00E94850386E990E00E945E07CE0106
:1008D00062E00E94850316C06062CE010E94E603BA
:1008E00084E991E10E945E076D856062CE010E94FD
:1008F000E60386E990E00E945E076D856062CE01A6
:100900000E94E6036D856062CE010E94E60384E0EA
:100910008E87CE010E94EA03CE010E94230482E06A
:100920008F87CE0166E00E94E603DF91CF910895A4
:100930006F927F928F92AF92CF92EF920F931F930D
:10094000DF93CF93CDB7DEB73C01162F842FF30191
:10095000428323830483E582C682A78280869D85A5
:1009600091879E8592879F8593879889948761E078
:100970000E94C407F301838161E00E94C407F30170
:10098000848161E00E94C407112319F0F3011586E8
:1009900003C080E1F3018587C30160E141E020E00D
:1009A0000E942B04CF91DF911F910F91EF90CF9078
:1009B000AF908F907F906F9008958F92AF92CF926B
:1009C000EF920F931F93CF93DF93DC01362F542FB9
:1009D000722F102FAE2C8C2C87E291E011969C93F5
:1009E0008E9300D000D0EDB7FEB73196CDB7DEB70D
:1009F0001982118212821382CD0161E0432F2FEF01
:100A0000052FE72EC12E0E9498040F900F900F9093
:100A10000F90DF91CF911F910F91EF90CF90AF90FA
:100A20008F90089578941F920F920FB60F92112411
:100A3000DF92EF92FF920F931F932F933F934F9369
:100A40005F936F937F938F939F93AF93BF93CF9356
:100A5000DF93EF93FF93809170008E7F80937000FF
:100A6000A0914403B091450310914603012F0095D6
:100A7000612F70E060957095C0911A01D0911B01B3
:100A800040914203509143032FE730E0DD249AE286
:100A9000E92E8AE2F82E4115510509F02BC02332C8
:100AA000310508F44FC08C9180238C9380E09E2DFB
:100AB0009A95F1F78F5F8B30D1F7235230408C91AC
:100AC000812B8C938F2D8A95F1F7F8940C90062248
:100AD0000C928BE000C09DE000009A95E9F70C9025
:100AE00006220894D79408F4012A0C928A9599F763
:100AF000789422C02B30310528F45093430340935F
:100B0000420324C02B503040FA01E15CFE4F80814B
:100B1000F8940C9006220C929BE000C0EDE00000DF
:100B2000EA95E9F70C9006220894879508F4012AC3
:100B30000C929A9599F778944F5F5F4FC417D50739
:100B400008F0A9CF109243031092420380917000E5
:100B5000816080937000FF91EF91DF91CF91BF9101
:100B6000AF919F918F917F916F915F914F913F9145
:100B70002F911F910F91FF90EF90DF900F900FBE7C
:100B80000F901F90189581E0809341038091190187
:100B9000482F50E0FA01EA57FF4FE491F0E0EE0FE2
:100BA000FF1FEE58FF4F259134913093450320935A
:100BB000440346565F4FFA0194919093460361E0D7
:100BC0000E94C407E0E7F0E080818160808308959F
:100BD0001F93CF93DF93EC01162F8091410388235D
:100BE00011F40E94C305CE01019780509240A0F4F9
:100BF00020911A0130911B01CE014C2F892FC21771
:100C0000D30718F4C901422F892F40931A0180930A
:100C10001B01C15CDE4F1883DF91CF911F910895B6
:100C2000CB01642F0E94E8050895CF92EF920F93B5
:100C300087E493E06CE04BE027E008E059E0E52E24
:100C40003AE0C32E0E94DD040F91EF90CF900895FB
:100C50000F931F9380911C0161E00E94C40707E479
:100C600013E0C80164E144E020E00E942B04C801C5
:100C70000E942304C80160E071E00E94EB098FEF3D
:100C800093E040E855E260E070E00E946E081F913A
:100C90000F910895CF93DF93CCE5D3E0809170035B
:100CA0000E94A607899399936AE070E080E090E043
:100CB0000E94340783E0C037D80781F7FE0172979E
:100CC00020915C0330915D0381919191280F391F30
:100CD00030935D0320935C0383E0E037F80781F7EE
:100CE000C9016AE070E00E94F00ACB01DF91CF9168
:100CF00008950F931F930E944A0662E070E00E94DD
:100D0000F00A70935B0360935A036F3F710539F0EB
:100D100034F08FEF90E090935B0380935A0387E465
:100D200093E060E042E00E94F40387E493E06FE028
:100D300071E00E94EB0900D000D000D0EDB7FEB703
:100D400031960EE111E0ADB7BEB712961C930E932B
:100D5000119785E191E09383828380915A0390916A
:100D60005B03958384830E948D008DB79EB70696A2
:100D70000FB6F8949EBF0FBE8DBF87E493E06AE084
:100D800042E00E94F40387E493E0B8010E94EB097B
:100D900060915A0370915B038FEF93E00E94C90A40
:100DA0008FEF93E00E94F30980E493E061E070E04C
:100DB00040915A030E9410066AE070E080E090E0E3
:100DC0000E9434071F910F9108950E946C070E94A2
:100DD00028060E947906FDCF1F920F920FB60F9240
:100DE00011242F933F938F939F93AF93BF93809141
:100DF000760390917703A0917803B09179033091B5
:100E00007A030196A11DB11D232F2D5F2D3720F0F0
:100E10002D570196A11DB11D20937A03809376036F
:100E200090937703A0937803B09379038091720332
:100E300090917303A0917403B09175030196A11D65
:100E4000B11D8093720390937303A0937403B093C6
:100E50007503BF91AF919F918F913F912F910F900B
:100E60000FBE0F901F901895EF92FF920F931F9354
:100E70007B018C018FB7F8944091760350917703F2
:100E800060917803709179038FBF2FB7F8948091A8
:100E9000760390917703A0917803B09179032FBFE7
:100EA000841B950BA60BB70BE816F9060A071B0760
:100EB00060F71F910F91FF90EF900895019759F0FF
:100EC000FC01EE0FFF1FEE0FFF1F32978FB7F89454
:100ED0003197F1F78FBF0895789484B5826084BD0F
:100EE00084B5816084BD85B5826085BD85B581602E
:100EF00085BDEEE6F0E0808181608083E1E8F0E08E
:100F0000808182608083808181608083E0E8F0E07E
:100F1000808181608083E1EBF0E080818460808368
:100F2000E0EBF0E0808181608083EAE7F0E080819F
:100F300084608083808182608083808181608083FF
:100F40008081806880831092C10008958F70909195
:100F500022019295990F990F907C982B90937C0089
:100F600080917A00806480937A0080917A0086FD77
:100F7000FCCF2091780040917900942F80E030E000
:100F8000282B392BC9010895282F30E0C901865636
:100F90009F4FFC0194912A573F4FF9018491882378
:100FA00091F0E82FF0E0EE0FFF1FE859FF4FA591F9
:100FB000B491662329F48C91909589238C9308959C
:100FC0008C91892B8C930895482F50E0CA0182554B
:100FD0009F4FFC012491CA0186569F4FFC019491BA
:100FE0004A575F4FFA0134913323D1F1222331F173
:100FF000233021F4809180008F7705C0243031F4B4
:10100000809180008F7D8093800018C0213019F47A
:1010100084B58F7704C0223021F484B58F7D84BDE0
:101020000DC0263021F48091B0008F7705C02730A5
:1010300029F48091B0008F7D8093B000E32FF0E021
:10104000EE0FFF1FEE58FF4FA591B491662329F4D0
:101050008C91909589238C9308958C91892B8C93F6
:1010600008951F920F920FB60F9211242F933F9362
:101070004F935F936F937F938F939F93AF93BF93A0
:10108000EF93FF934091C600E091FB03F091FC03C6
:10109000CF01019660E870E00E94F00A9C01809107
:1010A000FD039091FE032817390739F0E558FC4FEE
:1010B00040833093FC032093FB03FF91EF91BF919A
:1010C000AF919F918F917F916F915F914F913F91E0
:1010D0002F910F900FBE0F901F9018955F926F92F7
:1010E0007F928F929F92AF92BF92CF92DF92EF92B8
:1010F000FF920F931F93CF93DF93EC013A014B01C3
:10110000413482E458078FE0680780E078070CF0EC
:101110007FC060E874E88EE190E0A40193010E9432
:10112000250B2150304040405040CA01B90122E017
:1011300030E040E050E00E94250B59016A01A60111
:101140009501209530954095509594E0220F331FDE
:10115000441F551F9A95D1F760E074E284EF90E048
:101160000E94250BCA01B9012FEF30E040E050E0AA
:101170000E94D10AA40193010E94250BC90181504C
:101180009F4F181619061CF4522E5A9403C055246A
:101190005394521A60E079E08DE390E0A40193014A
:1011A0000E94250B2150304040405040CA01B901F7
:1011B00022E030E040E050E00E94250B2095309581
:1011C0004095509583E0220F331F441F551F8A9589
:1011D000D1F760E074E284EF90E00E94250BCA0131
:1011E000B9012FEF30E040E050E00E94D10AA401A5
:1011F00093010E94250BC90181509F4F18161906B3
:101200001CF4822F815002C081E0821B851500F5FD
:10121000E885F98581E090E00A8802C0880F991F6F
:101220000A94E2F7808360E079E08DE390E0A40126
:1012300093010E94250B2150304040405040CA018C
:10124000B90122E030E040E050E00E94250B04C0EC
:10125000E885F98510829501EC81FD813083EE816E
:10126000FF812083EA85FB85208141E050E0CA01AF
:101270000E8402C0880F991F0A94E2F7282B20835E
:10128000EA85FB852081CA010F8402C0880F991F5F
:101290000A94E2F7282B2083EA85FB858081088861
:1012A00002C0440F551F0A94E2F7842B8083DF911C
:1012B000CF911F910F91FF90EF90DF90CF90BF9053
:1012C000AF909F908F907F906F905F900895FC01FA
:1012D000A085B18521898C9190E0022E02C0959560
:1012E00087950A94E2F780FFF6CF0484F585E02D18
:1012F0006083089589E391E0909300048093FF0355
:101300008BE793E0909302048093010485EC90E0D6
:10131000909304048093030484EC90E0909306047B
:101320008093050480EC90E0909308048093070478
:1013300081EC90E090930A048093090486EC90E09D
:1013400090930C0480930B0484E080930D0483E05D
:1013500080930E0487E080930F0485E0809310044F
:1013600081E08093110408950F931F93CF93DF932F
:101370008C01EB0109C02196D801ED91FC910190FF
:10138000F081E02DC801099568816623A1F7DF91FE
:10139000CF911F910F910895EF92FF920F931F939A
:1013A000CF93DF938C017B01EA010CC0D7016D91D3
:1013B0007D01D801ED91FC910190F081E02DC801F3
:1013C00009952197209791F7DF91CF911F910F9168
:1013D000FF90EF900895DC01ED91FC910280F38184
:1013E000E02D099508950F931F938C01DC01ED9179
:1013F000FC910190F081E02D6DE00995D801ED910F
:10140000FC910190F081E02DC8016AE009951F91DF
:101410000F9108952F923F924F925F926F927F9219
:101420008F929F92AF92BF92CF92DF92EF92FF92F4
:101430000F931F93DF93CF93CDB7DEB7A0970FB66F
:10144000F894DEBF0FBECDBF1C016A017B014115C0
:1014500051056105710549F4DC01ED91FC910190A4
:10146000F081E02D60E3099554C08824992454014B
:10147000422E55246624772401E010E00C0F1D1F36
:10148000080D191DC701B601A30192010E94030BAB
:10149000F80160830894811C911CA11CB11CC70138
:1014A000B601A30192010E94030BC901DA016C018C
:1014B0007D01C114D104E104F104F1F681E0E82ECC
:1014C000F12CEC0EFD1EE80CF91C3E010894611C89
:1014D000711CD501C4010197A109B1096C01C8189B
:1014E000D90814C0F601EE0DFF1D60816A3010F4BA
:1014F000605D01C0695CD101ED91FC910190F081CA
:10150000E02DC10109950894E108F1086E147F04EB
:1015100049F7A0960FB6F894DEBF0FBECDBFCF91AE
:10152000DF911F910F91FF90EF90DF90CF90BF90D0
:10153000AF909F908F907F906F905F904F903F9073
:101540002F900895EF92FF920F931F93CF93DF9305
:10155000EC017A018B0177FF0FC0E881F9810190DE
:10156000F081E02D6DE2099510950095F094E094DE
:10157000E11CF11C011D111DCE01B801A7012AE0DB
:101580000E940A0ADF91CF911F910F91FF90EF9077
:101590000895AB01662757FD6095762F0E94A20A39
:1015A0000895629FD001739FF001829FE00DF11DAD
:1015B000649FE00DF11D929FF00D839FF00D749FCD
:1015C000F00D659FF00D9927729FB00DE11DF91F79
:1015D000639FB00DE11DF91FBD01CF0111240895D6
:1015E00097FB092E07260AD077FD04D049D006D0F4
:1015F00000201AF4709561957F4F0895F6F7909545
:1016000081959F4F0895A1E21A2EAA1BBB1BFD01D5
:101610000DC0AA1FBB1FEE1FFF1FA217B307E407D1
:10162000F50720F0A21BB30BE40BF50B661F771F29
:10163000881F991F1A9469F7609570958095909509
:101640009B01AC01BD01CF01089597FB092E052632
:101650000ED057FD04D0D7DF0AD0001C38F45095C7
:101660004095309521953F4F4F4F5F4F0895F6F7C6
:1016700090958095709561957F4F8F4F9F4F0895FE
:10168000AA1BBB1B51E107C0AA1FBB1FA617B707A8
:1016900010F0A61BB70B881F991F5A95A9F78095C4
:1016A0009095BC01CD010895EE0FFF1F0590F491B8
:1016B000E02D09942F923F924F925F926F927F920A
:1016C0008F929F92AF92BF92CF92DF92EF92FF9252
:1016D0000F931F93CF93DF93CDB7DEB7CA1BDB0BFE
:1016E0000FB6F894DEBF0FBECDBF09942A883988A3
:1016F00048885F846E847D848C849B84AA84B984AA
:10170000C884DF80EE80FD800C811B81AA81B981B5
:10171000CE0FD11D0FB6F894DEBF0FBECDBFED01C9
:061720000895F894FFCFCC
:10172600456E746665726E756E6720312E30005791
:101736006572743A0025336400031000020000004D
:1017460000000100000000E203B409CC09000040DB
:101756000014005400000000006709B409CC090019
:00000001FF
