:100000000C945B000C9481000C9481000C94810092
:100010000C9481000C9481000C9481000C9481005C
:100020000C9481000C9481000C9481000C9481004C
:100030000C9481000C9481000C9481000C9481003C
:100040000C9436040C9481000C9481000C94810073
:100050000C9481000C9481000C9481000C9481001C
:100060000C9481000C9481002F0400000007000212
:10007000010000030406000000000000000001026F
:100080000408102040800102040810200102040826
:100090001020040404040404040402020202020204
:1000A0000303030303030000232629000025282B54
:1000B000000024272A0011241FBECFEFD4E0DEBFAA
:1000C000CDBF11E0A0E0B1E0EEE0F3E102C00590A9
:1000D0000D92A433B107D9F711E0A4E3B1E001C058
:1000E0001D92A534B107E1F710E0CAE6D0E004C0E4
:1000F0002297FE010E948309C836D107C9F70C94E4
:1001000018040C94000060E080910A010E94C2056E
:1001100081E090E00E94950461E080910A010E94D4
:10012000C20581E090E00E94950460E080910A01A0
:100130000E94C20561E070E080E090E00E947304DC
:100140000895EF92FF920F931F93CF93DF937C015B
:100150008B010F701070C0910201D091030108C093
:10016000602F61708C2F0E94C2051595079521960E
:1001700080910801909109018C179D078CF7C701A8
:100180000E948300DF91CF911F910F91FF90EF901C
:100190000895EF92FF920F931F937C018B0194E0DF
:1001A000759567959A95E1F7C7010E94A1000F70B8
:1001B0001070B801C7010E94A1001F910F91FF901C
:1001C000EF900895709301016093000161507040B9
:1001D0006430710530F081E090E0909301018093EC
:1001E0000001089570930101609300016150704017
:1001F0006430710530F081E090E0909301018093CC
:10020000000108950F931F93CF93DF938C01EB01AF
:1002100060E080910E010E94C205809134019091AE
:100220003501892B29F060E080910C010E94C20504
:10023000BE01C8010E94A100DF91CF911F910F91D3
:1002400008950F931F93CF93DF938C01EB0160E030
:1002500080910E010E94C205809134019091350178
:10026000892B29F060E080910C010E94C205BE013B
:10027000C8010E94C900DF91CF911F910F9108958D
:100280000F931F93CF93DF938C01EB0161E080917B
:100290000E010E94C2058091340190913501892B95
:1002A00029F060E080910C010E94C205BE01C801E6
:1002B0000E94C900DF91CF911F910F910895EF9295
:1002C000FF920F931F93CF93DF937C01EB0100E02C
:1002D00010E009C0AC0FBD1F6C91772767FD7095CA
:1002E000C7010E944001A02FBB270F5F1F4FFE01D7
:1002F00001900020E9F73197EC1BFD0BAE17BF070B
:1003000048F3DF91CF911F910F91FF90EF900895E7
:1003100061E070E00E94210161E070E080E090E027
:100320000E9473040895CF93DF93EC0161E0809104
:100330000A010E945B0561E080910E010E945B054D
:100340008091340190913501892B29F061E08091F1
:100350000C010E945B0561E0809102010E945B0537
:1003600061E0809104010E945B0561E080910601DB
:100370000E945B0561E0809108010E945B0562E3D9
:1003800070E080E090E00E94730463E070E0CE01D2
:100390000E94020165E070E080E090E00E9473043A
:1003A00063E070E0CE010E94020184E690E00E94CA
:1003B000950463E070E0CE010E94020165E070E008
:1003C00080E090E00E94730462E070E0CE010E9441
:1003D000020162E070E0CE010E9402016091000122
:1003E000709101016150704023E0660F771F2A95DC
:1003F000E1F7CE010E9402018CE390E00E94950497
:100400006CE070E0CE010E9421018CE390E00E943C
:10041000950461E070E0CE010E94210163E070E08C
:1004200080E090E00E94730466E070E0CE010E94DC
:10043000210161E070E080E090E00E947304DF91B0
:10044000CF910895CF92DF92EF92FF920F931F9377
:10045000CF93DF93CDB7DEB728970FB6F894DEBF02
:100460000FBECDBF7C018B016A0162E070E00E948B
:100470002101DE011196E0E1F1E088E001900D92AA
:100480008150E1F7000F111F0C0F1D1F015010408C
:10049000F801608171816C0D7D1D60587F4FC7012F
:1004A0000E94210128960FB6F894DEBF0FBECDBF83
:1004B000DF91CF911F910F91FF90EF90DF90CF9040
:1004C0000895CF92DF92EF92FF920F931F93CF93F5
:1004D000DF936C017B018A01C0E0D0E00DC068E1D0
:1004E00070E0C6010E942101B801882777FD809540
:1004F000982F0E9473042196CE15DF0584F3DF91B7
:10050000CF911F910F91FF90EF90DF90CF900895C2
:10051000DF92EF92FF920F931F93CF93DF93CDB7AC
:10052000DEB72A970FB6F894DEBF0FBECDBF7B01B2
:10053000DE011196E0E2F1E02AE001900D922150F7
:10054000E1F7FC01EE56FF4F249182589F4FFC01CA
:100550009491E22FFF27EE0FFF1FEC0FFD1F01808C
:10056000F281E02D8F01005E1F4F80A1D92E892BD3
:1005700080A38AE090E00E949504F894F8018081BD
:100580009D2D9095892380830000000000000000CD
:10059000000000000000000000000000000000005B
:1005A000000000000000000000000000000000004B
:1005B000000000000000000000000000000000003B
:1005C000000000000000000000000000000000002B
:1005D000000000000000000000000000000000001B
:1005E000000000000000000020E030E0E0FE04C059
:1005F000F80180818D2903C0F801808189238083DF
:1006000000000000000000000000000000000000EA
:1006100000000000000000000000000000000000DA
:1006200000000000000000000000000000000000CA
:1006300000000000000000000000000000000000BA
:1006400000000000000000000000000000000000AA
:10065000000000000000000000000000000000009A
:10066000F594E7942F5F3F4F2830310509F0BECF56
:10067000F80180818D29808378942A960FB6F894AA
:10068000DEBF0FBECDBFDF91CF911F910F91FF90C5
:10069000EF90DF900895EF92FF920F931F9361E028
:1006A0008DE00E945B0561E080911E010E945B0568
:1006B00000E411E0C8010E949301C8010E94880172
:1006C00080911A010E94EC0490933D0180933C01BB
:1006D0009F938F938AE291E09F938F9336E3E32E6B
:1006E00031E0F32EFF92EF920E940D066EE271E070
:1006F000C8010E945F014AE050E061E070E0C8017B
:100700000E942202B701C8010E945F018DB79EB707
:1007100006960FB6F8949EBF0FBE8DBF1F910F9126
:10072000FF90EF9008950F931F93CF93DF938091E5
:100730001A010E94EC0490933D0180933C012091AA
:100740003A0130913B018217930729F14AE050E0CA
:1007500061E070E080E491E00E94220280913C011F
:1007600090913D019F938F938AE291E09F938F93A5
:1007700006E311E01F930F930E940D06B80180E479
:1007800091E00E945F018DB79EB706960FB6F89470
:100790009EBF0FBE8DBF80913C0190913D01909313
:1007A0003B0180933A0160E080911E010E94C205E6
:1007B00060913C0170913D01882777FD8095982FCD
:1007C0000E94730460E070E080911E0190911F010F
:1007D0000E948802C0E0D2E060913E0170913F012A
:1007E00080911E0190911F010E9488022197A1F71C
:1007F00080911C0190911D0120913E0130913F019B
:10080000280F391F30933F0120933E0121153105F8
:1008100019F02F3F310539F4909581959F4F9093B2
:100820001D0180931C01DF91CF911F910F910895BD
:10083000CFEFD4E0DEBFCDBF0E94A2040E944B03E5
:100840000E949303FDCF6F5F7F4F41F4019731F416
:1008500062E070E080E491E00E94F20008956FEFA2
:100860007FEF81E090E00E94230408951F920F9291
:100870000FB60F9211248F939F93AF93BF938091E4
:10088000410190914201A0914301B0914401019630
:10089000A11DB11D8093410190934201A09343019A
:1008A000B0934401BF91AF919F918F910F900FBE74
:1008B0000F901F90189560914101709142018091B5
:1008C00043019091440127E0660F771F881F991F0D
:1008D0002A95D1F72DE730E040E050E00E945F0913
:1008E000CA01B9010895AF92BF92CF92DF92EF9201
:1008F000FF920F931F935B016C010E945B047B01CD
:100900008C010E945B046E197F09800B910B6A15A4
:100910007B058C059D05A8F31F910F91FF90EF902B
:10092000DF90CF90BF90AF900895019751F0880F5E
:10093000991F880F991F02972FB7F8940197F1F725
:100940002FBF0895789410924101109242011092A5
:1009500043011092440184B5826084BD84B58160F6
:1009600084BD85B5826085BD85B5816085BDEEE6B7
:10097000F0E0808181608083E1E8F0E08081826046
:100980008083808181608083E0E8F0E08081816005
:100990008083E1EBF0E0808184608083E0EBF0E035
:1009A000808181608083ECE7F0E080818F778083B5
:1009B000808180648083EAE7F0E0808184608083C6
:1009C0008081826080838081816080838081806873
:1009D00080831092C100089590917C00907F8F7069
:1009E000982B90937C0080917A00806480937A00A9
:1009F00080917A0086FDFCCF20917800809179006B
:100A00009927982F88273327822B932B08951F939C
:100A1000CF93DF93182FEB0161E00E945B05E12F7C
:100A2000FF27E659FF4F8491833051F48091800075
:100A3000806880938000D0938900C093880037C07D
:100A4000843051F480918000806280938000D09344
:100A50008B00C0938A002BC0813029F484B5806854
:100A600084BDC7BD24C0823029F484B5806284BDB2
:100A7000C8BD1DC0863041F48091B000806880936D
:100A8000B000C093B30013C0873041F48091B00030
:100A900080628093B000C093B40009C0C038D10513
:100AA00014F460E001C061E0812F0E94C205DF9173
:100AB000CF911F910895282F3327C90182589F4F46
:100AC000FC0194912E563F4FF9018491882381F0C7
:100AD000E82FFF27E055FF4FE491FF27662329F415
:100AE000808190958923808308958081892B8083DC
:100AF0000895482F5527CA0186599F4FFC0124911C
:100B0000CA0182589F4FFC0194914E565F4FFA01E3
:100B100034913323A1F1222331F1233021F4809148
:100B200080008F7705C0243031F4809180008F7D64
:100B30008093800018C0213019F484B58F7704C0E9
:100B4000223021F484B58F7D84BD0DC0263021F480
:100B50008091B0008F7705C0273029F48091B000D4
:100B60008F7D8093B000E32FFF27EA55FF4FE4917C
:100B7000FF278081892319F081E090E0089580E0CB
:100B800090E00895482F5527CA0186599F4FFC01D0
:100B90002491CA0182589F4FFC0194914E565F4F99
:100BA000FA0134913323C1F1222331F1233021F4AE
:100BB000809180008F7705C0243031F480918000CF
:100BC0008F7D8093800018C0213019F484B58F7711
:100BD00004C0223021F484B58F7D84BD0DC0263041
:100BE00021F48091B0008F7705C0273029F48091DF
:100BF000B0008F7D8093B000E32FFF27E555FF4FB6
:100C0000E491FF27662329F48081909589238083CE
:100C100008958081892B808308950F931F93CF932C
:100C2000DF93CDB7DEB760970FB6F894DEBF0FBE87
:100C3000CDBF0F89188D698D7A8D86E08E831C83D8
:100C40000B838FEF9FE798878F83AE01455E5F4FE1
:100C50005A834983CE0103960E943F0629853A852F
:100C6000020F131FF801108260960FB6F894DEBFD2
:100C70000FBECDBFDF91CF911F910F9108952F929D
:100C80003F924F925F926F927F928F929F92AF921C
:100C9000BF92CF92DF92EF92FF920F931F93CF9369
:100CA000DF93CDB7DEB762970FB6F894DEBF0FBE05
:100CB000CDBF8824992454012C017A8B698B3A0189
:100CC000FC0117821682838181FD6EC28FEF9FEF38
:100CD00091C229893A892F5F3F4F3A8B298BC0FEF9
:100CE00066C2832D80538A30E0F430E3331641F43A
:100CF0008D85882329F4C3FC03C0E0E0F1E07BC0CC
:100D00008AE0FD85F802C0011124380E232D2053FE
:100D10002D8727FF02C03FE73D87C3FC5AC22D84C1
:100D200058C2C601B3E096958795BA95E1F78170F0
:100D30009070282F882329F08D85882311F491E065
:100D40009D87832D992787FD9095E7E6E31564F14C
:100D5000F5E63F160CF065C033E5331609F48FC095
:100D60003315B4F0EBE23E1609F43FC0E31544F04E
:100D7000F0E23F16F1F123E2321609F012C241C04F
:100D80003DE23316D9F1EEE23E1609F00AC23EC04A
:100D9000F3E63F1609F44BC0F3150CF48AC028E5BE
:100DA000321609F0FEC1B5C030E7331609F4ABC006
:100DB00033155CF0ECE63E1679F1FFE63F1691F054
:100DC00029E6321609F0EDC174C035E7331609F48F
:100DD000A2C0E8E73E1609F49CC0F3E73F1609F00D
:100DE000E0C12DC028E0288B96C080E190E0C82AA1
:100DF000D92AE0E2F0E0CE2ADF2AEBC120E830E099
:100E00000DC080E490E0C82AD92AE3C1E8E0F0E010
:100E1000CE2ADF2A1D86DDC124E030E0C22AD32A93
:100E2000D8C1AFE38A2E2A94F3E63F2E44C1F301E2
:100E300080802A9422E030E0620E731E3CC1830160
:100E40000E5F1F4FF301A081B1814D01222351F0AC
:100E5000FD856F2F772767FD7095CD010E942709CB
:100E6000888B07C0FD0101900020E9F73197EA1B4C
:100E7000E88B2889221A3801E3E73E2E1CC1830142
:100E80000E5F1F4FF301808191814C01222341F0BD
:100E9000FD856F2F772767FD70950E941C0902C0A2
:100EA0000E941309888B2889221A380173E5372E8E
:100EB00002C1C2FE08C0F30180819181A281B38189
:100EC00024E030E009C0F30180819181AA2797FDD9
:100ED000A095BA2F22E030E0620E731E4C015D0136
:100EE000B7FF0CC082E090E0C82AD92AB094A09441
:100EF00090948094811C911CA11CB11CEFEBFFEF1E
:100F0000CE22DF2221C020E430E0C22AD32A68E7C3
:100F1000362E30E1388BC2FE08C0F301808191810A
:100F2000A281B38124E030E007C0F3018081918188
:100F3000AA27BB2722E030E0620E731E4C015D0140
:100F40008FEC9FEFC822D92285017401FE013196F2
:100F5000FF87EE87F8898F2E9924AA24BB24C80125
:100F6000B701A50194010E945F096A301CF0630D6E
:100F7000615201C0605DEE85FF856193FF87EE875A
:100F8000C801B701A50194010E945F0979018A0196
:100F9000211531054105510511F788249924540183
:100FA000CE0101964E85481B842EC6018273907037
:100FB000892B09F02A94C6FE07C0F889F03111F494
:100FC00082E001C081E0281AC3FE12C08D85282F5F
:100FD000332727FD3095842F9927821793072CF00C
:100FE000E7EFFFEFCE22DF2203C0FD85F41BFD8774
:100FF000C60153E0969587955A95E1F781709070F8
:10100000082F882319F02D85221A01C0241AC60141
:1010100080789170892B69F4822D06C0B20180E23C
:1010200090E00E943209812F182F11501816B4F346
:10103000212EC1FE04C0B2018DE290E00BC0C4FEBF
:1010400004C0B2018BE290E005C0C5FE05C0B2014C
:1010500080E290E00E943209C6FE0FC0B20180E338
:1010600090E00E9432093889303139F4B201832D81
:10107000992787FD90950E943209D0FE0DC0822DE0
:1010800006C0B20180E390E00E943209812F182F40
:1010900011501816B4F3212E002369F02D8506C0D7
:1010A000B20180E390E00E943209212F122F1150EB
:1010B0001216B4F31D87C601880F892F881F990B5C
:1010C000919521E0C22ED12CC822D92280FD0DC0DD
:1010D000822D06C0B20180E290E00E943209812F89
:1010E000182F11501816B4F3212E83E6381641F448
:1010F000B201882D992787FD90950E94320941C041
:1011000093E7391691F48401FF240AC0F801819114
:101110008F01B201992787FD90950E943209FA94B8
:1011200088898195F81691F716C023E5321619F0D3
:101130000E851F851FC08401FF2409C0F80184911A
:10114000B20199270E9432090F5F1F4FFA948889D4
:101150008195F81699F7F889FF0DF150F88B480141
:1011600010C0F80182918F01B201992787FD9095F7
:101170000E943209CE0101960817190791F71F87BF
:101180000E87CD2889F0822D06C0B20180E290E062
:101190000E943209812F182F11501816B4F3212EF6
:1011A00003C0B2010E943209CC24DD2412C0F5E252
:1011B0003F1641F481E0C82ED12C1D8622242AE05E
:1011C000288B07C0B201832D992787FD90950E9437
:1011D0003209F201838183FF04C0E989FA893490DE
:1011E00003C0E989FA893080332009F072CDF20119
:1011F0008681978162960FB6F894DEBF0FBECDBF91
:10120000DF91CF911F910F91FF90EF90DF90CF90E2
:10121000BF90AF909F908F907F906F905F904F9016
:101220003F902F900895FC0105900020E9F78095EC
:1012300090958E0F9F1F0895FC010590615070409E
:101240000110D8F7809590958E0F9F1F0895FC018F
:101250006150704001900110D8F7809590958E0FE5
:101260009F1F08950F931F93CF93DF938C01EB0182
:101270008B81992781FF1BC082FF0DC02E813F818A
:101280008C819D812817390764F4E881F9810193E5
:10129000F983E88306C0E885F985802F0995892BB5
:1012A00031F48E819F8101969F838E8302C00FEF60
:1012B0001FEFC801DF91CF911F910F910895A1E217
:1012C0001A2EAA1BBB1BFD010DC0AA1FBB1FEE1FC0
:1012D000FF1FA217B307E407F50720F0A21BB30B0B
:1012E000E40BF50B661F771F881F991F1A9469F787
:1012F00060957095809590959B01AC01BD01CF01E3
:0E1300000895EE0FFF1F0590F491E02D099463
:10130E0002000700080009000A0002000B000C0092
:10131E0000004000140054000D0001000300030003
:10132E0000000000050008000B0025346400506F1B
:04133E0074693A0094
:00000001FF
