:100000000C945A000C9475000C9475000C947500B7
:100010000C9475000C9475000C9475000C9475008C
:100020000C9475000C9475000C9475000C9475007C
:100030000C9475000C9475000C9475000C9475006C
:100040000C94AE000C9475000C9475000C94750023
:100050000C9475000C9475000C9475000C9475004C
:100060000C9475000C94750000000007000201005C
:100070000003040600000000000000000102040864
:100080001020408001020408102001020408102002
:10009000040404040404040402020202020203032E
:1000A000030303030000232629000025282B00005A
:1000B00024272A0011241FBECFEFD4E0DEBFCDBF1E
:1000C00011E0A0E0B1E0E0E7F4E002C005900D929D
:1000D000A630B107D9F711E0A6E0B1E001C01D924A
:1000E000AC30B107E1F70C94A3000C94000061E080
:1000F000809104010E94640161E0809102010E94EC
:10010000640160E0809100010E9464010895809183
:1001100000010E94820190930701809306010197DC
:1001200039F460E0809104010E94CB0160E006C0D8
:1001300061E0809104010E94CB0161E080910201A5
:100140000E94CB010895CFEFD4E0DEBFCDBF0E9467
:100150001A010E9477000E948700FDCF1F920F9224
:100160000FB60F9211248F939F93AF93BF938091FB
:10017000080190910901A0910A01B0910B0101962B
:10018000A11DB11D8093080190930901A0930A015C
:10019000B0930B01BF91AF919F918F910F900FBEC4
:1001A0000F901F901895609108017091090180913E
:1001B0000A0190910B0127E0660F771F881F991F96
:1001C0002A95D1F72DE730E040E050E00E9416027A
:1001D000CA01B9010895AF92BF92CF92DF92EF9218
:1001E000FF920F931F935B016C010E94D3007B0170
:1001F0008C010E94D3006E197F09800B910B6A1548
:100200007B058C059D05A8F31F910F91FF90EF9042
:10021000DF90CF90BF90AF900895019751F0880F75
:10022000991F880F991F02972FB7F8940197F1F73C
:100230002FBF08957894109208011092090110922E
:100240000A0110920B0184B5826084BD84B581607F
:1002500084BD85B5826085BD85B5816085BDEEE6CE
:10026000F0E0808181608083E1E8F0E0808182605D
:100270008083808181608083E0E8F0E0808181601C
:100280008083E1EBF0E0808184608083E0EBF0E04C
:10029000808181608083ECE7F0E080818F778083CC
:1002A000808180648083EAE7F0E0808184608083DD
:1002B000808182608083808181608083808180688A
:1002C00080831092C1000895282F3327C9018458D4
:1002D0009F4FFC01949120573F4FF901849188234F
:1002E00081F0E82FFF27E255FF4FE491FF276623B7
:1002F00029F4808190958923808308958081892BBA
:1003000080830895482F5527CA0188599F4FFC01C3
:100310002491CA0184589F4FFC01949140575F4F2C
:10032000FA0134913323A1F1222331F1233021F456
:10033000809180008F7705C0243031F48091800057
:100340008F7D8093800018C0213019F484B58F7799
:1003500004C0223021F484B58F7D84BD0DC02630C9
:1003600021F48091B0008F7705C0273029F4809167
:10037000B0008F7D8093B000E32FFF27EC55FF4F37
:10038000E491FF278081892319F081E090E00895AE
:1003900080E090E00895482F5527CA0188599F4F63
:1003A000FC012491CA0184589F4FFC01949140574D
:1003B0005F4FFA0134913323C1F1222331F123300D
:1003C00021F4809180008F7705C0243031F4809132
:1003D00080008F7D8093800018C0213019F484B58F
:1003E0008F7704C0223021F484B58F7D84BD0DC089
:1003F000263021F48091B0008F7705C0273029F492
:100400008091B0008F7D8093B000E32FFF27E755E8
:10041000FF4FE491FF27662329F48081909589237B
:10042000808308958081892B80830895A1E21A2E0C
:10043000AA1BBB1BFD010DC0AA1FBB1FEE1FFF1F88
:10044000A217B307E407F50720F0A21BB30BE40BD8
:10045000F50B661F771F881F991F1A9469F760951F
:100460007095809590959B01AC01BD01CF010895D9
:06047000050006000D006E
:00000001FF
