:100000000C945A000C9475000C9475000C947500B7
:100010000C9475000C9475000C9475000C9475008C
:100020000C9475000C9475000C9475000C9475007C
:100030000C9475000C9475000C9475000C9475006C
:100040000C949C010C9475000C9475000C94750034
:100050000C9475000C9475000C9475000C9475004C
:100060000C9475000C94750000000007000201005C
:100070000003040600000000000000000102040864
:100080001020408001020408102001020408102002
:10009000040404040404040402020202020203032E
:1000A000030303030000232629000025282B00005A
:1000B00024272A0011241FBECFEFD4E0DEBFCDBF1E
:1000C00011E0A0E0B1E0EAE2F7E002C005900D9295
:1000D000A231B107D9F711E0A2E1B1E001C01D9250
:1000E000AA31B107E1F70C9491010C940000DF9262
:1000F000EF92FF920F931F93CF93DF93CDB7DEB7AD
:100100002A970FB6F894DEBF0FBECDBF7B01DE018C
:100110001196E8E0F1E02AE001900D922150E1F71C
:10012000FC01E057FF4F249184589F4FFC019491AC
:10013000E22FFF27EE0FFF1FEC0FFD1F0180F28162
:10014000E02D8F01005E1F4F80A1D92E892B80A347
:100150008AE090E00E94FB01F894F80180819D2DD7
:1001600090958923808300000000000000000000BB
:10017000000000000000000000000000000000007F
:10018000000000000000000000000000000000006F
:10019000000000000000000000000000000000005F
:1001A000000000000000000000000000000000004F
:1001B000000000000000000000000000000000003F
:1001C00000000000000020E030E0E0FE04C0F80184
:1001D00080818D2903C0F8018081892380830000FC
:1001E000000000000000000000000000000000000F
:1001F00000000000000000000000000000000000FF
:1002000000000000000000000000000000000000EE
:1002100000000000000000000000000000000000DE
:1002200000000000000000000000000000000000CE
:100230000000000000000000000000000000F59435
:10024000E7942F5F3F4F2830310509F0BECFF8010A
:1002500080818D29808378942A960FB6F894DEBF2A
:100260000FBECDBFDF91CF911F910F91FF90EF9007
:10027000DF90089561E0809106010E94C10261E073
:10028000809100010E94C10260E0809100010E9403
:1002900028030895CF93DF93809102010E945202B8
:1002A00090931301809312018F3F910549F044F020
:1002B00061E0809100010E9428038FEF90E009C067
:1002C00060E0809100010E942803809112019091CA
:1002D0001301909315018093140160E08091060151
:1002E0000E9428036AE070E080E090E00E94D9015B
:1002F00060E070E080910601909107010E94770014
:10030000C0E0D2E060911401709115018091060166
:10031000909107010E9477002197A1F7DF91CF917B
:100320000895CFEFD4E0DEBFCDBF0E9408020E9447
:100330003A010E944A01FDCF1F920F920FB60F9211
:1003400011248F939F93AF93BF9380911601909147
:100350001701A0911801B09119010196A11DB11DBD
:100360008093160190931701A0931801B09319017F
:10037000BF91AF919F918F910F900FBE0F901F90E3
:100380001895609116017091170180911801909154
:10039000190127E0660F771F881F991F2A95D1F74B
:1003A0002DE730E040E050E00E947303CA01B9013C
:1003B0000895AF92BF92CF92DF92EF92FF920F9388
:1003C0001F935B016C010E94C1017B018C010E94A3
:1003D000C1016E197F09800B910B6A157B058C0595
:1003E0009D05A8F31F910F91FF90EF90DF90CF90A4
:1003F000BF90AF900895019751F0880F991F880F13
:10040000991F02972FB7F8940197F1F72FBF08951E
:100410007894109216011092170110921801109200
:10042000190184B5826084BD84B5816084BD85B5C1
:10043000826085BD85B5816085BDEEE6F0E0808196
:1004400081608083E1E8F0E0808182608083808148
:1004500081608083E0E8F0E0808181608083E1EB6F
:10046000F0E0808184608083E0EBF0E08081816057
:100470008083ECE7F0E080818F77808380818064E7
:100480008083EAE7F0E080818460808380818260FD
:1004900080838081816080838081806880831092E6
:1004A000C100089590917C00907F8F70982B90935D
:1004B0007C0080917A00806480937A0080917A0039
:1004C00086FDFCCF20917800809179009927982FA4
:1004D00088273327822B932B08951F93CF93DF9385
:1004E000182FEB0161E00E94C102E12FFF27E859BC
:1004F000FF4F8491833051F4809180008068809315
:100500008000D0938900C093880037C0843051F4B4
:1005100080918000806280938000D0938B00C09394
:100520008A002BC0813029F484B5806884BDC7BDA2
:1005300024C0823029F484B5806284BDC8BD1DC04A
:10054000863041F48091B00080688093B000C09301
:10055000B30013C0873041F48091B0008062809373
:10056000B000C093B40009C0C038D10514F460E0F5
:1005700001C061E0812F0E942803DF91CF911F917C
:100580000895282F3327C90184589F4FFC01949167
:1005900020573F4FF9018491882381F0E82FFF27EE
:1005A000E255FF4FE491FF27662329F4808190955F
:1005B0008923808308958081892B80830895482F23
:1005C0005527CA0188599F4FFC012491CA018458BC
:1005D0009F4FFC01949140575F4FFA0134913323B0
:1005E000A1F1222331F1233021F4809180008F7713
:1005F00005C0243031F4809180008F7D809380008D
:1006000018C0213019F484B58F7704C0223021F44A
:1006100084B58F7D84BD0DC0263021F48091B0005B
:100620008F7705C0273029F48091B0008F7D8093AB
:10063000B000E32FFF27EC55FF4FE491FF278081A7
:10064000892319F081E090E0089580E090E008951A
:10065000482F5527CA0188599F4FFC012491CA0190
:1006600084589F4FFC01949140575F4FFA01349199
:100670003323C1F1222331F1233021F48091800012
:100680008F7705C0243031F4809180008F7D809376
:10069000800018C0213019F484B58F7704C022304F
:1006A00021F484B58F7D84BD0DC0263021F4809166
:1006B000B0008F7705C0273029F48091B0008F7D7E
:1006C0008093B000E32FFF27E755FF4FE491FF270A
:1006D000662329F480819095892380830895808101
:1006E000892B80830895A1E21A2EAA1BBB1BFD0152
:1006F0000DC0AA1FBB1FEE1FFF1FA217B307E40701
:10070000F50720F0A21BB30BE40BF50B661F771F58
:10071000881F991F1A9469F7609570958095909538
:0A0720009B01AC01BD01CF0108955B
:10072A000D00020003000B00000000000500080095
:02073A000B00B2
:00000001FF
