:100000000C9464000C948C000C948C000C948C0068
:100010000C948C000C948C000C948C000C948C0030
:100020000C948C000C948C000C948C000C948C0020
:100030000C948C000C948C000C948C000C948C0010
:100040000C94BB0A0C948C000C94CB090C948C007F
:100050000C948C000C948C000C948C000C948C00F0
:100060000C948C000C948C000000000024002700ED
:100070002A0000000000250028002B0000000000DE
:1000800023002600290004040404040404040202DA
:100090000202020203030303030301020408102007
:1000A0004080010204081020010204081020000012
:1000B0000007000201000003040600000000000029
:1000C00000002B066307840A11241FBECFEFD4E083
:1000D000DEBFCDBF11E0A0E0B1E0E6E9F9E102C08A
:1000E00005900D92AA36B107D9F712E0AAE6B1E061
:1000F00001C01D92A033B107E1F710E0C8ECD0E0D9
:1001000004C02297FE010E948E0CC23CD107C9F7A1
:100110000E94C4090C94C90C0C9400000F931F9307
:10012000CF93DF93689F8001699F100D789F100D1A
:100130001124C8010E94AA00EC01009729F060E098
:1001400070E0A8010E94AC01CE01DF91CF911F9118
:100150000F910895CF93DF93BC018230910510F485
:1001600062E070E0A0912E02B0912F02ED01E0E07C
:10017000F0E040E050E021C0888199818617970720
:1001800069F48A819B81309719F09383828304C03C
:1001900090932F0280932E02FE0134C068177907D6
:1001A00038F44115510519F08417950708F4AC018E
:1001B000FE018A819B819C01E9012097E9F64115A6
:1001C0005105A9F1CA01861B970B049708F4BA01DF
:1001D000E0E0F0E02AC08D919C911197841795077B
:1001E000F9F46417750781F412968D919C91139719
:1001F000309719F09383828304C090932F028093E9
:100200002E02FD0132964CC0CA01861B970BFD01E0
:10021000E80FF91F6193719302978D939C9340C0EF
:10022000FD01828193819C01D9011097A1F68091F3
:100230002C0290912D02892B41F480912B019091F9
:100240002C0190932D0280932C0240912D0150910E
:100250002E014115510541F44DB75EB7809129013A
:1002600090912A01481B590B20912C0230912D02AC
:10027000CA01821B930B8617970780F0AB014E5F74
:100280005F4F8417950750F0420F531F50932D0274
:1002900040932C02F9016193719302C0E0E0F0E019
:1002A000CF01DF91CF910895CF93DF93009709F4A9
:1002B00050C0EC0122971B821A82A0912E02B091AD
:1002C0002F02109709F140E050E0AC17BD0708F18C
:1002D000BB83AA83FE0121913191E20FF31FAE1778
:1002E000BF0779F48D919C911197280F391F2E5FCC
:1002F0003F4F3983288312968D919C9113979B834E
:100300008A834115510571F4D0932F02C0932E02B8
:1003100020C012968D919C911397AD01009711F01A
:10032000DC01D3CFFA01D383C28321913191E20F53
:10033000F31FCE17DF0769F488819981280F391FD1
:100340002E5F3F4FFA01318320838A819B81938303
:100350008283DF91CF910895DC0101C06D934150FC
:100360005040E0F70895AEE0B0E0E9EBF1E00C9426
:10037000A00C0D891E8986E08C831A8309838FEF78
:100380009FE79E838D839E01275E3F4FCE0101969E
:100390006F89788DA9010E94D7012F813885020FBE
:1003A000131FF80110822E96E4E00C94BC0CABE015
:1003B000B0E0EDEDF1E00C94920C3C012B015A0100
:1003C000FC0117821682838181FD03C06FEF7FEFEE
:1003D000C6C19AE0892E1E010894211C311CF3012C
:1003E0002381F20123FD859123FF81912F01882331
:1003F00009F4B2C1853239F423FD859123FF81913F
:100400002F01853229F490E0B3010E94CA03E7CF9F
:10041000982FFF24EE249924FFE1FF15D0F09B32A2
:1004200069F09C3228F4903259F0933291F40EC066
:100430009D3249F0903369F441E024C052E0F52A3E
:1004400084E0F82A28C098E0F92A25C0E0E1FE2AD5
:1004500022C0F7FC29C0892F80538A3070F4F6FE41
:1004600005C0989C902C1124980E15C0E89CE02C97
:100470001124E80EF0E2FF2A0EC09E3229F4F6FCA9
:100480006BC140E4F42A07C09C3619F450E8F52A01
:1004900002C0983649F4F20123FD959123FF919112
:1004A0002F01992309F0B8CF892F8554833018F094
:1004B0008052833038F444E050E0A40EB51E5FE370
:1004C00059830FC0933631F0933779F0933509F0A3
:1004D00056C020C0F5018081898342E050E0A40E1F
:1004E000B51E610101E010E012C0F501C080D180AD
:1004F000F6FC03C06FEF7FEF02C0692D70E042E0B1
:1005000050E0A40EB51EC6010E94BF038C015FE738
:10051000F52214C0F501C080D180F6FC03C06FEF56
:100520007FEF02C0692D70E042E050E0A40EB51EDE
:10053000C6010E94B4038C0150E8F52AF3FE07C0FF
:100540001AC080E290E0B3010E94CA03EA948E2DA3
:1005500090E008171907A8F30EC0F601F7FC859183
:10056000F7FE81916F0190E0B3010E94CA03E11090
:10057000EA94015010400115110579F7EAC094364C
:1005800011F0993669F5F7FE08C0F5012081318137
:100590004281538184E090E00AC0F501808191811D
:1005A0009C01442737FD4095542F82E090E0A80E2F
:1005B000B91E9FE6F92257FF09C050954095309526
:1005C00021953F4F4F4F5F4FE0E8FE2ACA01B90126
:1005D000A1012AE030E00E94F603D82ED21840C0D4
:1005E000953729F41F2D1F7E2AE030E01DC01F2DF6
:1005F000197F9F3661F0903720F4983509F0ACC030
:100600000FC0903739F0983709F0A6C004C028E031
:1006100030E00AC0106114FD146020E130E004C035
:1006200014FD166020E132E017FF08C0F50160817B
:1006300071818281938144E050E008C0F50180819E
:100640009181BC0180E090E042E050E0A40EB51E34
:10065000A1010E94F603D82ED2188FE7F82EF122BE
:10066000F6FE0BC05EEFF522D91438F4F4FE07C095
:10067000F2FC05C08FEEF82202C01D2D01C0192D1D
:10068000F4FE0DC0FE01ED0DF11D8081803319F4E3
:1006900099EEF92208C01F5FF2FE05C003C08F2D3E
:1006A000867809F01F5F0F2DF3FC14C0F0FE0FC019
:1006B0001E1510F09D2C0BC09D2C9E0C911A1E2D0A
:1006C00006C080E290E0B3010E94CA031F5F1E15BE
:1006D000C0F304C01E1510F4E11A01C0EE2404FF9B
:1006E0000FC080E390E0B3010E94CA0302FF1DC067
:1006F00001FD03C088E790E00EC088E590E00BC0E4
:10070000802F867891F001FF02C08BE201C080E269
:10071000F7FC8DE290E0B3010E94CA0306C080E3BB
:1007200090E0B3010E94CA039A94D914C0F3DA94FA
:10073000F101ED0DF11D808190E0B3010E94CA032B
:10074000DD20A9F706C080E290E0B3010E94CA0351
:10075000EA94EE20C1F743CEF30166817781CB01A5
:100760002B96E2E10C94AE0CFC01059061507040B8
:100770000110D8F7809590958E0F9F1F0895FC016A
:100780006150704001900110D8F7809590958E0FC0
:100790009F1F08950F931F93CF93DF938C01EB015D
:1007A0008B8181FF1BC082FF0DC02E813F818C8118
:1007B0009D812817390764F4E881F9810193F98351
:1007C000E88306C0E885F985802F0995892B31F4E7
:1007D0008E819F8101969F838E8302C00FEF1FEF52
:1007E000C801DF91CF911F910F910895FA01AA27B7
:1007F000283051F1203181F1E8946F936E7F6E5F64
:100800007F4F8F4F9F4FAF4FB1E03ED0B4E03CD011
:10081000670F781F891F9A1FA11D680F791F8A1FF4
:10082000911DA11D6A0F711D811D911DA11D20D05B
:1008300009F468943F912AE0269F11243019305D15
:100840003193DEF6CF010895462F4770405D419306
:10085000B3E00FD0C9F7F6CF462F4F70405D4A3353
:1008600018F0495D31FD4052419302D0A9F7EACF1B
:10087000B4E0A6959795879577956795BA95C9F74A
:1008800000976105710508959B01AC010A2E06943D
:100890005795479537952795BA95C9F7620F731FF6
:1008A000841F951FA01D089570933E0160933D0124
:1008B000615070406230710530F081E090E09093BB
:1008C0003E0180933D0108958091330160E00E94D4
:1008D000DB0B81E090E00E94550B8091330161E0D9
:1008E0000E94DB0B81E090E00E94550B8091330168
:1008F00060E00E94DB0B61E070E080E090E00E942D
:100900002B0B0895EF92FF920F931F93CF93DF93DA
:100910007C018B010F701070C0913501D0913601B0
:1009200008C0602F61708C2F0E94DB0B1595079516
:10093000219680913B0190913C018C179D078CF78B
:10094000C7010E946404DF91CF911F910F91FF9026
:10095000EF900895EF92FF920F931F938C017B010C
:1009600094E0759567959A95E1F7C8010E94820415
:100970008FE0E822FF24C801B7010E9482041F9182
:100980000F91FF90EF9008950F931F93CF93DF93F4
:10099000EC018B0180912F0160E00E94DB0B8091C4
:1009A0006A0190916B01892B29F08091310160E0FF
:1009B0000E94DB0BCE01B8010E948204DF91CF912F
:1009C0001F910F9108950F931F93CF93DF93EC0125
:1009D0008B0180912F0161E00E94DB0B80916A0105
:1009E00090916B01892B29F08091310160E00E9488
:1009F000DB0BCE01B8010E94AA04DF91CF911F91B9
:100A00000F910895CF92DF92FF920F931F93CF9390
:100A1000DF936C018B01FF240AC0C00FD11F6881D6
:100A2000772767FD7095C6010E94E304F394CF2DEC
:100A3000D0E0F80101900020E9F73197E01BF10BBD
:100A4000CE17DF0750F3DF91CF911F910F91FF90E9
:100A5000DF90CF9008950F931F93CF93DF93EC0116
:100A60008B0180912F0160E00E94DB0B80916A0175
:100A700090916B01892B29F08091310160E00E94F7
:100A8000DB0BCE01B8010E94AA04DF91CF911F9128
:100A90000F910895EF92FF920F931F93CF93DF93DF
:100AA0007C01EB018A0162E070E00E942B058091DD
:100AB0003D0190913E01019721F0229711F4085DCC
:100AC0001F4FC0E0D0E006C0C70164E170E00E94A3
:100AD0002B052196C017D107BCF3DF91CF911F9151
:100AE0000F91FF90EF900895CF93DF93EC018091E9
:100AF000330161E00E94BB0B80912F0161E00E94F5
:100B0000BB0B80916A0190916B01892B29F0809138
:100B1000310161E00E94BB0B8091350161E00E94D0
:100B2000BB0B8091370161E00E94BB0B80913901C2
:100B300061E00E94BB0B80913B0161E00E94BB0B16
:100B400062E370E080E090E00E942B0BCE0163E056
:100B500070E00E94C40465E070E080E090E00E94D4
:100B60002B0BCE0163E070E00E94C40484E690E0A9
:100B70000E94550BCE0163E070E00E94C40465E062
:100B800070E080E090E00E942B0BCE0162E070E00C
:100B90000E94C404CE0162E070E00E94C40460912F
:100BA0003D0170913E016150704023E0660F771F58
:100BB0002A95E1F7CE010E94C4048CE390E00E94E4
:100BC000550BCE016CE070E00E942B058CE390E0A9
:100BD0000E94550BCE0161E070E00E942B0563E09E
:100BE00070E080E090E00E942B0BCE0166E070E0A8
:100BF0000E942B0561E070E080E090E00E942B0BEA
:100C0000DF91CF91089561E070E00E942B0561E0D3
:100C100070E080E090E00E942B0B089581E08093CB
:100C20007501609370011092730110927401089520
:100C300090916E0180916F01981710F080E00895F7
:100C4000E0916C01F0916D01E90FF11D80819F5FD2
:100C500090936E0108950895DF93CF930F92CDB7CF
:100C6000DEB76983809175018823A9F080917401B2
:100C70008032B0F480917301E0917101F0917201C2
:100C8000E80FF11D6083809173018F5F8093730182
:100C90008093740105C0CE01019661E00E941507A2
:100CA0000F90CF91DF9108950E942C0608956091D6
:100CB000710170917201809170014091740121E085
:100CC0000E94D00610927301109274011092750167
:100CD0000895862F60916C0170916D01413208F08A
:100CE00040E20E949A0610926E0180936F0108956F
:100CF0000E946906089580E290E061E070E00E9441
:100D00008E0080936C0190936D0110926E01109291
:100D10006F0180E290E061E070E00E948E008093BD
:100D200071019093720110927301109274010E94EC
:100D300032070895982F413210F040E02FC0809183
:100D400077018823E1F781E0809377018FEF80932B
:100D5000820110927B0140937C01990F91609093E6
:100D6000780185EE8093BC00809177018130E1F3BA
:100D700080917B01841710F440917B01A09179014F
:100D8000B0917A0120E030E007C0FB01E20FF31FD1
:100D90008D9180832F5F3F4F2417B8F3842F0895E0
:100DA0001F93582F122F413210F081E03CC08091E8
:100DB00077018823E1F782E0809377018FEF8093BA
:100DC000820110927B0140937C01A0917901B09146
:100DD0007A01FB0102C081918D938E2F861B8417AF
:100DE000D0F3852F90E0880F991F8093780185EECE
:100DF0008093BC00112321F0809177018230E1F3D0
:100E0000809182018F3F11F480E00DC080918201BA
:100E1000803211F482E007C080918201803311F0AA
:100E200084E001C083E01F910895482F613210F0E3
:100E300081E0089580917701843011F082E0089577
:100E400060937F01A0917D01B0917E01842F9C0170
:100E5000F90102C081918D938E2F841B8617D0F3E8
:100E600080E0089510927701589A599AE9EBF0E0E2
:100E700080818E7F808380818D7F808388E48093D2
:100E8000B80085E48093BC0080E290E061E070E00F
:100E90000E948E008093790190937A0180E290E025
:100EA00061E070E00E948E0080937D0190937E014E
:100EB00080E290E061E070E00E948E00809380010B
:100EC00090938101089583E891E062E070E00E94D0
:100ED00054040895EF92FF920F931F93809159014C
:100EE00061E00E94BB0B80913F0161E00E94BB0B5F
:100EF00003E811E0C8010E947405C8010E940306BE
:100F0000809157010E949D0B9093850180938401ED
:100F100000D000D000D0EDB7FEB731962BE5E22E21
:100F200021E0F22EADB7BEB71296FC92EE92119769
:100F300020E031E033832283958384830E94B301D0
:100F40008DB79EB706960FB6F8949EBF0FBE8DBFA5
:100F5000C80164E071E00E940205C80161E070E030
:100F60004AE050E00E944A05C801B7010E9402050C
:100F7000C80162E070E040E050E00E944A05C8010C
:100F80006AE071E00E940205C80163E070E040E0A1
:100F900050E00E944A05C80160E171E00E9402052C
:100FA00086E791E00E947B068EE092E040E855E201
:100FB00060E070E00E94080A1F910F91FF90EF908F
:100FC00008950F931F9306E711E06091550170910A
:100FD0005601C8010E940E06C80160E070E00E9440
:100FE0005406C8010E9457066AE070E080E090E075
:100FF0000E942B0B6091550170915601C80148E089
:1010000050E00E947806C8010E941806809386016D
:10101000C8010E94180680938701C8010E94180623
:1010200080938801C8010E94180680935F01C8015F
:101030000E94180680936001C8010E9418068093E0
:101040006101C8010E94180680936201C8010E94D4
:101050001806809389011F910F910895DF92EF92F6
:10106000FF920F931F93809157010E949D0B9093C5
:10107000850180938401805991409CF084E690E042
:10108000909344018093430183E891E064E070E031
:1010900040E050E00E944A0583E891E068E171E099
:1010A00010C0109244011092430183E891E064E083
:1010B00070E040E050E00E944A0583E891E06CE176
:1010C00071E00E94020583E891E061E070E04AE08F
:1010D00050E00E944A0500D000D000D0EDB7FEB726
:1010E00031960BE511E0ADB7BEB712961C930E9387
:1010F000119780E091E093838283809184019091A5
:101100008501958384830E94B3018DB79EB70696AF
:101110000FB6F8949EBF0FBE8DBF83E891E0B80173
:101120000E9402050E94E10783E891E062E070E01E
:101130004AE050E00E944A052091880100D000D08A
:1011400000D0EDB7FEB73196ADB7BEB712961C937F
:101150000E93119740E2E42E41E0F42EF382E282F6
:10116000822F82958F703AE0D32E8D9DC00111247D
:101170002F70820F911D958384830E94B3018DB7D8
:101180009EB706960FB6F8949EBF0FBE8DBF83E83C
:1011900091E0B8010E94020583E891E065E271E008
:1011A0000E9402052091870100D000D000D0EDB749
:1011B000FEB73196ADB7BEB712961C930E9311973A
:1011C000F382E282822F82958F708D9DC00111245F
:1011D0002F70820F911D958384830E94B3018DB778
:1011E0009EB706960FB6F8949EBF0FBE8DBF83E8DC
:1011F00091E0B8010E94020583E891E065E271E0A8
:101200000E9402052091860100D000D000D0EDB7E9
:10121000FEB73196ADB7BEB712961C930E931197D9
:10122000F382E282822F82958F708D9DC0011124FE
:101230002F70820F911D958384830E94B3018DB717
:101240009EB706960FB6F8949EBF0FBE8DBF83E87B
:1012500091E0B8010E94020583E891E063E070E04C
:101260004AE050E00E944A052091600100D000D081
:1012700000D0EDB7FEB73196ADB7BEB712961C934E
:101280000E931197F382E282822F82958F708D9D4B
:10129000C00111242F70820F911D958384830E94B9
:1012A000B3018DB79EB706960FB6F8949EBF0FBEDA
:1012B0008DBF83E891E0B8010E94020583E891E0C8
:1012C00067E271E00E9402052091610100D000D028
:1012D00000D0EDB7FEB73196ADB7BEB712961C93EE
:1012E0000E931197F382E282822F82958F708D9DEB
:1012F000C00111242F70820F911D958384830E9459
:10130000B3018DB79EB706960FB6F8949EBF0FBE79
:101310008DBF83E891E0B8010E94020583E891E067
:1013200067E271E00E9402052091620100D000D0C6
:1013300000D0EDB7FEB73196ADB7BEB712961C938D
:101340000E931197F382E282822F82958F708D9D8A
:10135000C00111242F70820F911D958384830E94F8
:10136000B3018DB79EB706960FB6F8949EBF0FBE19
:101370008DBF83E891E0B8010E9402051F910F9193
:10138000FF90EF90DF9008950E94630B0E946A0720
:101390000E942E08FDCF1F920F920FB60F921124BC
:1013A0002F933F934F935F936F937F938F939F936D
:1013B000AF93BF93EF93FF934091C600E0910A0271
:1013C000F0910B02CF01019660E870E00E94280CBA
:1013D0009C0180910C0290910D022817390739F079
:1013E000E657FE4F408330930B0220930A02FF9191
:1013F000EF91BF91AF919F918F917F916F915F918D
:101400004F913F912F910F900FBE0F901F90189505
:10141000AF92BF92CF92DF92EF92FF920F931F9302
:10142000CF93DF936C017A018B01DC011496AD90B0
:10143000BC901597CB01BA0122E030E040E050E0CB
:101440000E945D0C205C3D4B404F5F4FCA01B901CB
:10145000A80197010E945D0CC901DA010197A10959
:10146000B109292F3A2F4B2F552747FD5A95019641
:10147000A11DB11DE5012883E601EE81FF818150A8
:101480008083EA85FB85208141E050E0CA010E841B
:1014900002C0880F991F0A94E2F7282B2083EA855F
:1014A000FB852081CA010F8402C0880F991F0A940E
:1014B000E2F7282B2083EA85FB858081088802C01B
:1014C000440F551F0A94E2F7842B8083DF91CF915C
:1014D0001F910F91FF90EF90DF90CF90BF90AF9052
:1014E0000895FC01A085B18521898C9190E0022EA0
:1014F00002C0959587950A94E2F780FFF6CF0484A1
:10150000F585E02D6083089588E691E090930F02C1
:1015100080930E028AE891E090931102809310026A
:1015200085EC90E0909313028093120284EC90E09B
:10153000909315028093140280EC90E09093170230
:101540008093160281EC90E0909319028093180228
:1015500086EC90E090931B0280931A0284E08093C3
:101560001C0283E080931D0287E080931E0285E0C9
:1015700080931F0208951F920F920FB60F921124AD
:101580002F938F939F93AF93BF938091200290915D
:101590002102A0912202B09123020196A11DB11D4A
:1015A0008093200290932102A0932202B093230201
:1015B0008091240290912502A0912602B0912702E9
:1015C0008050904CAF4FBF4F8093240290932502E0
:1015D000A0932602B093270227C080912402909105
:1015E0002502A0912602B091270280589E43A04078
:1015F000B0408093240290932502A0932602B093DA
:1016000027028091280290912902A0912A02B0918C
:101610002B020196A11DB11D8093280290932902EF
:10162000A0932A02B0932B0280912402909125026C
:10163000A0912602B091270281589E43A040B0405D
:1016400060F6BF91AF919F918F912F910F900FBE38
:101650000F901F901895EF92FF920F931F937B01AD
:101660008C018FB7F8944091280250912902609123
:101670002A0270912B028FBF2FB7F8948091280215
:1016800090912902A0912A02B0912B022FBF841BB6
:10169000950BA60BB70BE816F9060A071B0760F7B0
:1016A0001F910F91FF90EF900895019759F0FC0161
:1016B000EE0FFF1FEE0FFF1F32978FB7F894319791
:1016C000F1F78FBF0895789484B5826084BD84B5A6
:1016D000816084BD85B5826085BD85B5816085BD2D
:1016E000EEE6F0E0808181608083E1E8F0E08081D7
:1016F00082608083808181608083E0E8F0E0808187
:1017000081608083E1EBF0E0808184608083E0EBA6
:10171000F0E0808181608083EAE7F0E0808184608E
:1017200080838081826080838081816080838081EA
:10173000806880831092C100089587709091630142
:101740009295990F990F907C982B90937C008091A3
:101750007A00806480937A0080917A0086FDFCCFC5
:101760002091780040917900942F80E030E0282B80
:10177000392BC9010895282F30E0C90186569F4FA3
:10178000FC0194912A573F4FF9018491882391F0ED
:10179000E82FF0E0EE0FFF1FE859FF4FA591B4913D
:1017A000662329F48C91909589238C9308958C91CC
:1017B000892B8C930895482F50E0CA0182559F4F82
:1017C000FC012491CA0186569F4FFC0194914A570F
:1017D0005F4FFA0134913323D1F1222331F12330C9
:1017E00021F4809180008F7705C0243031F48091FE
:1017F00080008F7D8093800018C0213019F484B55B
:101800008F7704C0223021F484B58F7D84BD0DC054
:10181000263021F48091B0008F7705C0273029F45D
:101820008091B0008F7D8093B000E32FF0E0EE0F49
:10183000FF1FEE58FF4FA591B491662329F48C91B8
:10184000909589238C9308958C91892B8C9308957E
:1018500097FB092E07260AD077FD04D049D006D081
:1018600000201AF4709561957F4F0895F6F79095D2
:1018700081959F4F0895A1E21A2EAA1BBB1BFD0163
:101880000DC0AA1FBB1FEE1FFF1FA217B307E4075F
:10189000F50720F0A21BB30BE40BF50B661F771FB7
:1018A000881F991F1A9469F7609570958095909597
:1018B0009B01AC01BD01CF01089597FB092E0526C0
:1018C0000ED057FD04D0D7DF0AD0001C38F4509555
:1018D0004095309521953F4F4F4F5F4F0895F6F754
:1018E00090958095709561957F4F8F4F9F4F08958C
:1018F000AA1BBB1B51E107C0AA1FBB1FA617B70736
:1019000010F0A61BB70B881F991F5A95A9F7809551
:101910009095BC01CD010895EE0FFF1F0590F49145
:10192000E02D09942F923F924F925F926F927F9297
:101930008F929F92AF92BF92CF92DF92EF92FF92DF
:101940000F931F93CF93DF93CDB7DEB7CA1BDB0B8B
:101950000FB6F894DEBF0FBECDBF09942A88398830
:1019600048885F846E847D848C849B84AA84B98437
:10197000C884DF80EE80FD800C811B81AA81B98143
:10198000CE0FD11D0FB6F894DEBF0FBECDBFED0157
:061990000895F894FFCF5A
:1019960025346400506F74693A0074696D653A00C5
:1019A600646174653A00300045494E004155530064
:1019B60025303264003A002E002000300200000C70
:1019C600000B0002000700080009000A00020003DD
:1019D60000000000006400FF00000000000000009E
:1019E6000000000000680001000D00000000000279
:0A19F6000101080100000000710A61
:00000001FF
