:100000000C9462000C948A000C948A000C948A0070
:100010000C948A000C948A000C948A000C948A0038
:100020000C948A000C948A000C948A000C948A0028
:100030000C948A000C948A000C948A000C948A0018
:100040000C9443040C948A000C948A000C948A004B
:100050000C948A000C948A000C948A000C948A00F8
:100060000C948A000C948A000000000024002700F1
:100070002A0000000000250028002B0000000000DE
:1000800023002600290004040404040404040202DA
:100090000202020203030303030301020408102007
:1000A0004080010204081020010204081020000012
:1000B0000007000201000003040600000000000029
:1000C0000000780211241FBECFEFD8E0DEBFCDBF05
:1000D00013E0A0E0B1E0E4E3FDE002C005900D9282
:1000E000A430B107D9F713E0A4E0B3E001C01D923A
:1000F000A032B107E1F710E0C4ECD0E004C02297D1
:10010000FE010E949406C23CD107C9F70E943C043C
:100110000C9498060C9400000F931F938C01FC0123
:10012000848160E00E941D0581E090E00E94B5049A
:10013000F801848161E00E941D0581E090E00E9449
:10014000B504F801848160E00E941D0584E690E01A
:100150000E94B5041F910F910895CF92DF92EF9204
:10016000FF920F931F93CF93DF93D82EC92E282F82
:10017000392FC9018C01C0E0D0E0E62EFF24F80140
:10018000858161E00E94FD04B7010C2E02C07595C7
:1001900067950A94E2F76170F80185810E941D0558
:1001A00021960F5F1F4FC830D10549F78D2D9C2D2B
:1001B0000E948C00DF91CF911F910F91FF90EF90E3
:1001C000DF90CF900895CF92DF92EF92FF920F933E
:1001D0001F93CF93DF93D82EC92E282F392FC90113
:1001E0008C01C0E0D0E0E62EFF24F801858161E0BB
:1001F0000E94FD04B7010C2E02C0759567950A9404
:10020000E2F76170F80185810E941D0521960F5F5C
:100210001F4FC430D10549F78D2D9C2D0E948C00B5
:10022000DF91CF911F910F91FF90EF90DF90CF90D2
:1002300008951F93CF93DF93EC01162F8A81642FCB
:100240000E941D058B8160E00E941D058D8584FF45
:1002500005C0CE01612F0E94AD000EC0612F70E07D
:1002600084E0759567958A95E1F7CE010E94E300D9
:10027000CE01612F0E94E300DF91CF911F9108957D
:1002800041E00E941901089540E00E94190108957B
:10029000FC016685862F846086876C60CF010E9492
:1002A00044010895DF93CF93CDB7DEB728970FB6FB
:1002B000F894DEBF0FBECDBF9C01FE013196ABEFBF
:1002C000B2E088E00D9001928150E1F7F901818957
:1002D000841710F4482F4150E42FF0E0EE0FFF1F79
:1002E000EC0FFD1F8181680F6068C9010E94440105
:1002F00028960FB6F894DEBF0FBECDBFCF91DF9129
:10030000089562E00E94440180ED97E00E94B504E8
:10031000089561E00E94440180ED97E00E94B504D9
:100320000895CF93DF93EC01423018F08D858860FB
:100330008D87498B1A8A222329F0413019F48D8543
:1003400084608D8780E593EC0E94B5048A8160E02B
:100350000E941D058C8160E00E941D058B8160E07C
:100360000E941D056D8564FD1DC0CE0163E00E94E5
:10037000E30084E991E10E94B504CE0163E00E94AC
:10038000E30084E991E10E94B504CE0163E00E949C
:10039000E30086E990E00E94B504CE0162E00E948D
:1003A000E30016C06062CE010E94440184E991E13D
:1003B0000E94B5046D856062CE010E94440186E909
:1003C00090E00E94B5046D856062CE010E944401F8
:1003D0006D856062CE010E94440184E08E87CE016B
:1003E0000E944801CE010E94890182E08F87CE01E0
:1003F00066E00E944401DF91CF9108956F927F9251
:100400008F92AF92CF92EF920F931F93DF93CF9380
:10041000CDB7DEB73C01162F842FF301428323832F
:100420000483E582C682A78280869D8591879E850A
:1004300092879F8593879889948761E00E94FD0445
:10044000F301838161E00E94FD04F301848161E096
:100450000E94FD04112319F0F301158603C080E109
:10046000F3018587C30160E141E020E00E94910132
:10047000CF91DF911F910F91EF90CF90AF908F9020
:100480007F906F9008958F92AF92CF92EF920F93DB
:100490001F93CF93DF93DC01362F542F722F102F31
:1004A000AE2C8C2C85EF92E011969C938E9300D00D
:1004B00000D0EDB7FEB73196CDB7DEB71982118205
:1004C00012821382CD0161E0432F2FEF052FE72E1B
:1004D000C12E0E94FE010F900F900F900F90DF91A0
:1004E000CF911F910F91EF90CF90AF908F90089583
:1004F000CF92EF920F9384E093E06CE04BE027E023
:1005000008E059E0E52E3AE0C32E0E9443020F9125
:10051000EF90CF900895CF93DF9384E093E00E9413
:10052000890184E093E00E94810184E093E060E02F
:1005300071E00E94A10584E093E060E041E00E9448
:10054000520184E093E064E171E00E94A10584E03F
:1005500093E060E042E00E94520184E093E069E2AF
:1005600071E00E94A10584E093E060E043E00E9416
:10057000520184E093E06DE371E00E94A10568E818
:1005800073E180E090E00E948B0484E093E00E949D
:10059000890184E093E060E041E00E94520184E040
:1005A00093E060E571E00E94A10584E093E061E0E2
:1005B00042E00E94520184E093E060E671E00E9414
:1005C000A10560ED77E080E090E00E948B0484E07C
:1005D00093E00E94890184E093E00E94810184E01D
:1005E00093E063E771E00E94A10584E093E060E09E
:1005F00041E00E94520184E093E065E871E00E94CE
:10060000A10584E093E060E042E00E94520184E0B2
:1006100093E068E971E00E94A10560E47FE180E079
:1006200090E00E948B0484E093E00E94890184E0C2
:1006300093E00E94810184E093E06BEA71E00E9404
:10064000A10584E093E060E041E00E94520184E073
:1006500093E06FEB71E00E94A10584E093E060E01D
:1006600042E00E94520184E093E064ED71E00E9458
:10067000A10584E093E060E043E00E94520184E041
:1006800093E068EE71E00E94A10560E47FE180E004
:1006900090E00E948B0484E093E00E94890184E052
:1006A00093E00E94810184E093E06DEF71E00E948D
:1006B000A10584E093E060E041E00E94520184E003
:1006C00093E062E172E00E94A10584E093E060E0C3
:1006D00042E00E94520184E093E065E272E00E94F1
:1006E000A10584E093E060E043E00E94520184E0D1
:1006F00093E06AE372E00E94A10560E47FE180E09C
:1007000090E00E948B0484E093E00E94890184E0E1
:1007100093E00E94810184E093E06BE472E00E9428
:10072000A10584E093E060E041E00E94520184E092
:1007300093E06CE572E00E94A10584E093E060E044
:1007400042E00E94520184E093E06EE672E00E9473
:10075000A10584E093E06DE043E00E94520184E053
:1007600093E060E872E00E94A10560E47FE180E030
:1007700090E00E948B0484E093E00E94890184E071
:1007800093E00E94810184E093E068E872E00E94B7
:10079000A10584E093E060E041E00E94520184E022
:1007A00093E06BE972E00E94A10584E093E060E0D1
:1007B00042E00E94520184E093E06FEA72E00E94FE
:1007C000A10584E093E060E043E00E94520184E0F0
:1007D00093E063EC72E00E94A10560E47FE180E0B9
:1007E00090E00E948B0484E093E00E948901CEE1B6
:1007F000D0E084E093E068E041E00E94520184E0B0
:1008000093E068ED72E00E94A105CA30D10534F48E
:1008100084E093E06CED72E00E94A10584E093E037
:10082000BE010E94680668EE73E080E090E00E94DE
:100830008B0421978FEFCF3FD807D9F6DF91CF9167
:1008400008950F931F9304E013E0C80164E144E0AE
:1008500020E00E949101C8010E948901C8016EED4B
:1008600072E00E94A1056CE271E080E090E00E94DD
:100870008B041F910F9108950E94C3040E942104CC
:100880000E948B02FDCF1F920F920FB60F92112480
:100890002F933F938F939F93AF93BF9380911B03AD
:1008A00090911C03A0911D03B0911E0330911F0372
:1008B0000196A11DB11D232F2D5F2D3720F02D573F
:1008C0000196A11DB11D20931F0380931B039093DC
:1008D0001C03A0931D03B0931E03809117039091F6
:1008E0001803A0911903B0911A030196A11DB11D1F
:1008F0008093170390931803A0931903B0931A03DE
:10090000BF91AF919F918F913F912F910F900FBE0B
:100910000F901F901895EF92FF920F931F937B01FA
:100920008C018FB7F89440911B0350911C03609188
:100930001D0370911E038FBF2FB7F89480911B0386
:1009400090911C03A0911D03B0911E032FBF841B27
:10095000950BA60BB70BE816F9060A071B0760F7FD
:100960001F910F91FF90EF900895019759F0FC01AE
:10097000EE0FFF1FEE0FFF1F32978FB7F8943197DE
:10098000F1F78FBF0895789484B5826084BD84B5F3
:10099000816084BD85B5826085BD85B5816085BD7A
:1009A000EEE6F0E0808181608083E1E8F0E0808124
:1009B00082608083808181608083E0E8F0E08081D4
:1009C00081608083E1EBF0E0808184608083E0EBF4
:1009D000F0E0808181608083EAE7F0E080818460DC
:1009E0008083808182608083808181608083808138
:1009F000806880831092C1000895282F30E0C901DB
:100A000086569F4FFC0194912A573F4FF9018491DC
:100A1000882391F0E82FF0E0EE0FFF1FE859FF4F19
:100A2000A591B491662329F48C91909589238C9398
:100A300008958C91892B8C930895482F50E0CA011A
:100A400082559F4FFC012491CA0186569F4FFC019D
:100A500094914A575F4FFA0134913323D1F1222305
:100A600031F1233021F4809180008F7705C024304C
:100A700031F4809180008F7D8093800018C02130F8
:100A800019F484B58F7704C0223021F484B58F7DAA
:100A900084BD0DC0263021F48091B0008F7705C051
:100AA000273029F48091B0008F7D8093B000E32F30
:100AB000F0E0EE0FFF1FEE58FF4FA591B4916623B3
:100AC00029F48C91909589238C9308958C91892B8E
:100AD0008C9308950F931F93CF93DF938C01EB01B9
:100AE00009C02196D801ED91FC910190F081E02D93
:100AF000C801099568816623A1F7DF91CF911F9105
:100B00000F910895EF92FF920F931F93CF93DF936E
:100B10008C017B01EA010CC0D7016D917D01D801E8
:100B2000ED91FC910190F081E02DC801099521978C
:100B3000209791F7DF91CF911F910F91FF90EF9048
:100B40000895DC01ED91FC910280F381E02D09957F
:100B500008952F923F924F925F926F927F928F9261
:100B60009F92AF92BF92CF92DF92EF92FF920F933C
:100B70001F93DF93CF93CDB7DEB7A0970FB6F8944E
:100B8000DEBF0FBECDBF1C016A017B0141155105BF
:100B90006105710549F4DC01ED91FC910190F08152
:100BA000E02D60E3099554C0882499245401422E15
:100BB00055246624772401E010E00C0F1D1F080D5A
:100BC000191DC701B601A30192010E947006F80128
:100BD00060830894811C911CA11CB11CC701B60143
:100BE000A30192010E947006C901DA016C017D0126
:100BF000C114D104E104F104F1F681E0E82EF12CF6
:100C0000EC0EFD1EE80CF91C3E010894611C711CE1
:100C1000D501C4010197A109B1096C01C818D9080F
:100C200014C0F601EE0DFF1D60816A3010F4605DA6
:100C300001C0695CD101ED91FC910190F081E02D42
:100C4000C10109950894E108F1086E147F0449F781
:100C5000A0960FB6F894DEBF0FBECDBFCF91DF9147
:100C60001F910F91FF90EF90DF90CF90BF90AF90CA
:100C70009F908F907F906F905F904F903F902F90BC
:100C80000895EF92FF920F931F93CF93DF93EC01A0
:100C90007A018B0177FF0FC0E881F9810190F08123
:100CA000E02D6DE2099510950095F094E094E11C1B
:100CB000F11C011D111DCE01B801A7012AE00E94FF
:100CC000A905DF91CF911F910F91FF90EF900895AB
:100CD000AB01662757FD6095762F0E944106089567
:100CE000A1E21A2EAA1BBB1BFD010DC0AA1FBB1F30
:100CF000EE1FFF1FA217B307E407F50720F0A21BA2
:100D0000B30BE40BF50B661F771F881F991F1A940E
:100D100069F760957095809590959B01AC01BD0138
:100D2000CF010895EE0FFF1F0590F491E02D099477
:040D3000F894FFCF65
:100D34002057656C63686573204B6162656C206D38
:100D440075737300737465636B656E2C20756E64C4
:100D54002077656C63686573002064617266206E39
:100D6400696368742C20756D2064656E0020436F80
:100D74006465207A7520657268616C74656E3F00E5
:100D84002020202020342048696E7765697365002F
:100D94002073696E64207A75206265616368746586
:100DA4006E2100312E2057656E6E204120737465CC
:100DB400636B656E002020206D7573732C20646155
:100DC4006E6E206D7573730020202061756368203A
:100DD4004220737465636B656E2100322E57656E15
:100DE4006E2042206D7573732C2064616E6E00203A
:100DF400206D75737320656E747765646572206108
:100E04007563680020204320737465636B656E20EE
:100E14006F64657220412000202064617266206E38
:100E24006963687420737465636B656E00332E5751
:100E3400656E6E2044206E69636874207374656BFC
:100E44002D0020206B656E20646172662C206D7508
:100E540073732041002020737465636B656E207585
:100E64006E64204320646172660020206E696368AA
:100E74007420737465636B656E2E00342E57656E33
:100E84006E204420737465636B656E0020206D755D
:100E940073732C2064616E6E206D75737300202053
:100EA40061756368204120737465636B656E2E0001
:100EB4003C70726573733E0055656265726C65675C
:100EC400656E2053696520677574006E61636820E0
:100ED40076657261656E6465726E20646573006523
:100EE400727374656E204B6162656C732068616215
:100EF400656E00536965206E75722033302053652A
:100F04006B756E64656E210030303A0030005374A6
:100F140065707065722C20566572732E20312E30E8
:100F2400000000000040016A058205000040001432
:040F34000054000065
:00000001FF
