:100000000C945B000C9481000C9481000C94810092
:100010000C9481000C9481000C9481000C9481005C
:100020000C9481000C9481000C9481000C9481004C
:100030000C9481000C9481000C9481000C9481003C
:100040000C947F010C9481000C9461030C9481004A
:100050000C9481000C9481000C9481000C9481001C
:100060000C9481000C9481007E01000000070002C6
:10007000010000030406000000000000000001026F
:100080000408102040800102040810200102040826
:100090001020040404040404040402020202020204
:1000A0000303030303030000232629000025282B54
:1000B000000024272A0011241FBECFEFD4E0DEBFAA
:1000C000CDBF11E0A0E0B1E0EAEBF9E002C005909D
:1000D0000D92AA30B107D9F711E0AAE0B1E001C052
:1000E0001D92A339B107E1F710E0CAE6D0E004C0E1
:1000F0002297FE010E94D904C836D107C9F70C9493
:10010000AE000C94000061E0809100010E94350275
:1001100040E855E260E070E08AE091E00E94BB00B8
:10012000089561E0809100010E949C0262E370E00A
:1001300080E090E00E94BC0160E0809100010E949C
:100140009C0262E071E08AE091E00E94EE0068EBC0
:100150007BE080E090E00E94BC010895CFEFD4E006
:10016000DEBFCDBF0E94EB010E9483000E94910080
:10017000FDCF08950895CB01BA010E94E7020895CA
:100180000E942803992708950E94390308950E9428
:1001900058030895862F0E949F030895CB010E9463
:1001A000A6030895862F0E949F0308950F931F931F
:1001B0008C016DE00E94CA006AE0C8010E94CA007A
:1001C0001F910F9108950F931F938C010E94CA00F5
:1001D000C8010E94D6001F910F9108950F931F939D
:1001E0008C010E94CE00C8010E94D6001F910F9181
:1001F00008950F931F938C010E94D200C8010E94A2
:10020000D6001F910F910895CB01BA0133274427DF
:1002100055270E94B30308952AE00E94040108951F
:100220000F931F938C010E940C01C8010E94D600FD
:100230001F910F910895AB01662777270E940C014B
:100240000895EF92FF920F931F93CF93DF93EC01EA
:100250007A018B0177FF0BC06DE20E94CA001095F6
:100260000095F094E094E11CF11C011D111D2AE0A1
:10027000B801A701CE010E940401DF91CF911F9127
:100280000F91FF90EF9008950F931F938C010E94A0
:100290002101C8010E94D6001F910F9108952115D8
:1002A000310521F4642F0E94CA0008952A303105D7
:1002B00019F40E94210108950E94040108950F93EA
:1002C0001F938C010E944F01C8010E94D6001F910C
:1002D0000F910895AB01662757FD6095762F0E9418
:1002E000210108950F931F938C010E946A01C80198
:1002F0000E94D6001F910F910895089508951F92AE
:100300000F920FB60F9211248F939F93AF93BF93C9
:1003100080910F0190911001A0911101B0911201F3
:100320000196A11DB11D80930F0190931001A09320
:100330001101B0931201BF91AF919F918F910F90D6
:100340000FBE0F901F90189560910F0170911001D2
:10035000809111019091120127E0660F771F881F8D
:10036000991F2A95D1F72DE730E040E050E00E9438
:100370008604CA01B9010895AF92BF92CF92DF926D
:10038000EF92FF920F931F935B016C010E94A401F7
:100390007B018C010E94A4016E197F09800B910BD7
:1003A0006A157B058C059D05A8F31F910F91FF90A1
:1003B000EF90DF90CF90BF90AF900895019751F0EC
:1003C000880F991F880F991F02972FB7F8940197EC
:1003D000F1F72FBF0895789410920F011092100139
:1003E000109211011092120184B5826084BD84B50F
:1003F000816084BD85B5826085BD85B5816085BD20
:10040000EEE6F0E0808181608083E1E8F0E08081C9
:1004100082608083808181608083E0E8F0E0808179
:1004200081608083E1EBF0E0808184608083E0EB99
:10043000F0E0808181608083ECE7F0E080818F775D
:100440008083808180648083EAE7F0E0808184603B
:1004500080838081826080838081816080838081CD
:10046000806880831092C1000895282F3327C90126
:1004700082589F4FFC0194912E563F4FF901849171
:10048000882381F0E82FFF27E055FF4FE491FF27F5
:10049000662329F480819095892380830895808143
:1004A000892B80830895482F5527CA0186599F4F6D
:1004B000FC012491CA0182589F4FFC0194914E5631
:1004C0005F4FFA0134913323A1F1222331F123301C
:1004D00021F4809180008F7705C0243031F4809121
:1004E00080008F7D8093800018C0213019F484B57E
:1004F0008F7704C0223021F484B58F7D84BD0DC078
:10050000263021F48091B0008F7705C0273029F480
:100510008091B0008F7D8093B000E32FFF27EA55D4
:10052000FF4FE491FF278081892319F081E090E05B
:10053000089580E090E00895482F5527CA01865914
:100540009F4FFC012491CA0182589F4FFC01949156
:100550004E565F4FFA0134913323C1F1222331F11A
:10056000233021F4809180008F7705C0243031F44E
:10057000809180008F7D8093800018C0213019F415
:1005800084B58F7704C0223021F484B58F7D84BD7B
:100590000DC0263021F48091B0008F7705C0273040
:1005A00029F48091B0008F7D8093B000E32FFF2766
:1005B000E555FF4FE491FF27662329F4808190954C
:1005C0008923808308958081892B80830895EF9209
:1005D000FF920F931F937B018C0122E030E040E0FB
:1005E00050E00E94A804205C3D4B404F5F4FCA0181
:1005F000B901A80197010E94A80421503040404051
:100600005040BB2757FDBA95A52F942F832F2F5FFE
:100610003F4F4F4F5F4F8093C50021502093C40040
:10062000E1ECF0E08081806180838081886080835C
:100630008081806880831F910F91FF90EF900895D3
:10064000982F8091C00085FFFCCF9093C60008953D
:1006500080910D0190910E0120910B0130910C01C0
:10066000821B930B80589F4F60E870E00E947304D8
:10067000089540910B0150910C0180910D019091D2
:100680000E018417950719F48FEF9FEF0895FA0173
:10069000ED5EFE4F2081CA01019660E870E00E9485
:1006A000730490930C0180930B01822F9927089576
:1006B00080910B0190910C0190930E0180930D019C
:1006C00008951F920F920FB60F9211242F933F930C
:1006D0004F935F936F937F938F939F93AF93BF934A
:1006E000EF93FF934091C600E0910D01F0910E0150
:1006F000CF01019660E870E00E9473049C01809134
:100700000B0190910C012817390739F0ED5EFE4F6F
:10071000408330930E0120930D01FF91EF91BF9123
:10072000AF919F918F917F916F915F914F913F9189
:100730002F910F900FBE0F901F90189508950E9453
:10074000200308958AE00E949F030895CF93DF93CA
:10075000EC0103C021960E949F0388818823D1F772
:10076000DF91CF9108952F923F924F925F926F92B7
:100770007F928F929F92AF92BF92CF92DF92EF9231
:10078000FF920F931F93CF93DF93CDB7DEB7A09760
:100790000FB6F894DEBF0FBECDBF6B017C0119010F
:1007A0002A01611571058105910521F480E30E94FC
:1007B0009F034BC06624772443015E010894A11C6B
:1007C000B11C8501060D171DC701B601A2019101DB
:1007D0000E948604F80160830894611C711C811CCE
:1007E000911CC701B601A20191010E948604690112
:1007F0007A01211531054105510519F77301089456
:10080000E108F108EA0CFB1CAA24BB24650111C015
:10081000F70180818A3010F4805D01C0895C0E94FC
:100820009F030894A108B108C108D1080894E10801
:10083000F10888279927DC0186199709A809B909C1
:10084000A816B906CA06DB0619F7A0960FB6F894E3
:10085000DEBF0FBECDBFDF91CF911F910F91FF90F3
:10086000EF90DF90CF90BF90AF909F908F907F9050
:100870006F905F904F903F902F900895EF92FF926E
:100880000F931F937B018C0197FF0BC08DE20E9499
:100890009F0310950095F094E094E11CF11C011D5C
:1008A000111D2AE030E040E050E0C801B7010E948D
:1008B000B3031F910F91FF90EF90089520E130E076
:1008C00040E050E00E94B303089528E030E040E0AB
:1008D00050E00E94B303089522E030E040E050E091
:1008E0000E94B303089597FB092E07260AD077FDCF
:1008F00004D049D006D000201AF4709561957F4F3E
:100900000895F6F7909581959F4F0895A1E21A2ECC
:10091000AA1BBB1BFD010DC0AA1FBB1FEE1FFF1FA3
:10092000A217B307E407F50720F0A21BB30BE40BF3
:10093000F50B661F771F881F991F1A9469F760953A
:100940007095809590959B01AC01BD01CF010895F4
:1009500097FB092E05260ED057FD04D0D7DF0AD00D
:10096000001C38F450954095309521953F4F4F4FDE
:100970005F4F0895F6F790958095709561957F4F3C
:100980008F4F9F4F0895AA1BBB1B51E107C0AA1FA1
:10099000BB1FA617B70710F0A61BB70B881F991F20
:1009A0005A95A9F780959095BC01CD010895EE0F59
:0A09B000FF1F0590F491E02D09945B
:0A09BA000D004B6E6F636B2100000F
:00000001FF
