:100000000C9463000C948B000C948B000C948B006C
:100010000C948B000C948B000C948B000C948B0034
:100020000C948B000C9412090C948B000C948B0094
:100030000C948B000C948B000C948B000C948B0014
:100040000C94650F0C948B000C9475100C948B0021
:100050000C948B000C948B000C948B000C948B00F4
:100060000C948B000C948B000000000024002700EF
:100070002A0000000000250028002B0000000000DE
:1000800023002600290004040404040404040202DA
:100090000202020203030303030301020408102007
:1000A0004080010204081020010204081020000012
:1000B0000007000201000003040600000000000029
:1000C00000004D0BBE1111241FBECFEFD4E0DEBFE8
:1000D000CDBF12E0A0E0B1E0E2E9FCE202C0059091
:1000E0000D92AE32B107D9F714E0AEE2B2E001C032
:1000F0001D92A13FB107E1F710E0C6ECD0E004C0CB
:100100002297FE010E944316C23CD107C9F70E9404
:100110005E0F0C9447160C940000FB01DC010D905F
:100120000020E9F7119701900D920020E1F7089562
:10013000FB01DC018D91019080190110D9F3990B1D
:100140000895AF92BF92CF92DF92EF92FF920F93FA
:100150001F937B016A0159010E94BE0485E565E594
:100160000E948903C7010E94FE04C6010E9428055F
:10017000C5010E94C204C8010E94E0041F910F91B2
:10018000FF90EF90DF90CF90BF90AF9008950F93C6
:100190001F93DF93CF9300D000D0CDB7DEB7EFEF42
:1001A000E983EA83EB831C828E010F5F1F4F0E945D
:1001B000A1000F900F900F900F90CF91DF911F91A2
:1001C0000F910895DF93CF9300D000D0CDB7DEB765
:1001D000FA012081298321812A8322812B8321E036
:1001E0002C839E012F5F3F4F0E94C7000F900F90FE
:1001F0000F900F90CF91DF9108954F925F927F9271
:100200008F929F92AF92BF92CF92DF92EF92FF9226
:100210000F931F93CF93DF93782E2B017A01E9017F
:1002200048010E94E9028E159F0510F0670104C085
:10023000872D0E94E9026C016881662351F489814F
:10024000882339F48A81882321F48B81882309F457
:1002500058C08114910409F454C0C114D10409F4A4
:1002600052C0A72CBB2484E090E0A80EB91EFA2C43
:10027000EE24C7010C960E94F202C7010D96698117
:100280000E94F202C7010E966A810E94F202C70123
:100290000F966B810E94F2028701005F1F4FC80119
:1002A000692D0E94F202C8010196682D0E94F20297
:1002B000872DB201A6010E94DC05E7012196CE013F
:1002C00060E20E94F202CE010E9411038823D9F756
:1002D0000AC0C8010E94110383FF09C0C80168E178
:1002E0000E94F2020EC01A2D00270E5F1F4FC80198
:1002F0000E94110384FFEDCFC80160E10E94F20269
:1003000002C0CC24DD24C601DF91CF911F910F9153
:10031000FF90EF90DF90CF90BF90AF909F908F9025
:100320007F905F904F9008950F931F93CF93DF932B
:10033000082F10E00C5F1F4FD02FCC272196CE0145
:1003400060E10E94F202CE010E9411038823D9F7D6
:10035000902F882702966FEF0E94F202DF91CF91D3
:100360001F910F910895CF92DF92EF92FF920F931A
:100370001F93CF93DF93082FE62EEA01F22E862FEC
:100380008150853010F080E049C0802F0E94940198
:1003900010E00C5F1F4FD02ECC24FE28C6016F2D1D
:1003A0000E94F202B6E0000F111FBA95E1F7209704
:1003B00071F00F5F1F4F000F111F000F111FC801B9
:1003C0006D2F0E94F202C80101966C2F18C0209177
:1003D0002F02309130022F5F3F4F30933002209335
:1003E0002F020F5F1F4F000F111F000F111FC801B9
:1003F000632F0E94F202C801019660912F020E94B1
:10040000F20286010F5F1F4FC80161E00E94F202F5
:10041000C8010E9411038823D9F781E0DF91CF91B1
:100420001F910F91FF90EF90DF90CF9008952F9242
:100430003F924F925F926F927F928F929F92AF9274
:10044000BF92DF92EF92FF920F931F93DF93CF93B0
:10045000CDB7DEB728970FB6F894DEBF0FBECDBF7D
:10046000D82E2B0179011801452B19F4EE24FF2415
:1004700097C090E00496782E662428E2A22EB12C34
:10048000A60CB71CC5010E941103182F00E099E2C9
:10049000892E912C860C971CC4010E941103080F11
:1004A000111DC3010E94110390E08770907083308A
:1004B000910549F18430910509F440C0029719F083
:1004C000EE24FF2461C08D2DB801AE014F5F5F4F58
:1004D00028E030E00E942106085F1F4F8981F70164
:1004E00080838A8181838B8182838C8183839D81B8
:1004F00080E02E81820F911DF101918380839F8185
:1005000080E0288517C08D2DB801AE014F5F5F4F89
:1005100026E030E00E9421060A5F1F4F8981F70123
:1005200080838A8181838B8182838C8183839D8177
:1005300080E02E817C01E20EF11C16C08D2DB801E9
:10054000AE014F5F5F4F22E030E00E9421060E5F58
:100550001F4F998180E02A81E22EFF242EEF3FEF8A
:10056000E20EF31EE80EF91E8D2DB801A2019701CF
:100570000E9421060E0D1F1DC501612F0E94F2026F
:10058000C401602F0E94F20283010F5F1F4FC80158
:1005900060E40E94F202C8010E9411038823D9F787
:1005A000C70128960FB6F894DEBF0FBECDBFCF911E
:1005B000DF911F910F91FF90EF90DF90BF90AF9070
:1005C0009F908F907F906F905F904F903F902F9073
:1005D0000895E82FF0E0EE0FFF1FEF5BFD4F8081E5
:1005E00091810895282F84B18C6284B92A9A85B1AB
:1005F000877D85B980E58CBD2A9880EF8EBD0DB4CE
:1006000007FEFDCF9EBD0DB407FEFDCF2EBD0DB480
:1006100007FEFDCF6EBD0DB407FEFDCF2A9A81E027
:100620000895282F84B18C6284B92A9A85B1877D78
:1006300085B980E58CBD2A988FE08EBD0DB407FE8C
:10064000FDCF9EBD0DB407FEFDCF2EBD0DB407FE40
:10065000FDCF1EBC0DB407FEFDCF8EB52A9A0895BE
:10066000DC0184B18C6284B92A9A85B1877D85B911
:1006700080E58CBD20E030E090EF19C02A989EBD47
:100680000DB407FEFDCFBEBD0DB407FEFDCFAEBD60
:100690000DB407FEFDCFFB01E20FF31F80818EBD7D
:1006A0000DB407FEFDCF2A9A2F5F3F4F11962417F6
:1006B000350720F3CA010895DC0184B18C6284B946
:1006C0002A9A85B1877D85B980E58CBD20E030E030
:1006D0009FE01AC02A989EBD0DB407FEFDCFBEBD97
:1006E0000DB407FEFDCFAEBD0DB407FEFDCF1EBCA1
:1006F0000DB407FEFDCF8EB5FB01E20FF31F808323
:100700002A9A2F5F3F4F11962417350718F3CA0115
:1007100008952F923F924F925F926F927F928F92A5
:100720009F92AF92BF92CF92DF92EF92FF920F9380
:100730001F93DF93CF9300D000D0CDB7DEB7182F33
:10074000062F8BE190E0612F0E94F2028AE190E097
:10075000602F0E94F20280E090E490935202809316
:10076000510280E090E690935A028093590261E42E
:1007700072E089E492E09C838B83F9E3CF2EF2E070
:10078000DF2EE1E3EE2EE2E0FE2EAA24BB24662457
:1007900077248824992440E050E0E12FF0E0FA83A8
:1007A000E983202E3324FB0111821082EB81FC812E
:1007B00011821082F0E06F16F0E27F06DCF589818D
:1007C0009A81042E02C0959587950A94E2F783706A
:1007D000907081309105A1F0823091051CF4892B35
:1007E00039F028C08230910599F0039719F518C0A7
:1007F00080E094E0FB01918380838FEF93E017C04A
:1008000080E098E0FB01918380838FEF97E00FC039
:1008100080E090E1FB01918380838FEF9FE007C030
:1008200080E090E2FB01918380838FEF9FE1F701ED
:100830009183808390E0891690E299060CF03EC087
:10084000C101042E02C0959587950A94E2F7837042
:10085000907081309105A9F0823091051CF4892BAC
:1008600039F02CC082309105A9F0039739F51BC0EF
:1008700080E094E0EB81FC81918380838FEF93E0B3
:100880001AC080E098E0EB81FC81918380838FEF38
:1008900097E011C080E090E1EB81FC81918380833F
:1008A0008FEF9FE008C080E090E2EB81FC819183B4
:1008B00080838FEF9FE1F60191838083FB0140806D
:1008C0005180EB81FC8100811181A114B104F1F010
:1008D000FA01EF5AFD4FDA01A15CBD4F8D919C9159
:1008E000329122913296820F931F91838083FA0175
:1008F000E75AFD4FDA01A95BBD4F8D919C91329172
:1009000022913296820F931F918380830894A11CB9
:10091000B11C6E5F7F4F4E5F5F4F8B819C81029653
:100920009C838B83E2E0F0E0CE0EDF1EEE0EFF1E16
:10093000F4E0AF16B10429F0640C751C800E911E12
:1009400032CF0F900F900F900F90CF91DF911F91AA
:100950000F91FF90EF90DF90CF90BF90AF909F905E
:100960008F907F906F905F904F903F902F90089561
:10097000682F80E090E80E94F202089580E80E94CB
:10098000B80408950F931F938C0181E090E0F80163
:1009900060810E94F20282E090E0F80161810E9491
:1009A000F20283E090E0F80162810E94F20284E0AA
:1009B00090E0F80163810E94F2021F910F91089567
:1009C0000F931F938C0185E090E0F80160810E94F5
:1009D000F20286E090E0F80161810E94F20287E075
:1009E00090E0F80162810E94F20288E090E0F80154
:1009F00063810E94F2021F910F9108950F931F933C
:100A00008C0189E090E0F80160810E94F2028AE0A6
:100A100090E0F80161810E94F2028BE090E0F80121
:100A200062810E94F2028CE090E0F80163810E94F2
:100A3000F2028DE090E0F80164810E94F2028EE003
:100A400090E0F80165810E94F2021F910F910895D4
:100A50000F931F938C018FE090E0F80160810E945A
:100A6000F20280E190E0F80161810E94F20281E1EE
:100A700090E0F80162810E94F20282E190E0F801C8
:100A800063810E94F2021F910F91089590E0982FC8
:100A900088278E5F9B4F0E94110308958F929F922B
:100AA000AF92BF92CF92DF92EF92FF920F931F937C
:100AB000CF93DF9390E00496982F882716E2812E3B
:100AC000912C880E991EB7E2AB2EB12CA80EB91E40
:100AD000C0E0D0E0C4010E941103F82EEE24C5014D
:100AE0000E9411036701C80ED11CC114D10459F032
:100AF000C4010E941103182F00E0C5010E941103D8
:100B0000E801C80FD11DCC15DD0521F7CE01DF911D
:100B1000CF911F910F91FF90EF90DF90CF90BF90FA
:100B2000AF909F908F900895CF92DF92EF92FF92B7
:100B30000F931F93CF93DF937B01E901E82FF0E040
:100B4000EE0FFF1FDF01AF5CBD4F8D919C914823DD
:100B5000592381E5C82E82E0D82ECE0EDF1ED601A5
:100B60002D913C91240F351FEF5BFD4F0190F081DB
:100B7000E02DCA018C0F9D1FE817F90780F48F0143
:100B8000041B150BC901A8010E943003C01BD10B27
:100B9000F601808191810E0D1F1DB80101C0C901B0
:100BA000AE010E943003DF91CF911F910F91FF9012
:100BB000EF90DF90CF9008957F928F929F92AF92A7
:100BC000BF92CF92DF92EF92FF920F931F93782EF6
:100BD0004B015A01E82EFF2484E090E0E80EF91E54
:100BE000FE2CEE2424E2C22ED12CCE0CDF1CC6013A
:100BF0000E941103182F00E085E290E0E80EF91E34
:100C0000C7010E941103080F111D872DB401A8010F
:100C100095010E9494050A0D1B1DC601612F0E94BB
:100C2000F202C701602F0E94F2021F910F91FF9004
:100C3000EF90DF90CF90BF90AF909F908F907F907C
:100C40000895CF92DF92EF92FF920F931F93CF936D
:100C5000DF937A01E901E82FF0E0EE0FFF1FDF01DB
:100C6000A75CBD4F8D919C916823792349E5C42EE3
:100C700042E0D42ECE0EDF1ED6012D913C91260FE0
:100C8000371FE75BFD4F0190F081E02DCE01860F0D
:100C9000971FE817F90788F48F01061B170BC90186
:100CA000B701A8010E945C03C01BD10BF601808133
:100CB00091810E0D1F1DB80102C0C901B701AE011F
:100CC0000E945C03DF91CF911F910F91FF90EF90F5
:100CD000DF90CF900895633008F061E0E62FF0E0F8
:100CE000EE0FFF1FE80FF91F808191810895DC014D
:100CF0001B968C911B97861708F4682FE62FF0E05F
:100D0000EE0FFF1FEA0FFB1F0780F085E02D6081CB
:100D10007181828193810895DC011B968C911B97D0
:100D2000861708F4682FE62FF0E0EE0FFF1FEA0F9A
:100D3000FB1F0780F085E02D2081318142815381A6
:100D4000B901CA010895FC01718360831382128284
:100D500081E084830895FC017383628382E084834D
:100D60000895FC01718B608B0895DC01FB0180818B
:100D70001C968C931C9781811D968C931D97828164
:100D80001E968C931E9783811F968C930895FC0169
:100D9000E357FF4F71836083ED58F0401082089550
:100DA0008F929F92AF92BF92CF92DF92EF92FF927B
:100DB0000F931F93DF93CF93CDB7DEB7C456D040C8
:100DC0000FB6F894DEBF0FBECDBF4C01FC01E1575A
:100DD000FF4F71836083198200E010E05F016E01B4
:100DE0000894C11CD11C0DC0C801880F991FE80EC2
:100DF000F91ED7016D917C91C6010E948D000F5F95
:100E00001F4FF501E080F180D70114968C9190E09E
:100E1000081719074CF3F60101900020E9F7319704
:100E2000EC196E2F6C7F6C5F8E2F90E0D601A80FAF
:100E3000B91F20E030E0E62FF0E0AC0103C01D92C6
:100E40002F5F3F4FC901840F951F8E179F07BCF37B
:100E50009E012F5F3F4FE20FF31F8CE28083462FEE
:100E60004F5F8701F70160E070E007C0A20FB31F7A
:100E700084818C934F5F6F5F7F4F3196D7011B96B4
:100E80008C9190E0A42FB0E0681779077CF34C7F39
:100E90004C5FF901EA0FFB1F20E030E0642F70E0A7
:100EA00003C011922F5F3F4FC9018A0F9B1F861706
:100EB0009707BCF320E030E0BE016F5F7F4F23C097
:100EC000F801A581B681FB01E40FF11D13968C9109
:100ED000139780834F5FFB01E40FF11D12968C91F5
:100EE000129780834F5FFB01E40FF11D11968C91E7
:100EF000119780834F5FFB01E40FF11D8C9180837C
:100F00004F5F2F5F3F4F0E5F1F4FD7011B968C9196
:100F10001B9790E0281739079CF250960D911C9171
:100F20005197F401808150E02CE030E0E20EF31E96
:100F300097010E94FD00CC59DF4F0FB6F894DEBF39
:100F40000FBECDBFCF91DF911F910F91FF90EF901A
:100F5000DF90CF90BF90AF909F908F900895EF92C9
:100F6000FF920F931F93CF93DF93EC018881982F0B
:100F700080E08E5F9B4F64E00E94F2022DE8E22E3B
:100F8000F12CEC0EFD1ED7012D913C918901005FE3
:100F90001F4F8991BE0141E050E0245F3F4F0E9406
:100FA0001702D701ED91FC911197CC59DF4FD183F6
:100FB000C083C556D04050E020E080E030E074E0CF
:100FC000FE01E50FF11D41814F3241F5552331F10D
:100FD0002230A0F5E22FF0E094E0EE0FFF1F9A958B
:100FE000E1F7EC0FFD1FE80FF11DEB59FF4F1082E9
:100FF0002F5F822F90E0ED91FC911197880F991F40
:10100000E80FF91F13E0880F991F1A95E1F78B5924
:101010009F4F8C0F9D1F9183808380E0223070F45E
:10102000E22FF0E064E0EE0FFF1F6A95E1F7EC0FAE
:10103000FD1FE80FF11DEB59FF4F4083343010F0D6
:101040007C5F30E0442321F05F5F8F5F3F5FB8CF6C
:10105000223008F42F5FDE01A357BF4FED91FC91C2
:1010600011972483672F6C5F472F90E020E030E0DA
:1010700012C08C3251F0223038F4ED91FC9111976E
:10108000E30FF11D85833F5F2F5F9F5F943010F06A
:101090006C5F90E04F5FFE01E40FF11D81818823BA
:1010A00041F7DE01A357BF4FED91FC9111973387B4
:1010B000AE014B575F4F262F60E070E0032F10E02A
:1010C00033C0ED91FC911197CB01880F991FE80F68
:1010D000F91FCB01880F991F880F991F8B579F4FBE
:1010E0008C0F9D1F90878783FE01E20FF11D818188
:1010F000FA0183832F5FFE01E20FF11D8181FA0166
:1011000082832F5FFE01E20FF11D8181FA0181834D
:101110002F5FFE01E20FF11D8181FA0180832F5FB5
:101120006F5F7F4F4C5F5F4F6017710754F2DF9125
:10113000CF911F910F91FF90EF900895CF93DF9380
:10114000EC0188810E944605882351F088810E9425
:101150004E05892B29F0CE010E94AF0781E001C026
:1011600080E0DF91CF910895CF93DF93EC01CE0122
:101170000E949E088823D9F7DF91CF910895FC0142
:10118000AB01808162E020E00E94B3010895EF92FC
:10119000FF920F931F93DF93CF93CDB7DEB70985EF
:1011A0001A85EB84FC84F70101900020E9F7319760
:1011B000EE19FF09D8011B96EC931B97E33018F04A
:1011C00081E01B968C93AE01435F5F4F60E01FC0D0
:1011D000262F30E0F701E20FF31FD801A20FB31F53
:1011E000808115968C93E081E63611F0E93671F432
:1011F000220F331F200F311FFA0180819181D90105
:1012000018969C938E9317974E5F5F4F6F5FF80110
:1012100083856817E8F2CF91DF911F910F91FF90BE
:10122000EF90089578941F920F920FB60F921124A9
:10123000DF92EF92FF920F931F932F933F934F9361
:101240005F936F937F938F939F93AF93BF93CF934E
:10125000DF93EF93FF93809170008E7F80937000F7
:10126000A091E502B091E6021091E702012F0095EE
:10127000612F70E060957095C091EE01D091EF0103
:101280004091E3025091E4022FE730E0DD249AE23E
:10129000E92E8AE2F82E4115510509F02BC02332C0
:1012A000310508F44FC08C9180238C9380E09E2DF3
:1012B0009A95F1F78F5F8B30D1F7235230408C91A4
:1012C000812B8C938F2D8A95F1F7F8940C90062240
:1012D0000C928BE000C09DE000009A95E9F70C901D
:1012E00006220894D79408F4012A0C928A9599F75B
:1012F000789422C02B30310528F45093E4024093B7
:10130000E30224C02B503040FA01E05AFD4F8081A7
:10131000F8940C9006220C929BE000C0EDE00000D7
:10132000EA95E9F70C9006220894879508F4012ABB
:101330000C929A9599F778944F5F5F4FC417D50731
:1013400008F0A9CF1092E4021092E302809170009D
:10135000816080937000FF91EF91DF91CF91BF91F9
:10136000AF919F918F917F916F915F914F913F913D
:101370002F911F910F91FF90EF90DF900F900FBE74
:101380000F901F90189581E08093E2028091ED010B
:10139000482F50E0FA01EA57FF4FE491F0E0EE0FDA
:1013A000FF1FEE58FF4F259134913093E6022093B2
:1013B000E50246565F4FFA0194919093E70261E08F
:1013C0000E940810E0E7F0E080818160808308954A
:1013D0001F93CF93DF93EC01162F8091E2028823B5
:1013E00011F40E94C309CE01019780389105A0F441
:1013F0002091EE013091EF01CE014C2F892FC217C1
:10140000D30718F4C901422F892F4093EE0180932E
:10141000EF01C05ADD4F1883DF91CF911F910895DE
:10142000CB01642F0E94E809089580919203909166
:101430009303892BA9F4A2E0B3E0EAEEF2E020E006
:1014400030E006C08D919D91819391932F5F3F4F26
:101450002C303105BCF33093E9022093E802089563
:10146000AAEEB2E0E2E0F3E020E030E006C08D91C9
:101470009D91819391932F5F3F4F2C303105BCF3A9
:101480003093E9022093E8021092930310929203A2
:1014900008958091920390919303892BA9F4AAE176
:1014A000B3E0EAEEF2E020E030E006C08D919D91DD
:1014B000819391932F5F3F4F2C303105BCF33093D4
:1014C000E9022093E8020895AAEEB2E0EAE1F3E02F
:1014D00020E030E006C08D919D91819391932F5F24
:1014E0003F4F2C303105BCF33093E9022093E802E2
:1014F0001092930310929203089580919203909119
:101500009303892BA9F4A2E3B3E0EAEEF2E020E032
:1015100030E006C08D919D91819391932F5F3F4F55
:101520002C303105BCF33093E9022093E802089592
:10153000AAEEB2E0E2E3F3E020E030E006C08D91F5
:101540009D91819391932F5F3F4F2C303105BCF3D8
:101550003093E9022093E8021092930310929203D1
:1015600008958091920390919303892BA9F4AAE4A2
:10157000B3E0EAEEF2E020E030E006C08D919D910C
:10158000819391932F5F3F4F2C303105BCF3309303
:10159000E9022093E8020895AAEEB2E0EAE4F3E05B
:1015A00020E030E006C08D919D91819391932F5F53
:1015B0003F4F2C303105BCF33093E9022093E80211
:1015C0001092930310929203089580919203909148
:1015D0009303892BA9F4A2E6B3E0EAEEF2E020E05F
:1015E00030E006C08D919D91819391932F5F3F4F85
:1015F0002C303105BCF33093E9022093E8020895C2
:10160000AAEEB2E0E2E6F3E020E030E006C08D9121
:101610009D91819391932F5F3F4F2C303105BCF307
:101620003093E9022093E802109293031092920300
:1016300008958091920390919303892BA9F4AAE7CE
:10164000B3E0EAEEF2E020E030E006C08D919D913B
:10165000819391932F5F3F4F2C303105BCF3309332
:10166000E9022093E8020895AAEEB2E0EAE7F3E087
:1016700020E030E006C08D919D91819391932F5F82
:101680003F4F2C303105BCF33093E9022093E80240
:101690001092930310929203089588EB93E064E90B
:1016A00073E00E94C70608950F931F9384E993E0A7
:1016B00060E00E948C060091490410914A04000FDA
:1016C000111F00501D4F20E030E04FE753E40E940F
:1016D0005B150E947814F801718360831F910F914C
:1016E00008950F931F9384E993E060E00E948C06B5
:1016F0000091490410914A04000F111F02501D4F20
:1017000020E030E04FE753E40E945B150E9478141C
:10171000F801718360831F910F9108950F931F93B8
:1017200084E993E060E00E948C06009149041091E6
:101730004A04000F111F04501D4F20E030E04FE716
:1017400053E40E945B150E947814F8017183608352
:101750001F910F9108950F931F9384E993E060E028
:101760000E948C060091490410914A04000F111F39
:1017700006501D4F20E030E04FE753E40E945B1518
:101780000E947814F801718360831F910F9108956E
:101790000F931F9384E993E060E00E948C06009110
:1017A000490410914A04000F111F08501D4F20E0FA
:1017B00030E04FE753E40E945B150E947814F80173
:1017C000718360831F910F9108950F931F9384E994
:1017D00093E060E00E948C060091490410914A0455
:1017E000000F111F0A501D4F20E030E04FE753E477
:1017F0000E945B150E947814F801718360831F9129
:101800000F9108950F931F9384E993E060E00E9485
:101810008C060091490410914A04000F111F0C50CE
:101820001D4F20E030E04FE753E40E945B150E941B
:101830007814F801718360831F910F9108950F93BD
:101840001F9384E993E060E00E948C0600914904B4
:1018500010914A04000F111F0E501D4F20E030E080
:101860004FE753E40E945B150E947814F8017183DE
:1018700060831F910F9108950F931F9384E993E064
:1018800060E00E948C060091490410914A04000F08
:10189000111F00511D4F20E030E04FE753E40E943C
:1018A0005B150E947814F801718360831F910F917A
:1018B00008950F931F9384E993E060E00E948C06E3
:1018C0000091490410914A04000F111F02511D4F4D
:1018D00020E030E04FE753E40E945B150E9478144B
:1018E000F801718360831F910F9108950F931F93E7
:1018F00084E993E060E00E948C0600914904109115
:101900004A04000F111F04511D4F20E030E04FE743
:1019100053E40E945B150E947814F8017183608380
:101920001F910F9108950F931F9384E993E060E056
:101930000E948C060091490410914A04000F111F67
:1019400006511D4F20E030E04FE753E40E945B1545
:101950000E947814F801718360831F910F9108959C
:10196000CF92DF92EF92FF920F931F9384E993E05F
:1019700060E00E948C066B017C010EED14E0C80152
:1019800060E071E00E942F12C801B701A6010E9419
:101990009C131F910F91FF90EF90DF90CF900895CF
:1019A000CF92DF92EF92FF920F931F9384E993E01F
:1019B00060E00E948C066B017C010EED14E0C80112
:1019C00067E071E00E942F12C801B701A6010E94D2
:1019D0009C131F910F91FF90EF90DF90CF9008958F
:1019E00084E993E060E00E947706EAEEF2E080E0AE
:1019F00090E02FEF30E003C02193319301968C30BB
:101A00009105D4F39093E9028093E802089584E964
:101A100093E060E00E947706EAEEF2E080E090E07A
:101A200020E830E003C02193319301968C3091057A
:101A3000D4F39093E9028093E802089584E993E057
:101A400060E00E947706EAEEF2E080E090E003C0FA
:101A50001192119201968C309105D4F39093E90282
:101A60008093E802089588EB93E00E949E08882303
:101A700009F464C184E993E060E00E946B06609120
:101A80000202709103020E949800009709F056C16B
:101A900084E993E061E00E946B066091040270911A
:101AA00005020E949800009711F40E94D00C84E96E
:101AB00093E061E00E946B0660910602709107025C
:101AC0000E949800009711F40E94B00C84E993E002
:101AD00061E00E946B066EE071E00E949800009742
:101AE00011F40E941E0D84E993E061E00E946B06F0
:101AF00060911002709111020E949800009711F4F9
:101B00000E94070D84E993E061E00E946B066091FA
:101B10001202709113020E949800009711F40E9423
:101B2000F00C84E993E061E00E946B06609114027E
:101B3000709115020E949800009711F40E94150AF6
:101B400084E993E061E00E946B0660911602709157
:101B500017020E949800009711F40E94490A84E934
:101B600093E061E00E946B06609118027091190287
:101B70000E949800009711F40E947D0A84E993E086
:101B800061E00E946B0660911A0270911B020E9434
:101B90009800009711F40E94B10A84E993E061E093
:101BA0000E946B0660911C0270911D020E949800B9
:101BB000009711F40E94E50A84E993E061E00E9435
:101BC0006B0667E171E00E949800009711F40E9493
:101BD000190B84E993E061E00E946B0660E271E01A
:101BE0000E949800009731F481E090E09093930375
:101BF0008093920384E993E061E00E946B06609118
:101C00000802709109020E949800009711F40E9446
:101C1000930C84E993E061E00E946B0660910A02F4
:101C200070910B020E949800009711F40E94760CAC
:101C300084E993E061E00E946B0660910C02709170
:101C40000D020E949800009711F40E94590C84E93B
:101C500093E061E00E946B0660911E0270911F028A
:101C60000E949800009711F40E943C0C84E993E0D4
:101C700061E00E946B066AE271E00E9498000097A2
:101C800011F40E941F0C84E993E061E00E946B064E
:101C900063E371E00E949800009711F40E94020C27
:101CA00084E993E061E00E946B066CE371E00E94BE
:101CB0009800009711F40E94E50B84E993E061E03D
:101CC0000E946B0665E471E00E949800009711F491
:101CD0000E94C80B84E993E061E00E946B066EE409
:101CE00071E00E949800009711F40E94AB0B84E908
:101CF00093E061E00E946B0667E571E00E94980046
:101D0000009711F40E948E0B84E993E061E00E9439
:101D10006B0661E671E00E949800009711F40E9442
:101D2000710B84E993E061E00E946B066BE671E061
:101D30000E949800009711F40E94540B08950E948D
:101D4000330D1092E9021092E80215C0FB01EE0F6C
:101D5000FF1FE651FD4F81EE92E06F5F7F4F4081A4
:101D60000E94100A8091E8029091E90201969093F6
:101D7000E9028093E8026091E8027091E9026C3018
:101D8000710524F30895EF92FF920F931F93DF9351
:101D9000CF9300D000D0CDB7DEB78EED94E040E811
:101DA00055E260E070E00E94B2108EE292E060EFD7
:101DB00071E046EF51E00E94E200B8EBEB2EB3E099
:101DC000FB2E6091FA017091FB01C7010E94BF08D0
:101DD00006EA13E0C8016CEF71E00E94B50660915D
:101DE000000270910102C8010E94B10660910202D6
:101DF00070910302C8010E94A30683E060E00E9484
:101E0000081082E061E00E94081082E061E00E9418
:101E1000281010924B0410924C0481E00E94E70FAE
:101E200080E00E94EA0FAA2797FDA095BA2F809321
:101E30004D0490934E04A0934F04B0935004C701F7
:101E40000E94B40881E090E0A0E0B0E089839A832A
:101E5000AB83BC836091060270910702C8010E94A7
:101E6000AB0600D000D000D0EDB7FEB73196ADB7CD
:101E7000BEB712961C930E93119785E791E093835A
:101E80008283CE010196958384830E94C7088DB713
:101E90009EB706960FB6F8949EBF0FBE8DBFC701C2
:101EA000B8010E94D0060F900F900F900F90CF9125
:101EB000DF911F910F91FF90EF9008950E94AD0F59
:101EC0000E94C30E0E949F0EFDCF1F920F920FB66D
:101ED0000F9211242F933F938F939F93AF93BF93B0
:101EE0008091550490915604A0915704B0915804E4
:101EF000309159040196A11DB11D232F2D5F2D375F
:101F000020F02D570196A11DB11D209359048093F7
:101F1000550490935604A0935704B09358048091AD
:101F2000510490915204A0915304B091540401962D
:101F3000A11DB11D8093510490935204A0935304AA
:101F4000B0935404BF91AF919F918F913F912F9186
:101F50000F900FBE0F901F901895789484B58260F3
:101F600084BD84B5816084BD85B5826085BD85B53D
:101F7000816085BDEEE6F0E0808181608083E1E8EC
:101F8000F0E0808182608083808181608083E0E8EE
:101F9000F0E0808181608083E1EBF0E0808184600B
:101FA0008083E0EBF0E0808181608083EAE7F0E00D
:101FB0008081846080838081826080838081816071
:101FC00080838081806880831092C100089580930F
:101FD000220208958F70909122029295990F990F85
:101FE000907C982B90937C0080917A008064809301
:101FF0007A0080917A0086FDFCCF20917800409194
:102000007900942F80E030E0282B392BC901089506
:10201000282F30E0C90186569F4FFC0194912A5722
:102020003F4FF9018491882391F0E82FF0E0EE0F03
:10203000FF1FE859FF4FA591B491662329F48C91B5
:10204000909589238C9308958C91892B8C93089576
:10205000482F50E0CA0182559F4FFC012491CA01CC
:1020600086569F4FFC0194914A575F4FFA01349175
:102070003323D1F1222331F1233021F480918000E8
:102080008F7705C0243031F4809180008F7D80935C
:10209000800018C0213019F484B58F7704C0223035
:1020A00021F484B58F7D84BD0DC0263021F480914C
:1020B000B0008F7705C0273029F48091B0008F7D64
:1020C0008093B000E32FF0E0EE0FFF1FEE58FF4FBC
:1020D000A591B491662329F48C91909589238C93D2
:1020E00008958C91892B8C9308951F920F920FB6AF
:1020F0000F9211242F933F934F935F936F937F938E
:102100008F939F93AF93BF93EF93FF934091C6003C
:10211000E091DA04F091DB04CF01019660E870E011
:102120000E94DD159C018091DC049091DD0428174C
:10213000390739F0E65AFB4F40833093DB04209394
:10214000DA04FF91EF91BF91AF919F918F917F91B1
:102150006F915F914F913F912F910F900FBE0F9014
:102160001F9018955F926F927F928F929F92AF927D
:10217000BF92CF92DF92EF92FF920F931F93CF9374
:10218000DF93EC013A014B01413482E458078FE0C0
:10219000680780E078070CF07FC060E874E88EE1A3
:1021A00090E0A40193010E9412162150304040405B
:1021B0005040CA01B90122E030E040E050E00E9406
:1021C000121659016A01A601950120953095409596
:1021D000509594E0220F331F441F551F9A95D1F755
:1021E00060E074E284EF90E00E941216CA01B90127
:1021F0002FEF30E040E050E00E94BE15A4019301B3
:102200000E941216C90181509F4F181619061CF41E
:10221000522E5A9403C055245394521A60E079E028
:102220008DE390E0A40193010E94121621503040EA
:1022300040405040CA01B90122E030E040E050E0A7
:102240000E941216209530954095509583E0220FFC
:10225000331F441F551F8A95D1F760E074E284EF65
:1022600090E00E941216CA01B9012FEF30E040E061
:1022700050E00E94BE15A40193010E941216C901EC
:1022800081509F4F181619061CF4822F815002C0EE
:1022900081E0821B851500F5E885F98581E090E0F5
:1022A0000A8802C0880F991F0A94E2F7808360E0D1
:1022B00079E08DE390E0A40193010E941216215071
:1022C000304040405040CA01B90122E030E040E0D7
:1022D00050E00E94121604C0E885F985108295012D
:1022E000EC81FD813083EE81FF812083EA85FB85CF
:1022F000208141E050E0CA010E8402C0880F991F7E
:102300000A94E2F7282B2083EA85FB852081CA0105
:102310000F8402C0880F991F0A94E2F7282B2083AC
:10232000EA85FB858081088802C0440F551F0A9406
:10233000E2F7842B8083DF91CF911F910F91FF9063
:10234000EF90DF90CF90BF90AF909F908F907F9055
:102350006F905F900895FC01A085B18521898C91D3
:1023600090E0022E02C0959587950A94E2F780FFCF
:10237000F6CF0484F585E02D6083089587E292E02E
:102380009093DF048093DE048AE594E09093E10467
:102390008093E00485EC90E09093E3048093E20462
:1023A00084EC90E09093E5048093E40480EC90E06A
:1023B0009093E7048093E60481EC90E09093E90425
:1023C0008093E80486EC90E09093EB048093EA0419
:1023D00084E08093EC0483E08093ED0487E08093B5
:1023E000EE0485E08093EF0481E08093F00408958B
:1023F0000F931F93CF93DF938C01EB0109C02196BC
:10240000D801ED91FC910190F081E02DC801099572
:1024100068816623A1F7DF91CF911F910F910895F5
:10242000EF92FF920F931F93CF93DF938C017B0169
:10243000EA010CC0D7016D917D01D801ED91FC91AD
:102440000190F081E02DC80109952197209791F71F
:10245000DF91CF911F910F91FF90EF900895DC01D4
:10246000ED91FC910280F381E02D099508950F9381
:102470001F938C01DC01ED91FC910190F081E02D26
:102480006DE00995D801ED91FC910190F081E02D6E
:10249000C8016AE009951F910F9108952F923F920C
:1024A0004F925F926F927F928F929F92AF92BF9264
:1024B000CF92DF92EF92FF920F931F93DF93CF9310
:1024C000CDB7DEB7A0970FB6F894DEBF0FBECDBF75
:1024D0001C016A017B01411551056105710549F433
:1024E000DC01ED91FC910190F081E02D60E3099514
:1024F00054C0882499245401422E552466247724FC
:1025000001E010E00C0F1D1F080D191DC701B601D9
:10251000A30192010E94F015F80160830894811CC8
:10252000911CA11CB11CC701B601A30192010E941C
:10253000F015C901DA016C017D01C114D104E10477
:10254000F104F1F681E0E82EF12CEC0EFD1EE80C12
:10255000F91C3E010894611C711CD501C40101974E
:10256000A109B1096C01C818D90814C0F601EE0D13
:10257000FF1D60816A3010F4605D01C0695CD101AB
:10258000ED91FC910190F081E02DC1010995089435
:10259000E108F1086E147F0449F7A0960FB6F8948D
:1025A000DEBF0FBECDBFCF91DF911F910F91FF9086
:1025B000EF90DF90CF90BF90AF909F908F907F90E3
:1025C0006F905F904F903F902F9008952AE00E9467
:1025D0004E120895EF92FF920F931F93CF93DF93C4
:1025E000EC017A018B0177FF0FC0E881F98101903E
:1025F000F081E02D6DE2099510950095F094E0943E
:10260000E11CF11C011D111DCE01B801A7012AE03A
:102610000E944E12DF91CF911F910F91FF90EF908A
:1026200008959F92AF92BF92CF92DF92EF92FF9266
:102630000F931F93CF93DF93EC017A018B01922EBE
:10264000CB01BA0120E030E040E050E00E940C14E1
:10265000882364F4E881F9810190F081E02DCE01B6
:102660006DE2099517FB109517F9109520E030E001
:1026700040E05FE3AA240BC0CA01B90120E030E0CA
:1026800040E251E40E9410149B01AC01A394A914F0
:1026900098F3C801B7010E94A8135B016C010E9466
:1026A0007D147B018C01CE01B801A7010E94E612C6
:1026B000992029F0CE016BEE71E00E942F12C80123
:1026C000B7010E94A9149B01AC01C601B5010E948B
:1026D000A71320C020E030E040E251E40E945B15E7
:1026E0007B018C010E9478145B016C01CC24B7FC47
:1026F000C094DC2CCE01B601A5010E94EA12C601ED
:10270000B5010E94AB149B01AC01C801B7010E9446
:10271000A7139A949920F1F6DF91CF911F910F9111
:10272000FF90EF90DF90CF90BF90AF909F90089573
:1027300022E00E94111308950F931F938C010E94B1
:102740009813C8010E9437121F910F910895505895
:10275000BB27AA270ED075C166D130F06BD120F00F
:1027600031F49F3F11F41EF45BC10EF4E095E7FBDA
:1027700051C1E92F77D180F3BA1762077307840735
:10278000950718F071F49EF58FC10EF4E0950B2EAD
:10279000BA2FA02D0B01B90190010C01CA01A001B3
:1027A0001124FF27591B99F0593F50F4503E68F10E
:1027B0001A16F040A22F232F342F4427585FF3CF4F
:1027C000469537952795A795F0405395C9F77EF420
:1027D0001F16BA0B620B730B840BBAF09150A1F069
:1027E000FF0FBB1F661F771F881FC2F70EC0BA0FEF
:1027F000621F731F841F48F4879577956795B79577
:10280000F7959E3F08F0B3CF9395880F08F099276E
:10281000EE0F979587950895D9D008F481E0089533
:102820000CD00FC107D140F0FED030F021F45F3F53
:1028300019F0F0C0511139C1F3C014D198F39923A4
:10284000C9F35523B1F3951B550BBB27AA27621774
:102850007307840738F09F5F5F4F220F331F441FB9
:10286000AA1FA9F333D00E2E3AF0E0E830D09150F1
:102870005040E695001CCAF729D0FE2F27D0660FDE
:10288000771F881FBB1F261737074807AB07B0E81D
:1028900009F0BB0B802DBF01FF2793585F4F2AF033
:1028A0009E3F510568F0B6C000C15F3FECF3983E13
:1028B000DCF3869577956795B795F7959F5FC9F790
:1028C000880F911D9695879597F90895E1E0660F19
:1028D000771F881FBB1F621773078407BA0720F092
:1028E000621B730B840BBA0BEE1F88F7E0950895FB
:1028F00004D06894B111D9C00895BCD088F09F5716
:1029000090F0B92F9927B751A0F0D1F0660F771F3B
:10291000881F991F1AF0BA95C9F712C0B13081F01B
:10292000C3D0B1E00895C0C0672F782F8827B85F63
:1029300039F0B93FCCF3869577956795B395D9F77C
:102940003EF490958095709561957F4F8F4F9F4F86
:102950000895E89409C097FB3EF490958095709592
:1029600061957F4F8F4F9F4F9923A9F0F92F96E9DB
:10297000BB279395F695879577956795B795F11150
:10298000F8CFFAF4BB0F11F460FF1BC06F5F7F4FED
:102990008F4F9F4F16C0882311F096E911C07723FF
:1029A00021F09EE8872F762F05C0662371F096E808
:1029B000862F70E060E02AF09A95660F771F881FD7
:1029C000DAF7880F9695879597F90895990F00087B
:1029D000550FAA0BE0E8FEEF16161706E807F907F1
:1029E000C0F012161306E407F50798F0621B730B8C
:1029F000840B950B39F40A2661F0232B242B252B0D
:102A000021F408950A2609F4A140A6958FEF811DAF
:102A1000811D089597F99F6780E870E060E0089550
:102A20009FEF80EC089500240A94161617061806E6
:102A30000906089500240A941216130614060506C2
:102A40000895092E0394000C11F4882352F0BB0F53
:102A500040F4BF2B11F460FF04C06F5F7F4F8F4FB6
:102A60009F4F089557FD9058440F551F59F05F3FF1
:102A700071F04795880F97FB991F61F09F3F79F0A0
:102A800087950895121613061406551FF2CF469522
:102A9000F1DF08C0161617061806991FF1CF8695A4
:102AA0007105610508940895E894BB276627772788
:102AB000CB0197F908950BD0C4CFB5DF28F0BADF6A
:102AC00018F0952309F0A6CFABCF1124EECFCADFC3
:102AD000A0F3959FD1F3950F50E0551F629FF00131
:102AE000729FBB27F00DB11D639FAA27F00DB11D8A
:102AF000AA1F649F6627B00DA11D661F829F222713
:102B0000B00DA11D621F739FB00DA11D621F839F99
:102B1000A00D611D221F749F3327A00D611D231F6F
:102B2000849F600D211D822F762F6A2F11249F57BD
:102B300050408AF0E1F088234AF0EE0FFF1FBB1FE0
:102B4000661F771F881F91505040A9F79E3F51057F
:102B500070F060CFAACF5F3FECF3983EDCF3869530
:102B600077956795B795F795E7959F5FC1F7FE2B2A
:102B7000880F911D9695879597F90895629FD001CA
:102B8000739FF001829FE00DF11D649FE00DF11D28
:102B9000929FF00D839FF00D749FF00D659FF00DD7
:102BA0009927729FB00DE11DF91F639FB00DE11DC4
:102BB000F91FBD01CF011124089597FB092E0726A7
:102BC0000AD077FD04D049D006D000201AF47095C1
:102BD00061957F4F0895F6F7909581959F4F0895E1
:102BE000A1E21A2EAA1BBB1BFD010DC0AA1FBB1F11
:102BF000EE1FFF1FA217B307E407F50720F0A21B83
:102C0000B30BE40BF50B661F771F881F991F1A94EF
:102C100069F760957095809590959B01AC01BD0119
:102C2000CF01089597FB092E05260ED057FD04D03D
:102C3000D7DF0AD0001C38F4509540953095219587
:102C40003F4F4F4F5F4F0895F6F7909580957095E1
:102C500061957F4F8F4F9F4F0895AA1BBB1B51E17A
:102C600007C0AA1FBB1FA617B70710F0A61BB70BFC
:102C7000881F991F5A95A9F780959095BC01CD01A1
:102C80000895EE0FFF1F0590F491E02D0994F8943C
:022C9000FFCF74
:102C920079706F733A200078706F733A20002F6258
:102CA2007574746F6E31002F627574746F6E3900B3
:102CB2002F627574746F6E3136002F736C696465A0
:102CC2007235002F736C6964657236002F736C69FC
:102CD20064657237002F736C6964657238002F73F4
:102CE2006C6964657239002F736C69646572313086
:102CF200002F736C696465723131002F736C6964E3
:102D0200657231320069002F617264002F78706F32
:102D120073002F79706F73002F736C696465723161
:102D2200002F736C6964657232002F736C6964657D
:102D32007233002F627574746F6E32002F62757475
:102D4200746F6E33002F627574746F6E34002F626D
:102D52007574746F6E35002F627574746F6E360001
:102D62002F627574746F6E37002F627574746F6E94
:102D720038002F736C6964657234002E00031000F2
:102D8200DEADBEEFFEEDC0A80013401FC0A8004F8D
:102D9200401F77017C018201880191019A010E0195
:102DA200A301AC01B501BE01C701D001D901E20105
:0E2DB20000000100000000AB11F8111012002B
:00000001FF
