:100000000C945D000C9483000C9483000C9483008A
:100010000C9483000C9483000C9483000C94830054
:100020000C9483000C9483000C9483000C94830044
:100030000C9483000C9483000C9483000C94830034
:100040000C9491070C9483000C9473090C94830016
:100050000C9483000C9483000C9483000C94830014
:100060000C94BE040C948300BC03C40690070000EB
:100070000007000201000003040600000000000069
:100080000000010204081020408001020408102032
:1000900001020408102004040404040404040202FD
:1000A00002020202030303030303000023262900C4
:1000B0000025282B000024272A0011241FBECFEF83
:1000C000D4E0DEBFCDBF11E0A0E0B1E0EEE7F8E1A3
:1000D00002C005900D92A838B107D9F712E0A8E840
:1000E000B1E001C01D92A933B107E1F710E0CEE6FF
:1000F000D0E004C02297FE010E943B0CC836D10715
:10010000C9F70C94AD060C94000060E080910A01E0
:100110000E94AE0881E090E00E94F00761E08091CB
:100120000A010E94AE0881E090E00E94F00760E0C2
:1001300080910A010E94AE0861E070E080E090E0EA
:100140000E94CE070895EF92FF920F931F93CF93D3
:10015000DF937C018B010F701070C0910201D09170
:10016000030108C0602F61708C2F0E94AE081595A6
:100170000795219680910801909109018C179D07A0
:100180008CF7C7010E948500DF91CF911F910F91DD
:10019000FF90EF900895EF92FF920F931F937C01D1
:1001A0008B0194E0759567959A95E1F7C7010E94D8
:1001B000A3000F701070B801C7010E94A3001F9127
:1001C0000F91FF90EF9008957093010160930001EB
:1001D000615070406430710530F081E090E09093A0
:1001E0000101809300010895709301016093000163
:1001F000615070406430710530F081E090E0909380
:1002000001018093000108950F931F93CF93DF9313
:100210008C01EB0160E080910E010E94AE0880919C
:10022000880190918901892B29F060E080910C016F
:100230000E94AE08BE01C8010E94A300DF91CF91C9
:100240001F910F9108950F931F93CF93DF938C010C
:10025000EB0160E080910E010E94AE088091880160
:1002600090918901892B29F060E080910C010E9416
:10027000AE08BE01C8010E94CB00DF91CF911F9153
:100280000F9108950F931F93CF93DF938C01EB0190
:1002900061E080910E010E94AE08809188019091EA
:1002A0008901892B29F060E080910C010E94AE0841
:1002B000BE01C8010E94CB00DF91CF911F910F9129
:1002C0000895EF92FF920F931F93CF93DF937C01DA
:1002D000EB0100E010E009C0AC0FBD1F6C91772767
:1002E00067FD7095C7010E944201A02FBB270F5FD9
:1002F0001F4FFE0101900020E9F73197EC1BFD0B29
:10030000AE17BF0748F3DF91CF911F910F91FF9078
:10031000EF90089561E070E00E94230161E070E0D9
:1003200080E090E00E94CE070895CF93DF93EC0128
:1003300061E080910A010E94470861E080910E010E
:100340000E9447088091880190918901892B29F0AA
:1003500061E080910C010E94470861E080910201F8
:100360000E94470861E0809104010E94470861E013
:10037000809106010E94470861E0809108010E9477
:10038000470862E370E080E090E00E94CE0763E0FF
:1003900070E0CE010E94040165E070E080E090E032
:1003A0000E94CE0763E070E0CE010E94040184E663
:1003B00090E00E94F00763E070E0CE010E9404012B
:1003C00065E070E080E090E00E94CE0762E070E0BF
:1003D000CE010E94040162E070E0CE010E9404019F
:1003E00060910001709101016150704023E0660F3F
:1003F000771F2A95E1F7CE010E9404018CE390E07B
:100400000E94F0076CE070E0CE010E9423018CE3B3
:1004100090E00E94F00761E070E0CE010E942301AD
:1004200063E070E080E090E00E94CE0766E070E05C
:10043000CE010E94230161E070E080E090E00E9424
:10044000CE07DF91CF910895CF92DF92EF92FF9286
:100450000F931F93CF93DF93CDB7DEB728970FB6D7
:10046000F894DEBF0FBECDBF7C018B016A0162E054
:1004700070E00E942301DE011196E0E1F1E088E0E6
:1004800001900D928150E1F7000F111F0C0F1D1FFD
:1004900001501040F801608171816C0D7D1D605824
:1004A0007F4FC7010E94230128960FB6F894DEBF44
:1004B0000FBECDBFDF91CF911F910F91FF90EF90B5
:1004C000DF90CF900895CF92DF92EF92FF920F933B
:1004D0001F93CF93DF936C017B018A01C0E0D0E0D2
:1004E0000DC068E170E0C6010E942301B8018827B1
:1004F00077FD8095982F0E94CE072196CE15DF05B7
:1005000084F3DF91CF911F910F91FF90EF90DF90D7
:10051000CF9008950895089561E070E080E290E042
:100520000E94850A909398018093970110929601FA
:100530001092950161E070E080E290E00E94850AEF
:1005400090939301809392011092910110929001E7
:100550000E94C70308950F931F938C01862F0E945A
:10056000F80385EA93E00E94A10488E793E00E94E3
:100570009C04C8010E948C021F910F9108950E9453
:10058000AB0208951F93862F142F413208F010E21A
:100590006091970170919801412F0E94FC03109285
:1005A0009601109395011F9108950E94C20208952B
:1005B00081E080938F0160939401109291011092D9
:1005C00090010895609192017091930121E0409112
:1005D0009001809194010E94350410929101109233
:1005E000900110928F010895CF93DF93CDB7DEB7BE
:1005F00021970FB6F894DEBF0FBECDBF69838091FF
:100600008F018823A9F0809190018032B0F480910D
:100610009101E0919201F0919301E80FF11D608347
:10062000809191018F5F809391018093900105C02B
:1006300061E0CE0101960E94720421960FB6F894F3
:10064000DEBF0FBECDBFDF91CF910895DF92EF9255
:10065000FF920F931F93CF93DF937C018B01D42ED6
:1006600080918F01882379F0C0E0D0E008C0F801C4
:10067000E80FF11D6081C7010E94F40221968C2FC2
:10068000CD15A8F304C0642FC8010E947204DF9145
:10069000CF911F910F91FF90EF90DF900895FB0194
:1006A00001900020E9F73197E61BF70B4E2F0E94CF
:1006B000260308950E94F402089580919501909177
:1006C0009601891B992708952091960180919501A3
:1006D000281710F080E00AC0E0919701F09198018E
:1006E000E20FF11D80812F5F2093960199270895D5
:1006F000AC0180918B0190918C01892B29F1909113
:100700009601809195019817F8F020E030E00AC03A
:10071000E0919701F0919801EA0FFB1FA40FB51F1C
:100720008C918083822F2F5F3F4FA82FBB27A61766
:10073000B70774F31092960160939501E0918B01D5
:10074000F0918C01CB0109950895E0918D01F09114
:100750008E01309729F01092910110929001099525
:10076000089570938C0160938B01089570938E01AE
:1007700060938D0108950895089581E080938F011D
:10078000609394011092910110929001089510923B
:10079000A901449A459AE9EBF0E080818E7F80833D
:1007A00080818D7F808388E48093B80085E4809386
:1007B000BC0061E070E080E290E00E94850A9093C6
:1007C000A3018093A20161E070E080E290E00E94CA
:1007D000850A90939F0180939E0161E070E080E222
:1007E00090E00E94850A90939B0180939A0108955E
:1007F000880F8093BA000895CF93DF93982FEB0171
:10080000642F413218F081E090E02CC08091A90162
:100810008823E1F781E08093A9011092A101609300
:10082000A001990F91609093A80185EE8093BC0080
:100830008091A9018130E1F34091A2015091A3017F
:1008400020E030E00AC0FF27DE01AE0FBF1FE40F3B
:10085000F51F80818C932F5F3F4FE22F261798F36F
:1008600080E090E0DF91CF910895CF93DF93982FB0
:10087000EB01522F413218F081E090E030C08091BE
:10088000A9018823E1F782E08093A9011092A101D8
:100890004093A0016091A2017091A30120E030E09B
:1008A0000AC0FF27DB01AE0FBF1FEC0FFD1F8081C9
:1008B0008C932F5F3F4FE22F241798F3892F9927AE
:1008C000880F991F8093A80185EE8093BC00552363
:1008D00021F08091A9018230E1F380E090E0DF9186
:1008E000CF910895CF93DF93EC01613218F081E04E
:1008F00090E01FC08091A901843019F082E090E05F
:1009000018C060939C0140919E0150919F0120E08E
:1009100030E00AC0FF27DA01AE0FBF1FEC0FFD1F4A
:1009200080818C932F5F3F4FE22F261798F380E052
:1009300090E0DF91CF9108959093A5018093A40159
:1009400008959093A7018093A6010895882311F03C
:1009500085EC01C085E88093BC00089585ED809307
:10096000BC008091BC0084FDFCCF1092A9010895C9
:1009700085EC8093BC001092A90108951F920F92FC
:100980000FB60F9211242F933F934F935F936F9362
:100990007F938F939F93AF93BF93EF93FF93809138
:1009A000B9009927887F90708036910509F4BDC001
:1009B00081369105CCF58832910509F47BC08932E6
:1009C0009105B4F48031910509F46FC0813191052E
:1009D0003CF4009709F412C1089709F011C165C0F1
:1009E0008831910509F466C0809709F009C106C1F4
:1009F0008034910509F485C08134910544F4803335
:100A0000910509F4FBC0C89709F0FAC0F1C0803520
:100A1000910509F468C08835910509F477C08834D8
:100A2000910509F0EDC0EAC08839910509F4DEC0EE
:100A300089399105ECF48837910509F476C0893736
:100A400091054CF48836910509F46FC08037910503
:100A500009F0D6C06AC08838910509F4C7C080394A
:100A6000910509F468C08038910509F0C9C063C0D8
:100A7000803B910509F48DC0813B91054CF4803A8F
:100A8000910509F46CC0883A910509F0B9C081C09C
:100A9000803C910509F4ACC0883C910509F4A8C0DC
:100AA000883B910509F0ACC08CC08091A80180936F
:100AB000BB0015C09091A1018091A001981708F08A
:100AC0009DC09091A101E091A201F091A301E90FD5
:100AD000F11D80818093BB009F5F9093A10185EC05
:100AE0008093BC008DC08091A101E091A201F091A2
:100AF000A301E80FF11D9091BB0090838F5F80935D
:100B0000A1019091A1018091A0016DC08091A101EE
:100B1000E091A201F091A301E80FF11D9091BB00BB
:100B200090838F5F8093A10169C083E08093A901C6
:100B300010929901D4CF80919901803208F056C06B
:100B400090919901E0919A01F0919B01E90FF11DBB
:100B50008091BB0080839F5F90939901C0CF80916B
:100B60009901803248F480919901E0919A01F091C5
:100B70009B01E80FF11D1082609199017727E091A8
:100B8000A401F091A50180919A0190919B01099592
:100B90002FC084E08093A90110929D0110929C01C6
:100BA000E091A601F091A701099580919C0188230D
:100BB00041F481E080939C01E0919E01F0919F01BE
:100BC000108290919D01E0919E01F0919F01E90FAB
:100BD000F11D80818093BB009F5F90939D01909158
:100BE0009D0180919C01981708F479CF85E878CF12
:100BF00085EC8093BC001092A90102C00E94AE0453
:100C0000FF91EF91BF91AF919F918F917F916F91E4
:100C10005F914F913F912F910F900FBE0F901F90BA
:100C20001895282F82958F703AE0839FC001112478
:100C30002F70820F911D08950F931F9361E08DE037
:100C40000E9447088BEA91E00E9495010AE811E0B2
:100C5000C8010E948C0240E855E260E070E08CEA36
:100C600091E00E94CD0661E08DE00E94470868E6B1
:100C700070E0C8010E94BD0360911F01C8010E947D
:100C8000F40260911E01C8010E94F40260911D01EE
:100C9000C8010E94F40260911C01C8010E94F40284
:100CA00060911B01C8010E94F40260911A01C80101
:100CB0000E94F402C8010E94E2021F910F91089560
:100CC0008BEA91E00E948A0164E670E080E090E0A7
:100CD0000E94CE0746E050E068E670E08AE891E0C6
:100CE0000E94D50225C06091AA018DE00E94AE0845
:100CF00090E08091AA01882309F491E09093AA01E1
:100D00008AE891E00E9464030E9411064AE050E0E4
:100D100060E271E00E94A40B60E271E08BEA91E076
:100D20000E94610160E871E08BEA91E00E9461013C
:100D30008AE891E00E945D038823A9F668EE73E0DB
:100D400080E090E00E94CE0742E350E064E170E072
:100D50008BEA91E00E9463020895CFEFD4E0DEBFFA
:100D6000CDBF0E94FD070E941C060E946006FDCFB9
:100D70006F5F7F4F41F4019731F461E070E08BEADF
:100D800091E00E94F40008956FEF7FEF81E090E022
:100D90000E94B806089508950895CB01BA010E94F3
:100DA000F90808950E943A09992708950E944B096D
:100DB00008950E946A090895862F0E94B109089536
:100DC000CB010E94B8090895862F0E94B1090895A9
:100DD0000F931F938C016DE00E94DC066AE0C8014E
:100DE0000E94DC061F910F9108950F931F938C01B1
:100DF0000E94DC06C8010E94E8061F910F91089529
:100E00000F931F938C010E94E006C8010E94E80620
:100E10001F910F9108950F931F938C010E94E40678
:100E2000C8010E94E8061F910F910895CB01BA01F5
:100E30003327442755270E94C50908952AE00E94B8
:100E4000160708950F931F938C010E941E07C80177
:100E50000E94E8061F910F910895AB01662777273E
:100E60000E941E070895EF92FF920F931F93CF9356
:100E7000DF93EC017A018B0177FF0BC06DE20E94DA
:100E8000DC0610950095F094E094E11CF11C011D26
:100E9000111D2AE0B801A701CE010E941607DF91BB
:100EA000CF911F910F91FF90EF9008950F931F9393
:100EB0008C010E943307C8010E94E8061F910F9120
:100EC00008952115310521F4642F0E94DC06089550
:100ED0002A30310519F40E94330708950E9416073D
:100EE00008950F931F938C010E946107C8010E940F
:100EF000E8061F910F910895AB01662757FD609595
:100F0000762F0E94330708950F931F938C010E9440
:100F10007C07C8010E94E8061F910F91089508956B
:100F200008951F920F920FB60F9211248F939F93E3
:100F3000AF93BF938091B1019091B201A091B301A1
:100F4000B091B4010196A11DB11D8093B1019093A0
:100F5000B201A093B301B093B401BF91AF919F913F
:100F60008F910F900FBE0F901F9018956091B10157
:100F70007091B2018091B3019091B40127E0660FA6
:100F8000771F881F991F2A95D1F72DE730E040E0A1
:100F900050E00E94E80BCA01B9010895AF92BF92D8
:100FA000CF92DF92EF92FF920F931F935B016C0140
:100FB0000E94B6077B018C010E94B6076E197F095B
:100FC000800B910B6A157B058C059D05A8F31F917D
:100FD0000F91FF90EF90DF90CF90BF90AF9008956A
:100FE000019751F0880F991F880F991F02972FB70B
:100FF000F8940197F1F72FBF089578941092B101FA
:101000001092B2011092B3011092B40184B58260C3
:1010100084BD84B5816084BD85B5826085BD85B59C
:10102000816085BDEEE6F0E0808181608083E1E84B
:10103000F0E0808182608083808181608083E0E84D
:10104000F0E0808181608083E1EBF0E0808184606A
:101050008083E0EBF0E0808181608083ECE7F0E06A
:1010600080818F778083808180648083EAE7F0E0ED
:1010700080818460808380818260808380818160C0
:1010800080838081806880831092C1000895282F1A
:101090003327C9018E579F4FFC0194912A563F4F29
:1010A000F9018491882381F0E82FFF27EC54FF4F4A
:1010B000E491FF27662329F480819095892380831A
:1010C00008958081892B80830895482F5527CA0170
:1010D00082599F4FFC012491CA018E579F4FFC01FA
:1010E00094914A565F4FFA0134913323A1F12223A0
:1010F00031F1233021F4809180008F7705C02430B6
:1011000031F4809180008F7D8093800018C0213061
:1011100019F484B58F7704C0223021F484B58F7D13
:1011200084BD0DC0263021F48091B0008F7705C0BA
:10113000273029F48091B0008F7D8093B000E32F99
:10114000FF27E655FF4FE491FF278081892319F09F
:1011500081E090E0089580E090E00895482F5527C1
:10116000CA0182599F4FFC012491CA018E579F4F9B
:10117000FC0194914A565F4FFA0134913323C1F137
:10118000222331F1233021F4809180008F7705C034
:10119000243031F4809180008F7D8093800018C0CE
:1011A000213019F484B58F7704C0223021F484B53E
:1011B0008F7D84BD0DC0263021F48091B0008F77E3
:1011C00005C0273029F48091B0008F7D8093B00056
:1011D000E32FFF27E155FF4FE491FF27662329F412
:1011E000808190958923808308958081892B8083D5
:1011F0000895EF92FF920F931F937B018C0122E0E1
:1012000030E040E050E00E940A0C205C3D4B404F33
:101210005F4FCA01B901A80197010E940A0C215031
:10122000304040405040BB2757FDBA95A52F942F22
:10123000832F2F5F3F4F4F4F5F4F8093C50021504B
:101240002093C400E1ECF0E08081806180838081A4
:10125000886080838081806880831F910F91FF90D8
:10126000EF900895982F8091C00085FFFCCF909358
:10127000C60008958091AF019091B0012091AD0119
:101280003091AE01821B930B80589F4F60E870E055
:101290000E94D50B08954091AD015091AE0180910F
:1012A000AF019091B0018417950719F48FEF9FEF6C
:1012B0000895FA01EB54FE4F2081CA01019660E8BF
:1012C00070E00E94D50B9093AE018093AD01822F08
:1012D000992708958091AD019091AE019093B0014E
:1012E0008093AF0108951F920F920FB60F921124B1
:1012F0002F933F934F935F936F937F938F939F931E
:10130000AF93BF93EF93FF934091C600E091AF017D
:10131000F091B001CF01019660E870E00E94D50B1A
:101320009C018091AD019091AE012817390739F0E9
:10133000EB54FE4F40833093B0012093AF01FF91F7
:10134000EF91BF91AF919F918F917F916F915F913D
:101350004F913F912F910F900FBE0F901F901895B6
:1013600008950E94320908958AE00E94B109089503
:10137000CF93DF93EC0103C021960E94B1098881CD
:101380008823D1F7DF91CF9108952F923F924F920A
:101390005F926F927F928F929F92AF92BF92CF9205
:1013A000DF92EF92FF920F931F93CF93DF93CDB70E
:1013B000DEB7A0970FB6F894DEBF0FBECDBF6B01AE
:1013C0007C0119012A01611571058105910521F43E
:1013D00080E30E94B1094BC06624772443015E017B
:1013E0000894A11CB11C8501060D171DC701B6018B
:1013F000A20191010E94E80BF80160830894611C2E
:10140000711C811C911CC701B601A20191010E94AF
:10141000E80B69017A01211531054105510519F7DC
:1014200073010894E108F108EA0CFB1CAA24BB2410
:10143000650111C0F70180818A3010F4805D01C020
:10144000895C0E94B1090894A108B108C108D108BB
:101450000894E108F10888279927DC018619970983
:10146000A809B909A816B906CA06DB0619F7A09695
:101470000FB6F894DEBF0FBECDBFDF91CF911F91A5
:101480000F91FF90EF90DF90CF90BF90AF909F9023
:101490008F907F906F905F904F903F902F90089526
:1014A000EF92FF920F931F937B018C0197FF0BC06C
:1014B0008DE20E94B10910950095F094E094E11C32
:1014C000F11C011D111D2AE030E040E050E0C80190
:1014D000B7010E94C5091F910F91FF90EF900895E9
:1014E00020E130E040E050E00E94C509089528E086
:1014F00030E040E050E00E94C509089522E030E06D
:1015000040E050E00E94C50908950F931F93CF93C8
:10151000DF93869F8001879F100D969F100D1124E9
:10152000C8010E94A10AEC01009729F0A80160E01F
:1015300070E00E949A0BCE01DF91CF911F910F9125
:101540000895CF93DF93AC01029710F442E050E08E
:10155000A0913702B0913802FD0120E030E0C0E0F8
:10156000D0E020C0808191818417950769F4828141
:101570009381209719F09B838A8304C0909338024B
:1015800080933702CF0132C04817590738F421152C
:10159000310519F08217930708F49C01EF010280CE
:1015A000F381E02D3097F1F62115310589F1C9015C
:1015B000841B950B049708F4A901E0E0F0E026C035
:1015C0008D919C91119782179307E9F44817590759
:1015D00079F4ED018A819B81309719F0938382839E
:1015E00004C09093380280933702CD01029649C01F
:1015F000841B950BFD01E80FF91F4193519302974E
:101600008D939C933AC0FD01A281B3811097C1F6DE
:101610008091350290913602892B41F480918401AA
:10162000909185019093360280933502209182013A
:10163000309183012115310541F42DB73EB78091DA
:10164000860190918701281B390BE0913502F091BA
:1016500036022E1B3F0B2417350788F0CA0102966D
:101660002817390760F0CF01840F951F02969093D9
:1016700036028093350241935193CF0102C080E03E
:1016800090E0DF91CF910895CF93DF93009709F415
:101690004EC0EC0122971B821A82A0913702B091B2
:1016A0003802109711F140E050E001C0DC01AC17A6
:1016B000BD0700F1BB83AA83FE0121913191E20FA6
:1016C000F31FEA17FB0771F48D919C911197280F76
:1016D000391F2E5F3F4F39832883FD01828193811B
:1016E0009B838A834115510559F4D0933802C093E6
:1016F00037021DC0FD0182819381AD010097B1F6D3
:10170000FA01D383C28321913191E20FF31FEC17C9
:10171000FD0769F488819981280F391F2E5F3F4F9B
:10172000FA01318320838A819B8193838283DF91B5
:10173000CF910895DC0140FF03C001C06D936D930C
:1017400042505040D8F70895FB019F01E894423081
:10175000C4F04532B4F44A3029F497FB1EF4909556
:1017600081959F4F642F77270E94250C805D8A33D7
:101770000CF0895D8193CB010097A1F716F45DE22F
:1017800051931082C9010C94C50BDC01FC0101903E
:101790000020E9F73297AE17BF0730F47C916081E3
:1017A000708331976D93F7CF089597FB092E072625
:1017B0000AD077FD04D049D006D000201AF47095E5
:1017C00061957F4F0895F6F7909581959F4F089505
:1017D000A1E21A2EAA1BBB1BFD010DC0AA1FBB1F35
:1017E000EE1FFF1FA217B307E407F50720F0A21BA7
:1017F000B30BE40BF50B661F771F881F991F1A9414
:1018000069F760957095809590959B01AC01BD013D
:10181000CF01089597FB092E05260ED057FD04D061
:10182000D7DF0AD0001C38F45095409530952195AB
:101830003F4F4F4F5F4F0895F6F790958095709505
:1018400061957F4F8F4F9F4F0895AA1BBB1B51E19E
:1018500007C0AA1FBB1FA617B70710F0A61BB70B20
:10186000881F991F5A95A9F780959095BC01CD01C5
:0E1870000895EE0FFF1F0590F491E02D0994EE
:10187E0002000700080009000A0002000B000C001D
:10188E000000400014005400070706020503080478
:10189E000000000006006170706C65000000000022
:1018AE00000000000062616E616E610000000000C9
:1018BE000000000070696E656170706C650000005C
:1018CE000000006D616E676F0000000000000000F8
:1018DE00000077617465726D656C6F6E00000000BC
:1018EE000070656172000000000000000000000042
:0818FE003A000000390220004D
:00000001FF
