:100000000C945B000C9481000C9481000C94810092
:100010000C9481000C9481000C9481000C9481005C
:100020000C9481000C9481000C9481000C9481004C
:100030000C9481000C9481000C9481000C9481003C
:100040000C94A3010C9481000C94F2030C94810095
:100050000C9481000C9481000C9481000C9481001C
:100060000C9481000C948100A201000000070002A2
:10007000010000030406000000000000000001026F
:100080000408102040800102040810200102040826
:100090001020040404040404040402020202020204
:1000A0000303030303030000232629000025282B54
:1000B000000024272A0011241FBECFEFD4E0DEBFAA
:1000C000CDBF11E0A0E0B1E0ECEDFAE002C0059098
:1000D0000D92AC30B107D9F711E0ACE0B1E001C04E
:1000E0001D92AF39B107E1F710E0CAE6D0E004C0D5
:1000F0002297FE010E946A05C836D107C9F70C9401
:10010000C7000C94000060E0809112010E94C602BA
:1001100060E0809106010E94C60261E080910401C6
:100120000E94C60240E855E260E070E086E191E09E
:100130000E94D40008950F931F93809102010E94A2
:100140005402909315018093140106E111E0BC0163
:10015000C8010E948E0168E071E0C8010E94E700BA
:1001600060910C01809104010E942D0380910C018B
:1001700090910D0190930F0180930E0164EF71E057
:1001800080E090E00E94E0011F910F910895CFEF71
:10019000D4E0DEBFCDBF0E940F020E9483000E9408
:1001A0009B00FDCF08950895CB01BA010E9478030A
:1001B00008950E94B903992708950E94CA030895DB
:1001C0000E94E9030895862F0E9430040895CB0110
:1001D0000E9437040895862F0E94300408950F93DB
:1001E0001F938C016DE00E94E3006AE0C8010E9449
:1001F000E3001F910F9108950F931F938C010E94AC
:10020000E300C8010E94EF001F910F9108950F9322
:100210001F938C010E94E700C8010E94EF001F910C
:100220000F9108950F931F938C010E94EB00C8015A
:100230000E94EF001F910F910895CB01BA0133275F
:10024000442755270E94440408952AE00E941D0176
:1002500008950F931F938C010E942501C8010E94ED
:10026000EF001F910F910895AB01662777270E9439
:10027000250108950F931F938C010E943401C8013A
:100280000E94EF001F910F910895EF92FF920F933C
:100290001F93CF93DF93EC017A018B0177FF0BC0A3
:1002A0006DE20E94E30010950095F094E094E11C4B
:1002B000F11C011D111D2AE0B801A701CE010E9409
:1002C0001D01DF91CF911F910F91FF90EF90089545
:1002D0000F931F938C010E944501C8010E94EF00FB
:1002E0001F910F9108952115310521F4642F0E946B
:1002F000E30008952A30310519F40E94450108955C
:100300000E941D0108950F931F938C010E94730199
:10031000C8010E94EF001F910F910895AB0166275D
:1003200057FD6095762F0E94450108950F931F9306
:100330008C010E948E01C8010E94EF001F910F9155
:100340000895089508951F920F920FB60F921124E9
:100350008F939F93AF93BF9380911B0190911C014A
:10036000A0911D01B0911E010196A11DB11D8093A8
:100370001B0190931C01A0931D01B0931E01BF911E
:10038000AF919F918F910F900FBE0F901F90189576
:1003900060911B0170911C0180911D0190911E01C3
:1003A00027E0660F771F881F991F2A95D1F72DE741
:1003B00030E040E050E00E941705CA01B9010895FD
:1003C000AF92BF92CF92DF92EF92FF920F931F9363
:1003D0005B016C010E94C8017B018C010E94C80175
:1003E0006E197F09800B910B6A157B058C059D05A5
:1003F000A8F31F910F91FF90EF90DF90CF90BF90E7
:10040000AF900895019751F0880F991F880F991F99
:1004100002972FB7F8940197F1F72FBF08957894BA
:1004200010921B0110921C0110921D0110921E01CE
:1004300084B5826084BD84B5816084BD85B58260E9
:1004400085BD85B5816085BDEEE6F0E08081816087
:100450008083E1E8F0E08081826080838081816038
:100460008083E0E8F0E0808181608083E1EBF0E070
:10047000808184608083E0EBF0E080818160808314
:10048000EAE7F0E0808184608083808182608083FD
:100490008081816080838081806880831092C10028
:1004A000089580930A01089590910A019295990FF9
:1004B000990F907C8F70982B90937C0080917A009C
:1004C000806480937A0080917A0086FDFCCF209131
:1004D0007800809179009927982F88273327822BDD
:1004E000932B08951F93CF93DF93182FEB0161E0B7
:1004F0000E94C602E12FFF27E659FF4F8491833007
:1005000051F480918000806880938000D0938900AE
:10051000C093880037C0843051F48091800080629D
:1005200080938000D0938B00C0938A002BC08130D1
:1005300029F484B5806884BDC7BD24C0823029F405
:1005400084B5806284BDC8BD1DC0863041F48091F1
:10055000B00080688093B000C093B30013C08730B0
:1005600041F48091B00080628093B000C093B400E9
:1005700009C0C038D10514F460E001C061E0812FEA
:100580000E942D03DF91CF911F910895282F3327CB
:10059000C90182589F4FFC0194912E563F4FF9019B
:1005A0008491882381F0E82FFF27E055FF4FE491E5
:1005B000FF27662329F480819095892380830895FD
:1005C0008081892B80830895482F5527CA01865939
:1005D0009F4FFC012491CA0182589F4FFC019491C6
:1005E0004E565F4FFA0134913323A1F1222331F1AA
:1005F000233021F4809180008F7705C0243031F4BE
:10060000809180008F7D8093800018C0213019F484
:1006100084B58F7704C0223021F484B58F7D84BDEA
:100620000DC0263021F48091B0008F7705C02730AF
:1006300029F48091B0008F7D8093B000E32FFF27D5
:10064000EA55FF4FE491FF278081892319F081E06B
:1006500090E0089580E090E00895482F5527CA0162
:1006600086599F4FFC012491CA0182589F4FFC017B
:1006700094914E565F4FFA0134913323C1F12223F6
:1006800031F1233021F4809180008F7705C0243030
:1006900031F4809180008F7D8093800018C02130DC
:1006A00019F484B58F7704C0223021F484B58F7D8E
:1006B00084BD0DC0263021F48091B0008F7705C035
:1006C000273029F48091B0008F7D8093B000E32F14
:1006D000FF27E555FF4FE491FF27662329F480812A
:1006E00090958923808308958081892B8083089544
:1006F000EF92FF920F931F937B018C0122E030E079
:1007000040E050E00E943905205C3D4B404F5F4F78
:10071000CA01B901A80197010E9439052150304052
:1007200040405040BB2757FDBA95A52F942F832FEB
:100730002F5F3F4F4F4F5F4F8093C5002150209355
:10074000C400E1ECF0E0808180618083808188607A
:1007500080838081806880831F910F91FF90EF904C
:100760000895982F8091C00085FFFCCF9093C6001C
:1007700008958091190190911A01209117013091EB
:100780001801821B930B80589F4F60E870E00E9415
:1007900004050895409117015091180180911901A5
:1007A00090911A018417950719F48FEF9FEF089520
:1007B000FA01E15EFE4F2081CA01019660E870E017
:1007C0000E9404059093180180931701822F9927A6
:1007D0000895809117019091180190931A018093C8
:1007E000190108951F920F920FB60F9211242F93A3
:1007F0003F934F935F936F937F938F939F93AF93A9
:10080000BF93EF93FF934091C600E0911901F091DF
:100810001A01CF01019660E870E00E9404059C0176
:1008200080911701909118012817390739F0E15E7E
:10083000FE4F408330931A0120931901FF91EF91ED
:10084000BF91AF919F918F917F916F915F914F91E8
:100850003F912F910F900FBE0F901F901895089504
:100860000E94B10308958AE00E9430040895CF9356
:10087000DF93EC0103C021960E9430048881882315
:10088000D1F7DF91CF9108952F923F924F925F92CF
:100890006F927F928F929F92AF92BF92CF92DF9290
:1008A000EF92FF920F931F93CF93DF93CDB7DEB7F5
:1008B000A0970FB6F894DEBF0FBECDBF6B017C01D1
:1008C00019012A01611571058105910521F480E363
:1008D0000E9430044BC06624772443015E010894D3
:1008E000A11CB11C8501060D171DC701B601A2018F
:1008F00091010E941705F80160830894611C711C26
:10090000811C911CC701B601A20191010E9417052B
:1009100069017A01211531054105510519F7730166
:100920000894E108F108EA0CFB1CAA24BB24650129
:1009300011C0F70180818A3010F4805D01C0895CAC
:100940000E9430040894A108B108C108D108089495
:10095000E108F10888279927DC0186199709A80979
:10096000B909A816B906CA06DB0619F7A0960FB68C
:10097000F894DEBF0FBECDBFDF91CF911F910F91D5
:10098000FF90EF90DF90CF90BF90AF909F908F90AF
:100990007F906F905F904F903F902F900895EF92CF
:1009A000FF920F931F937B018C0197FF0BC08DE289
:1009B0000E94300410950095F094E094E11CF11C25
:1009C000011D111D2AE030E040E050E0C801B701F0
:1009D0000E9444041F910F91FF90EF90089520E131
:1009E00030E040E050E00E944404089528E030E008
:1009F00040E050E00E944404089522E030E040E0EE
:100A000050E00E944404089597FB092E07260AD05F
:100A100077FD04D049D006D000201AF47095619576
:100A20007F4F0895F6F7909581959F4F0895A1E225
:100A30001A2EAA1BBB1BFD010DC0AA1FBB1FEE1F58
:100A4000FF1FA217B307E407F50720F0A21BB30BA3
:100A5000E40BF50B661F771F881F991F1A9469F71F
:100A600060957095809590959B01AC01BD01CF017B
:100A7000089597FB092E05260ED057FD04D0D7DF29
:100A80000AD0001C38F450954095309521953F4F81
:100A90004F4F5F4F0895F6F790958095709561954B
:100AA0007F4F8F4F9F4F0895AA1BBB1B51E107C07B
:100AB000AA1FBB1FA617B70710F0A61BB70B881FEE
:100AC000991F5A95A9F780959095BC01CD0108957D
:0C0AD000EE0FFF1F0590F491E02D09943B
:0C0ADC00020001000D0001002F000100CD
:00000001FF
